:020000040800F2
:10000000D00500204901000845170008150F000819
:1000100069120008EB090008972B00080000000097
:10002000000000000000000000000000051B0008A8
:10003000EF0900080000000099190008D91C000809
:100040006301000863010008630100086301000800
:10005000630100086301000863010008F10900085A
:10006000410A0008910A0008E10A0008630100083B
:1000700063010008630100086301000863010008D0
:1000800063010008630100086301000863010008C0
:1000900063010008630100086301000863010008B0
:1000A00063010008630100086301000863010008A0
:1000B000791D00086301000863010008630100085E
:1000C0006301000863010008630100086301000880
:1000D00063010008B52800086301000863010008F7
:1000E0006301000863010008630100086301000860
:1000F0006301000863010008630100086301000850
:10010000630100086301000863010008630100083F
:10011000630100086301000863010008630100082F
:10012000630100086301000863010008630100081F
:10013000DFF810D000F0E6FB004800475D2C000817
:10014000AFF30080D00500200648804706480047EE
:10015000FEE7FEE7FEE7FEE7FEE7FEE7FEE7FEE777
:10016000FEE7FEE7191D00083101000870B50646DC
:1001700002F014FD046805460A220021304600F012
:10018000F4FA2C6070BDF0B480EA0102D40F420092
:10019000B2EB410F02D20246084611464A0042D055
:1001A000C30DDDB2C1F3C752AD1A202D35DAC1F34C
:1001B000160141F4000204B15242C5F1200602FAD0
:1001C00006F12A411044B3EBD05F23D0C4B1012D16
:1001D000A0EBC35009DCF0BC4FF0004202EAC3526E
:1001E000DBB200F5000000F001BB400000F18070C0
:1001F00000EBC350A0F1807040EAD170490009E0E3
:10020000490841EAC071A0EBC35000F50000400866
:1002100000EBC350F0BC00F0E0BA6142012202EBF7
:100220004101001BF6E7F0BC704781F00041AAE7EE
:1002300080F00040A7E730B480EA010202F00045F8
:1002400030F0004221F0004013D090B1C30DD40D26
:10025000C2F31601C0F31600E41A41F4000140F4A1
:1002600000027D34914201D3641C00E04900002C5F
:1002700002DA30BC002070474FF4000000239142A6
:1002800001D3891A034340084FEA4101F7D151B124
:10029000914202D14FF0004105E002D24FF001013E
:1002A00001E06FF0010103EBC450284430BC00F0C2
:1002B00094BA2DE9FE4F804681EA0300C00F0C4638
:1002C000009021F0004123F00045B8EB0200A94165
:1002D00005D24046214690461C460B46024623F076
:1002E0000040104347D0270DC7F30A00C3F30A515B
:1002F0000290401A019040286BDAC3F3130040F4D7
:10030000801B0098924620B10023D2EB030A63EBD6
:100310000B0B01985946C0F14002504600F0F4F929
:1003200006460D4650465946019A00F00CFA10EB6D
:1003300008006141002487EA115284EAE7731A43F6
:1003400040D0009A62B3019A012A4FEA075215DCA5
:10035000001B61EB02014FF0004202EA0752CDE9B7
:100360000042001C41F5801132462B4600F07BFA1A
:1003700003B0BDE8F08F40462146F9E7001B61EB72
:100380000201001C41F5801300185B412018A2F502
:10039000001747EB030140EAD570B6196D4111E033
:1003A0006D084FEA360645EAC0754FEA0752001B52
:1003B00061EB0201001C41F5801149084FEA300051
:1003C0000019514132462B4603B0BDE8F04F00F012
:1003D0003BBA0098012240000023D0EB020263EBFD
:1003E000E073009821464FEAE074B8EB000061EB3F
:1003F0000401E9E783F000435BE781F0004158E73F
:100400002DE9FE4F81EA030404F0004421F000418D
:1004100000944FF0000B23F0004350EA01045ED03B
:1004200052EA03045BD0C3F30A54C1F30A552C44C7
:10043000A4F2F3340194A0FB0254C1F3130141F47C
:100440008011C3F3130343F4801301FB024400FB48
:10045000034E840A970A44EA815447EA8357A4FB6F
:10046000076802958D0A05FB07854FEA932C04FB6C
:100470000C542705029D4FEA065847EA1637B5EB9C
:1004800008056EEB070C870E920E47EA811742EAC9
:100490008312A7FB0201B6EB0B0164EB00042B0DEA
:1004A00043EA0C335E1844EB1C50DA465146E7FB36
:1004B0000201C5F313044FEA0B3343EA14534FEA26
:1004C0000432019C43EA0603A4F10C040294009C4C
:1004D000CDE900B400F0C7F903B0BDE8F08F00200B
:1004E0000146F9E72DE9F04D81EA030404F0004BE1
:1004F00021F0004514464FF0000A23F0004150EA75
:10050000050220D054EA01021DD0C5F30A57024665
:10051000C5F31303C1F31300C1F30A5640F4801569
:1005200043F48013A7EB0608101BD64608F2FD38EB
:1005300073EB050002D308F1010801E092185B415A
:10054000B8F1000F03DA00200146BDE8F08D00206D
:100550004FF48011064684460EE0171B73EB050727
:1005600005D3121B63EB050306434CEA010C490853
:100570004FEA300092185B4150EA0107EDD152EA90
:10058000030012D082EA040083EA0501084305D083
:10059000101BAB4106D20122002306E000224FF0DF
:1005A000004302E06FF0010253101AEB06004CEB1F
:1005B000085110EB0A0041EB0B01BDE8F04D00F0D3
:1005C00043B9C10F80EAE0700844CA0796230021AE
:1005D00000F00CB90EB5C10F80EAE0700844CA07FC
:1005E000002140F233438DE80E000A460B4600F02E
:1005F0003AF903B000BD0EB540F23341029100213B
:10060000CDE900110A460B4600F02DF903B000BDFC
:1006100070B5C1F30A5201F000450024C1F3130183
:1006200040F2FF3341F480119A4201DA002070BD9C
:1006300040F233439A42A2F2334203DC524200F0CA
:1006400072F800E090402C43F1D0404270BDC1F3FD
:100650000A5210B5C1F3130140F2FF3341F4801187
:100660009A4201DA002010BD40F233439A42A2F2CE
:10067000334203DC524200F056F810BD904010BDEA
:1006800000F0004230F000400AD0C10D01F5607169
:10069000C0F3160042EA0151C208400711437047F7
:1006A00000200146704701F0004330B421F00041C2
:1006B00050EA010206D00A0DA2F56072C1F31301DF
:1006C000002A02DC30BC00207047440F44EAC10419
:1006D000C100E01830BC00EBC25000F07EB8000052
:1006E000002801DBC0F10040002901DBC1F100411D
:1006F00081427047002801DBC0F10040002901DB86
:10070000C1F1004188427047202A04DB203A00FAF8
:1007100002F1002070479140C2F1200320FA03F358
:10072000194390407047202A04DB203A21FA02F056
:100730000021704721FA02F3D040C2F1200291401B
:10074000084319467047202A06DBCB17203A41FAA6
:1007500002F043EAE07306E041FA02F3D040C2F14E
:10076000200291400843194670472DE9F047914611
:100770000F4680460446002614F8015B2DB100F0B8
:10078000D3F80068405DC007F6D12B2D02D02D2D87
:1007900018D0641E4A463946204600F0C9F827B1F1
:1007A0003968A14201D1C7F8008071054FF00204F9
:1007B0000BD54042002803DD02F0F0F90460A007E9
:1007C000BDE8F08746F48066E4E70028F8DA02F036
:1007D000E5F904606FF00040F2E70029A8BF704718
:1007E000401C490008BF20F00100704710B4B0FA67
:1007F00080FC00FA0CF050EA010404BF10BC704702
:1008000049B1CCF1200421FA04F411FA0CF118BF1B
:10081000012121430843A3EB0C01CB1D4FEA0061EA
:100820004FEA102042BF002010BC704700EBC350BD
:1008300010440029A4BF10BC7047401C490008BFE9
:1008400020F0010010BC704710B5141E73F10004B5
:1008500008DA401C41F1000192185B411A4301D1B2
:1008600020F0010010BD2DE9F04D92469B4611B1DC
:10087000B1FA81F202E0B0FA80F220329046FFF73E
:1008800043FF04460F4640EA0A0041EA0B01534683
:100890005A46084313D0114653EA010019D0C8F153
:1008A00040025046FFF73FFF05460E465046594668
:1008B0004246FFF729FF084305D0012004E0204607
:1008C0003946BDE8F08D0020054346EAE0762C432A
:1008D00037430A986305E40AA0EB08000022FD0AEA
:1008E00044EA47540A3002D500200146E9E70105F1
:1008F00010196941DDE9084500196941BDE8F04D6D
:10090000A2E70000064C074D06E0E06840F0010356
:1009100094E8070098471034AC42F6D3FFF70CFC7C
:10092000AC300008CC30000800487047A830000800
:100930002DE9F05F82460078002715468B460AF1C4
:100940000104B946302801D09DB113E014F8010B21
:100950000127782803D0582801D045B10AE00DB10D
:10096000102D07D10027102514F8010B02E00825EF
:1009700000E00A250026B0460EE005FB080005FB56
:1009800006F1012701EB10461FFA80F8B6F5803F0B
:1009900000D3B94614F8010B294600F018F80028D6
:1009A000EBDABBF1000F05D00FB1641E00E0544636
:1009B000CBF80040B9F1000F06D002F0EFF80221A9
:1009C0000160C81EBDE8F09F48EA0640FAE73A28F1
:1009D00000D2303820F02002412A01D3A2F13700A2
:1009E000884201D34FF0FF30704700BFFEE77047E9
:1009F00010B5022000F0A4F8012819D102210D48F9
:100A000000F074FA40B90C480078042804D10B486F
:100A10000088401C094908800848008842F20F718C
:100A2000884202DD002005490880022000F082F89B
:100A300010BD0000000801406000002018000020E8
:100A400010B5042000F07CF8012819D104210D48CC
:100A500000F04CFA40B90C480078042804D10B4847
:100A60004088401C094948800848408842F20F717C
:100A7000884202DD002005494880042000F05AF831
:100A800010BD000000080140600000201800002098
:100A900010B5082000F054F8012819D108210D489C
:100AA00000F024FA40B90C480078042804D10B481F
:100AB0008088401C094988800848808842F20F716C
:100AC000884202DD002005498880082000F032F8C5
:100AD00010BD000000080140600000201800002048
:100AE00010B5102000F02CF801281CD110210E4860
:100AF00000F0FCF940B90D480078042804D10C48F6
:100B0000C088401C0A49C88000200949C88008469E
:100B1000C08842F20F71884202DD00200449C8807B
:100B2000102000F007F810BD000801406000002010
:100B300018000020014908607047000014040140BB
:100B4000014600200022074B1B6803EA0102054B07
:100B500014331B680B4013B10AB1012000E00020E0
:100B60007047000000040140002123498279002AD7
:100B70003AD00A46126803689A430B461A600A1D67
:100B8000126803689A430B1D1A60027911440A68BF
:100B900003681A430A60184A0832126803689A43C5
:100BA000154B08331A601A1D126803689A43124BDA
:100BB0000C331A604279102A0ED11A1F126803688A
:100BC0001A430D4B08331A601A1D126803681A4342
:100BD000094B0C331A600DE00749427911440A6849
:100BE00003681A430A6005E0027911440A68036841
:100BF0009A430A6070470000000401400020034946
:100C0000088048808880C880704700001800002055
:100C100008B50121042000F0E1FE1E20ADF800001F
:100C200048208DF8030003208DF80200694605482E
:100C300000F064F800200449088048808880C8805B
:100C400008BD0000000801401800002008B501217F
:100C5000042000F0C3FE0121082000F0BFFEC020E8
:100C6000ADF8000018208DF8030003208DF8020075
:100C70006946054800F042F80320ADF800006946D7
:100C8000024800F03BF808BD00080140000C01409C
:100C900008B50121042000F0A1FE1E20ADF80000DF
:100CA00028208DF8030003208DF8020069460248D1
:100CB00000F024F808BD00000008014030B5002213
:100CC0008B071C0F0F2303FA04F20B4B8C1053F805
:100CD00024309343084C8D1044F8253023468C1063
:100CE00053F824308C07240F00FA04F42343024CF9
:100CF0008D1044F8253030BD080001402DE9F04149
:100D0000024600250026002000230024002791F839
:100D100003C00CF00F0591F803C00CF0100CBCF1EF
:100D2000000F03D091F802C04CEA050591F800C00D
:100D3000BCF1000F31D0146800202BE04FF0010C03
:100D40000CFA00F3B1F800C00CEA03069E4220D171
:100D500083004FF00F0C0CFA03F7BC4305FA03FCB9
:100D60004CEA040491F803C0BCF1280F06D14FF0FF
:100D7000010C0CFA00FCC2F814C00AE091F803C0A0
:100D8000BCF1480F05D14FF0010C0CFA00FCC2F881
:100D900010C0401C0828D1D31460B1F800C0BCF1C9
:100DA000FF0F34DD546800202EE000F1080C4FF0F6
:100DB000010808FA0CF3B1F800C00CEA03069E42E1
:100DC00021D183004FF00F0C0CFA03F7BC4305FA56
:100DD00003FC4CEA040491F803C0BCF1280F05D1D0
:100DE00000F1080C08FA0CF8C2F8148091F803C05E
:100DF000BCF1480F07D100F1080C4FF0010808FAC8
:100E00000CF8C2F81080401C0828CED35460BDE80E
:100E1000F081000008B50121102000F0DFFD012164
:100E2000082000F0DBFD4FF48070ADF800001020CA
:100E30008DF8030003208DF8020069462948FFF76A
:100E40005DFF4FF40070ADF8000069462548FFF7DC
:100E500055FF4FF48060ADF8000069462148FFF768
:100E60004DFF4FF48070ADF8000069461E48FFF753
:100E700045FF4FF40070ADF8000069461A48FFF7CF
:100E80003DFF4FF48060ADF8000069461648FFF75B
:100E900035FF4FF40060ADF8000069461248FFF7D7
:100EA0002DFF4FF48050ADF8000069460E48FFF763
:100EB00025FF4FF40050ADF8000069460A48FFF7DF
:100EC0001DFF4FF48040ADF8000069460648FFF76B
:100ED00015FF4FF40040ADF8000069460248FFF7E7
:100EE0000DFF08BD00100140000C0140024600202B
:100EF00093680B400BB1012000E000207047416176
:100F0000704701617047C16070470AB1016100E03C
:100F10004161704700BFFEE700BF011EA0F1010064
:100F2000FBD1704710B5FFF775FF0C2000F00EF8ED
:100F30003C2000F00BF8062000F008F8012000F03B
:100F400005F80F2000F002F810BD000010B50446AF
:100F50004FF480611148FFF7D2FF4FF480710F48C2
:100F6000FFF7CDFF4FF400710C48FFF7C8FF2102D7
:100F70000B48FFF7C8FF4FF6FF70FFF7CDFF4FF4A8
:100F800080610648FFF7BDFF4FF6FF70FFF7C4FF13
:100F90004FF480610148FFF7B2FF10BD001001401F
:100FA000000C014008B50121482000F017FD202069
:100FB000ADF8000010208DF8030003208DF802002A
:100FC00069460948FFF79AFE20210748FFF799FF75
:100FD0002020ADF8000069460448FFF78FFE20216D
:100FE0000248FFF78EFF08BD000C014000180140C9
:100FF0002DE9F05F06460F4690469946DDE90AABBB
:101000003B2000F069F804463C2000F065F80546F6
:1010100045EA042000B230803D2000F05DF804462F
:101020003E2000F059F8054645EA042000B2388019
:101030003F2000F051F80446402000F04DF80546EE
:1010400045EA042000B2A8F80000432000F044F86C
:101050000446442000F040F8054645EA042000B26A
:10106000A9F80000452000F037F80446462000F0BB
:1010700033F8054645EA042000B2AAF800004720EC
:1010800000F02AF80446482000F026F8054645EA14
:10109000042000B2ABF80000BDE8F09F10B500F0EE
:1010A000A9FA01216B2000F036F800216C2000F035
:1010B00032F80921192000F02EF806211A2000F03C
:1010C0002AF818211B2000F026F818211C2000F017
:1010D00022F800F037F810BD70B5044600F0FCFAB5
:1010E000D02000F0E4FA00F0ADFA204600F0DFFA7C
:1010F00000F0A8FA00F0F0FAD12000F0D8FA00F0E1
:10110000A1FA00F0AEFA0546012000F0C4FA00F0A2
:10111000F1FA284670BD70B505460C4600F0DCFAC1
:10112000D02000F0C4FA00F08DFA284600F0BFFA93
:1011300000F088FA204600F0BAFA00F083FA00F0D6
:10114000D9FA70BD7CB5002400BF1BE012481349DA
:10115000134B144ACDE9001013491448FFF748FF18
:101160000D48B0F90000FFF72CFA05461048016859
:101170002846FFF708F80E490860022001F022FD1A
:10118000601CC4B2962CE1DB0A4909480068FFF7ED
:1011900052F8074908607CBD5A0000205800002022
:1011A0005600002054000020520000205000002073
:1011B0004C000020000016432DE9F05F2148B0F9F3
:1011C0000000FFF7FEF920490860084600681F4943
:1011D00008601C48B0F90000FFF7F3F981461C488D
:1011E00001684846FFF721F80446FFF749FA074629
:1011F0004FF06632174BFFF775F90546FFF753FAC4
:101200001149086011480068FFF73AFA0646124A89
:10121000124BFFF7F5F882468B460B480068FFF744
:101220002FFA06460E4A0F4BFFF7EAF88046524661
:101230005B46FFF73EF80446FFF735FA02490860BF
:10124000BDE8F09F5A000020700000206C000020D4
:101250004C000020666630409A9999999999B93F57
:10126000CDCCCCCCCCCCEC3F00BFFEE710B50446D7
:1012700061B21A48007840B200F0BCFA00EB4000BE
:101280004006000E16490855012C02D0032C1CD133
:101290000DE01348005D002804DB012160B200F07E
:1012A0005DF803E0002160B200F058F80EE00C4851
:1012B000005D002804DB002160B200F04FF803E07D
:1012C000012160B200F04AF800BF00BF00BF04482F
:1012D000015D60B200F0ACF810BD000061000020BC
:1012E0006400002008B50121202000F077FBFF20DA
:1012F000ADF8000010208DF8030003208DF80200E7
:1013000069461548FFF7FAFCFF211348FFF7F7FD80
:1013100000F0FAFA0121002000F020F8012108462F
:1013200000F01CF80121022000F018F80121032030
:1013300000F014F80021084600F07AF8002101209E
:1013400000F076F80021022000F072F8002103205E
:1013500000F06EF808BD00000014014070B50546AD
:101360000C46032D01DC002D00DA70BD2E494C55D2
:1013700035B1012D18D0022D2AD0032D50D13BE0DC
:101380003CB902212948FFF7BCFD01212748FFF79E
:10139000B6FD012C07D101212448FFF7B2FD02213F
:1013A0002248FFF7ACFD3CE03CB908211F48FFF79D
:1013B000A8FD04211D48FFF7A2FD012C07D108213B
:1013C0001A48FFF79CFD04211848FFF79AFD28E012
:1013D0003CB920211548FFF794FD10211348FFF771
:1013E0008EFD012C07D120211048FFF788FD102128
:1013F0000E48FFF786FD14E03CB980210B48FFF74B
:1014000080FD40210948FFF77AFD012C07D180219A
:101410000648FFF774FD40210448FFF772FD00E025
:1014200000BF00BF00BFA0E714000020001401406F
:1014300070B504460D46002C06DB032C04DC611C51
:1014400088B2294600F076FA70BD10B50021084632
:10145000FFF784FF00210120FFF780FF0021022019
:10146000FFF77CFF00210320FFF778FF10BD10B5C8
:1014700001210020FFF772FF01210846FFF76EFFF0
:1014800001210220FFF76AFF01210320FFF766FF19
:1014900010BD000030B585B0002500240020049068
:1014A0004E48008800F40040002841D00020009001
:1014B0000190029003904948057800BF04E0484835
:1014C000005D2DF81400641CAC42F8DBBDF8000090
:1014D0004E2803D100204349087016E0BDF80000F3
:1014E000532803D101203F4908700EE0BDF80000E9
:1014F000572803D102203B49087006E0BDF80000E0
:10150000452802D1032037490870002405E0601CFB
:101510001DF8100004A90855641C022CF7DB04A870
:10152000FEF724FE3049088000202C49088000BFC7
:101530002C48007806284DD2DFE800F0030D172470
:101540003134FFF75BFB00F0D3FAFFF790FF042084
:10155000244908703FE0FFF751FB00F0C9FAFFF79C
:1015600074FF04201F49087035E0FFF747FB00F0C7
:10157000BFFA01201D49087001F0BCF80420194988
:10158000087028E0FFF73AFB00F0B2FA0220174992
:10159000087001F01FF90420124908701BE001F0E7
:1015A0007DFB18E000210846FFF742FF00210120E3
:1015B000FFF73EFF00210220FFF73AFF0021032042
:1015C000FFF736FF00200A490870FFF717FB00F00D
:1015D0008FFA00E000BF00BF05B030BDFC00002066
:1015E000040100206000002074000020760000202C
:1015F0006300002008B50121082000F0EFF9142055
:101600008DF80300C020ADF8000003208DF8020023
:1016100069460448FFF772FBC0210248FFF771FCDE
:1016200008BD0000000C014010B580210448FFF700
:101630005DFC04460A2001F0EBFA204610BD0000D4
:10164000000C014010B5012000F06EF8012000F000
:101650005DF8FFF7E9FF0446002000F057F8204648
:1016600010BD70B50025012000F05EF800240EE0EA
:10167000012000F04BF8FFF7D7FF012802D18020AE
:1016800020410543002000F041F8601CC4B2082C42
:10169000EEDB284670BD10B50446204600F044F845
:1016A000012000F033F8002000F030F810BD70B5D4
:1016B000054600240DE08021214101EA050000F0EB
:1016C00033F8012000F022F8002000F01FF8601C21
:1016D000C4B2082CEFDB70BD10B5012000F024F877
:1016E000012000F013F8002000F01EF8002000F0A8
:1016F0000DF810BD10B5002000F016F8012000F024
:1017000005F8012000F010F810BD000010B50446E7
:10171000224640210348FFF7F8FB0A2001F078FA3F
:1017200010BD0000000C014010B504462246802187
:101730000348FFF7EAFB0A2001F06AFA10BD000037
:10174000000C0140704708B54FF4A06000F048F865
:101750001C208DF8000002208DF8010000208DF87B
:10176000020001208DF80300684600F001F808BD72
:1017700070B5002100230F22C47804B3154C2468EF
:1017800004F4E064C4F5E064210AC1F10403CA4032
:10179000447804FA03F184781440214309010E4C83
:1017A0000678A155047804F01F050124AC400578A3
:1017B0006D11AD0005F1E025C5F8004109E00478A0
:1017C00004F01F050124AC40044D0678761145F85D
:1017D000264070BD0CED00E000E400E080E100E098
:1017E00002490143024A1160704700000000FA05F7
:1017F0000CED00E02DE9FE4F83468A460020029062
:10180000019000903A4830F81A00ABEB000000B2AB
:10181000384921F81A0031F91A10374A32F91A20DA
:10182000881AFEF7D7FE804689460AEB4A003349FC
:1018300001EBC000D0E90063324640464946FEF75E
:10184000DFFD0446FEF7E4FE02902A4931F91A0052
:10185000FEF7C0FE06460F460AEB4A00274901EB99
:10186000C001D1E90243224630463946FEF7C8FDA1
:101870008046FEF7CDFE01901E4931F91A101E4A2E
:1018800032F91A20022303FB12111D4A32F91A20E1
:101890008818FEF79FFE06460F460AEB4A001749D6
:1018A00001EBC000D0E90443224630463946FEF73A
:1018B000A7FD8046FEF7ACFE00900F4830F81A00F6
:1018C0000F4921F81A000B4830F81A000A4921F88C
:1018D0001A00DDE9011001440098084400B20949EA
:1018E00021F81A00084630F91A00BDE8FE8F000002
:1018F00018000020780000208000002098000020C0
:10190000880000209000002010B5FFF79FF900F03C
:10191000D1FB0021012000F00DF80021022000F091
:1019200009F80021032000F005F80021042000F050
:1019300001F810BD70B505460C4604EB840040006C
:1019400004B2B4F57A7F01DD4FF47A74002C00DA2A
:101950000024012D06D0022D09D0032D0CD0042D1A
:1019600014D10EE0A1B20B4800F069FE0FE0A1B265
:10197000084800F066FE0AE0A1B2064800F063FEE7
:1019800005E0A1B2034800F060FE00E000BF00BF28
:1019900070BD0000000400407047000029B1064AF5
:1019A000D2690243044BDA6104E0034AD2698243FC
:1019B000014BDA61704700000010024029B1064A6D
:1019C00012690243044B1A6104E0034A126982431C
:1019D000014B1A61704700000010024029B1064A0D
:1019E00092690243044B9A6104E0034A926982437C
:1019F000014B9A61704700000010024029B1064A6D
:101A0000D2680243044BDA6004E0034AD26882439E
:101A1000014BDA60704700000010024030B5002131
:101A20000022002400232D4D6D6805F00C0121B12A
:101A3000042905D0082923D105E0294D056022E0BD
:101A4000274D05601FE0254D6D6805F47012234D8C
:101A50006D6805F48034022505EB92421CB9214DD6
:101A6000554305600BE01D4D6D6805F400351DB153
:101A70001C4D5543056002E0194D5543056002E0D9
:101A8000174D056000BF00BF144D6D6805F0F001F3
:101A90000909154D6B5C0568DD4045600F4D6D68AB
:101AA00005F4E061090A104D6B5C4568DD40856016
:101AB0000A4D6D6805F46051C90A0B4D6B5C4568B1
:101AC000DD40C560054D6D6805F44041890B074D4B
:101AD0006B5CC568B5FBF3F5056130BD00100240D5
:101AE00000127A0000093D000000002010000020D4
:101AF00000200349087048708870C8707047000063
:101B00002000002070470EB54FF4A060FFF768FE7C
:101B1000FFF7BEF801210020FFF7D0F802210020D6
:101B2000FFF7CCF803210020FFF7C8F804210020BC
:101B3000FFF7C4F807208DF8080003208DF809008E
:101B400001208DF80A008DF80B0002A8FFF710FEA7
:101B500008208DF8080003208DF8090002208DF878
:101B60000A0001208DF80B0002A8FFF701FE0920F2
:101B70008DF8080003208DF809008DF80A00012077
:101B80008DF80B0002A8FFF7F3FD0A208DF808007E
:101B900003208DF8090004208DF80A0001208DF83B
:101BA0000B0002A8FFF7E4FD1E20009000208DF836
:101BB00004000C208DF8050001208DF80600684611
:101BC000FEF7D2FF0EBD10B500F002F810BD000008
:101BD0000CB50020019000903348006840F480303C
:101BE0003149086000BF3048006800F400300090C0
:101BF0000198401C0190009818B90198B0F5A06FA9
:101C0000F1D12948006800F4003010B101200090A3
:101C100001E0002000900098012843D1234800688B
:101C200040F01000214908600846006820F00300D9
:101C300008600846006840F0020008601A484068E2
:101C4000194948600846406848600846406840F4C2
:101C5000806048600846406820F47C104860084670
:101C6000406840F4E81048600846006840F0807022
:101C7000086000BF0C48006800F000700028F9D030
:101C80000948406820F0030007494860084640685A
:101C900040F00200486000BF0348406800F00C00BC
:101CA0000828F9D10CBD00000010024000200240BD
:101CB000042808D14FF0E021096941F004014FF0F8
:101CC000E022116107E04FF0E021096921F00401F1
:101CD0004FF0E022116170477047000010B50446D4
:101CE0006FF00400FFF7E4FFE11704EB5171C1F35B
:101CF000C701074A11701046007800EB4001C1EBA4
:101D0000C0104FF6FF7101EAC0000249088010BD03
:101D1000F8000020FA00002010B51348006840F0D9
:101D200001001149086008464068104908400E4902
:101D30004860084600680E4908400B49086008469C
:101D4000006820F4802008600846406820F4FE0007
:101D500048604FF41F008860FFF735FF4FF00060C8
:101D60000449086010BD0000001002400000FFF8A8
:101D7000FFFFF6FE08ED00E02DE9F05F0121880786
:101D800000F0E8FA002870D0A4480078042804D1B4
:101D9000A3480088401CA2490880A2480088401C33
:101DA000A04908800846008832281AD19E48007849
:101DB0009E4908709C48407848709B48807888709D
:101DC0009948C078C8709A4800889A49088098480D
:101DD000408848809648808888809548C088C88018
:101DE00020E09048008896281CD18F4800789249BE
:101DF00008708D48407848708B48807888708A4891
:101E0000C078C8708A4800888C4908808848408813
:101E100048808748808888808548C088C88000209E
:101E2000804908808548008882490988884207DA05
:101E30008048008881490988401A8149088006E065
:101E40007E4800887B490988401A7D4908807B4884
:101E5000408878494988884208DA76484088774936
:101E60004988401A7649488007E0D4E073484088A2
:101E700070494988401A72494880704880886D4985
:101E80008988884207DA6B4880886C498988401ABB
:101E90006B49888006E06948808866498988401ACD
:101EA000674988806548C0886249C988884207DADE
:101EB0006048C0886149C988401A6149C88006E005
:101EC0005E48C0885B49C988401A5D49C8805C4942
:101ED0000888FEF790FB82465A4A5B4BFEF790FA61
:101EE00080460022594BFEF78BFA06460022584BDB
:101EF000FEF7F8FA0446FEF7AAFB56490870504967
:101F00004888FEF778FB06464E4A4F4BFEF778FAB4
:101F1000804600224D4BFEF773FA044600224C4BDC
:101F2000FEF7E0FA8246FEF792FB4A4948704449C0
:101F30008888FEF760FB8046424A434BFEF760FA12
:101F400006460022414BFEF75BFA04460022404B56
:101F5000FEF7C8FA8246FEF77AFB3E498870384998
:101F6000C888FEF748FB8046364A374BFEF748FAEA
:101F700006460022354BFEF743FA04460022344B56
:101F8000FEF7B0FA8246FEF762FB3249C870274876
:101F900000782949097808442E4909780844032122
:101FA00090FBF1F020490870204840782249497898
:101FB0000844284949780844032190FBF1F01A4964
:101FC00048701A4880781C498978084421498978E2
:101FD0000844032190FBF1F0134988701348C0783E
:101FE0001549C97808441B49C9780844032190FB66
:101FF000F1F00D49C8700A480088642807D1002014
:102000000749088014480078401C134908700121D2
:10201000880700F09CF8BDE8F09F000060000020F9
:102020002600002024000020200000204000002086
:10203000180000202800002044000020300000206C
:10204000380000201F85EB51B81E094000001840E1
:102050000000344048000020620000203EB50546E4
:102060000C4601210846FFF799FC4FF0804000F034
:102070007DF8ADF80450ADF800400020ADF8020046
:10208000ADF806008DF8080069464FF0804000F07A
:10209000DFFA0121880700F057F801221146900766
:1020A00000F069F9FFF74FFB0121880700F052F8B3
:1020B0003EBD000000B587B001210220FFF76EFC95
:1020C00040F2E730ADF814004720ADF810000020D2
:1020D000ADF81600ADF8120004A91A4800F0B8FADD
:1020E0006020ADF800000120ADF802003220ADF80C
:1020F00006000020ADF808006946124800F044F9D7
:102100000821104800F08CF969460E4800F092F959
:1021100008210C4800F0E0F969460A4800F0EAF9A5
:102120000821084800F036FA6946064800F03CFAF3
:102130000821044800F076FA0121024800F00AF86C
:1021400007B000BD00040040CA4302827047CA4382
:102150000282704721B1028842F00102028004E04D
:1021600002884FF6FE731A400280704710B504468D
:102170006848844208D10121C014FFF73FFC0021C8
:10218000E014FFF73BFCC4E0B4F1804F08D101211B
:102190000846FFF713FC00210120FFF70FFCB8E011
:1021A0005D48844208D101210220FFF707FC00218D
:1021B0000220FFF703FCACE05848844208D101211B
:1021C0000420FFF7FBFB00210420FFF7F7FBA0E052
:1021D0005348844208D101210820FFF7EFFB00217A
:1021E0000820FFF7EBFB94E04E48844208D1012120
:1021F0001020FFF7E3FB00211020FFF7DFFB88E052
:102200004948844208D101212020FFF7D7FB002153
:102210002020FFF7D3FB7CE04448844208D1012111
:102220004014FFF7EBFB00216014FFF7E7FB70E0C1
:102230003F48844209D10121C804FFF7DFFB002198
:102240004FF40020FFF7DAFB63E03A48844209D1FB
:1022500001210805FFF7D2FB00214FF48010FFF7A2
:10226000CDFB56E03448844209D101214805FFF7EF
:10227000C5FB00214FF40010FFF7C0FB49E02F48D9
:10228000844208D101214020FFF798FB0021402023
:10229000FFF794FB3DE02A48844208D101218020C9
:1022A000FFF78CFB00218020FFF788FB31E02548F9
:1022B000844208D101218015FFF780FB0021A01581
:1022C000FFF77CFB25E02048844209D10121080466
:1022D000FFF794FB00214FF48030FFF78FFB18E0ED
:1022E0001A48844209D101214804FFF787FB0021E5
:1022F0004FF40030FFF782FB0BE01548844208D111
:1023000001218804FFF77AFB00214FF48020FFF7BA
:1023100075FB10BD002C0140000400400008004087
:10232000000C004000100040001400400034014048
:10233000004C014000500140005401400018004092
:10234000001C0040002000400040014000440140CB
:102350000048014030B50246002000230024158AC1
:1023600005EA0103958905EA010413B10CB10120C6
:1023700000E0002030BD1AB183890B43838102E065
:1023800083898B438381704770B50024002200232A
:10239000058C4FF6FE7635400584028C8388048BCD
:1023A0004FF68F752C40B51E2C400D882C43751EA2
:1023B0002A400D892A434D882A43144DA8420BD048
:1023C000134DA84208D0134DA84205D0124DA84283
:1023D00002D0124DA84213D14FF6F7752A404D890D
:1023E0002A434FF6FB752A408D882A434FF6FF6536
:1023F0002B404FF6FF552B408D892B43CD892B4326
:1024000083800483CD888586028470BD002C0140C2
:1024100000340140004001400044014000480140B8
:102420000A460021018B4FF6F773194011430183CF
:102430007047000070B5002400220023058C4FF681
:10244000EF7635400584028C8388048B48F6FF754F
:102450002C404FF6FF452C400D884FF6FF7606EADC
:1024600005252C434FF6DF752A400D8906EA051530
:102470002A434D8806EA05152A43154DA84202D085
:10248000144DA8421DD14FF67F752A404D894FF655
:10249000FF7606EA05152A434FF6BF752A408D8858
:1024A00006EA05152A434FF6FF352B404FF2FF751C
:1024B0002B408D8906EA85052B43CD8906EA8505E3
:1024C0002B4383800483CD880587028470BD000080
:1024D000002C0140003401400A460021018B4FF2DC
:1024E000FF7319404FF6FF7303EA02231943018378
:1024F0007047000070B5002400220023058C4FF6C1
:10250000FF6635400584028C8388848B4FF68F7577
:102510002C404FF6FC752C400D882C434FF6FF5590
:102520002A400D894FF6FF7606EA05252A434D8895
:1025300006EA05252A43154DA84202D0144DA842AB
:102540001DD14FF2FF752A404D894FF6FF7606EAFE
:1025500005252A434FF6FF352A408D8806EA0525D2
:102560002A434EF6FF752B404DF6FF752B408D89A3
:1025700006EA05152B43CD8906EA05152B43838012
:102580008483CD888587028470BD0000002C0140C3
:10259000003401400A460021818B4FF6F773194041
:1025A000114381837047000070B50022002300248E
:1025B000058C4EF6FF7635400584038C8488828B2B
:1025C00048F6FF752A404FF6FF452A400D884FF622
:1025D000FF7606EA05252A434DF6FF752B400D8947
:1025E00006EA05352B434D8806EA05352B430B4D8E
:1025F000A84202D00A4DA84208D14BF6FF752C40E4
:102600008D894FF6FF7606EA85152C4384808283F8
:10261000CD88A0F84050038470BD0000002C01401C
:10262000003401400A460021818B4FF2FF731940AC
:102630004FF6FF7303EA02231943818370478186B3
:1026400070470187704781877047A0F84010704736
:10265000002202881D4B98420ED01D4B98420BD091
:10266000B0F1804F08D01B4B984205D01A4B9842CE
:1026700002D01A4B984204D14FF68F731A404B8800
:102680001A43174B984207D0164B984204D04FF686
:10269000FF431A40CB881A4302808B8883850B88BE
:1026A00003850A4B98420BD0094B984208D00E4B39
:1026B000984205D00D4B984202D00D4B984201D163
:1026C0000B7A03860123838270470000002C0140AF
:1026D000003401400004004000080040000C0040AD
:1026E0000010004000140040004001400044014040
:1026F000004801401CB52D482D492E4B2E4ACDE9EE
:1027000000102E492E48FEF773FC00210846FEF704
:1027100025FE00210120FEF721FE01210220FEF707
:102720001DFE01210320FEF719FEFEF745FD254998
:1027300025480068FDF7D4FF1CD8244800780128FC
:1027400018D12348016820480068FDF71CFD1E4988
:10275000086032210020FEF76BFE32210120FEF7D7
:1027600067FE32210220FEF763FE32210320FEF7CE
:102770005FFE1AE0134914480068FDF7BBFF14D24E
:102780000020124908701049086000210846FEF731
:102790004FFE00210120FEF74BFE00210220FEF734
:1027A00047FE00210320FEF743FE1CBD5A00002017
:1027B0005800002056000020540000205200002045
:1027C000500000200000B442680000207600002085
:1027D000700000201CB52D482D492E4B2E4ACDE906
:1027E00000102E492E48FEF703FC01210020FEF7C1
:1027F000B5FD01210846FEF7B1FD00210220FEF7DC
:10280000ADFD00210320FEF7A9FDFEF7D5FC25490B
:1028100025480068FDF76EFF1CD224480078022886
:1028200018D12348016820480068FDF7ACFC1E4918
:10283000086032210020FEF7FBFD32210120FEF767
:10284000F7FD32210220FEF7F3FD32210320FEF7CF
:10285000EFFD1AE0134914480068FDF741FF14D258
:102860000020124908701049086000210846FEF750
:10287000DFFD00210120FEF7DBFD00210220FEF735
:10288000D7FD00210320FEF7D3FD1CBD5A00002018
:102890005800002056000020540000205200002064
:1028A000500000200000B4C2680000207600002024
:1028B0007000002010B540F225511D4800F0ABF823
:1028C00010B31B4800F062F9C4B21A48008800F443
:1028D0000040C8B91748008800F4804060B10A2C55
:1028E00003D000201349088020E01248008840F4FB
:1028F00000401049088019E00D2C06D10D480088D1
:1029000040F480400B49088010E00A480088C0F37A
:102910000D0009490C5407480088401C05490880EF
:1029200008460088C72801DD0020088010BD00008F
:1029300000380140FC0000200401002010B586B0E2
:10294000044601210420FFF749F801218803FFF71D
:1029500045F84FF40070ADF8140003208DF8160010
:1029600018208DF8170005A91E48FEF7C7F94FF487
:102970008060ADF8140004208DF8170005A91948EF
:10298000FEF7BCF901940020ADF80800ADF80A008C
:10299000ADF80C00ADF810000C20ADF80E0001A948
:1029A000114800F087F801210F4800F028F8402175
:1029B0000D4800F01BF8012240F225510A4800F0B2
:1029C00054F825208DF8000003208DF801008DF8C3
:1029D000020001208DF803006846FEF7C9FE06B02C
:1029E00010BD0000000801400038014001F40072F1
:1029F000B2F5007F00D100BFCA430280704721B109
:102A0000828942F40052828104E082894DF6FF738C
:102A10001A408281704770B50246002400230025C9
:102A2000002040F66A16B14200D100BFC1F3421542
:102A300001F01F03012606FA03F3012D02D1968946
:102A4000334006E0022D02D1168A334001E0968A17
:102A500033400C12012606FA04F41688344013B1F0
:102A60000CB1012000E0002070BDF0B50346002449
:102A700000260025002040F66A17B94200D100BFA9
:102A80001846C1F3421401F01F06012707FA06F5A4
:102A9000012C01D10C3004E0022C01D1103000E0F7
:102AA00014301AB107682F43076002E00768AF438C
:102AB0000760F0BD2DE9F04786B005460E460024BC
:102AC000A24600BFA1460027B08900B100BF2F4633
:102AD0002C8A4CF6FF700440F08804432C82AC89A9
:102AE0004EF6F3100440B0883189084371890843D9
:102AF0000443AC81AC8A4FF6FF400440B0890443E4
:102B0000AC8201A8FEF78AFF1F48874202D1DDF898
:102B100010A001E0DDF80CA0A88900F4004040B14D
:102B20000AEBCA0000EB0A1031684900B0FBF1F86B
:102B300007E00AEBCA0000EB0A1031688900B0FB1D
:102B4000F1F86420B8FBF0F004012009642101FBD6
:102B50001089A88900F4004040B1322000EBC90080
:102B6000B0FBF1F000F00700044308E0322000EB76
:102B700009106421B0FBF1F000F00F0004432C8138
:102B800006B0BDE8F08700000038014001468888A3
:102B9000C0F30800704700BFFEE700000048704720
:102BA0000001002002E008C8121F08C1002AFAD163
:102BB00070477047002001E001C1121F002AFBD1BD
:102BC000704700000146114A12884A434FF0E02343
:102BD0005A6100229A611A46126942F001021A6192
:102BE00000BF4FF0E022106900F001021AB100F4BA
:102BF0008032002AF5D04FF0E022126922F0010263
:102C00004FF0E0231A6100229A617047FA00002019
:102C10000146114A12784A434FF0E0235A610022DC
:102C20009A611A46126942F001021A6100BF4FF020
:102C3000E022106900F001021AB100F48032002A8B
:102C4000F5D04FF0E022126922F001024FF0E023AC
:102C50001A6100229A617047F800002000F004F821
:102C600001E0FEF717FCFCE710B5FEF74CFFFEF79E
:102C700099F94820FFF732F84FF4E130FFF75EFE94
:102C8000472142F20F70FFF7E9F9FEF707FAFEF766
:102C900029FBFDF7BDFFFEF745F910BD10B5DB4977
:102CA0000978DA4A52781144D84A92781144D74ABE
:102CB000D278114401EB81014800C11700EB9171FA
:102CC000C1F38701D24A1170D24800880B287DD207
:102CD000DFE800F006173D638BB1D7FCFBFAF90083
:102CE00000210846FEF7A4FB00210120FEF7A0FB0F
:102CF00000210220FEF79CFB00210320FEF798FB39
:102D000082E10020FEF7B2FA0120FEF7AFFA0220BE
:102D1000FEF7ACFA0320FEF7A9FABE48008800EBE4
:102D20008000BD490978B1EB400F0FD10020B949AF
:102D30000880B94908700520B8490870B84800688B
:102D400008B9012000E00020B54908605CE10020DE
:102D5000FEF78CFA0120FEF789FA0220FEF786FAC8
:102D60000320FEF783FAAB48008800EB8000AA49F5
:102D70000978B1EB400F0FD10020A6490880A64981
:102D800008700520A5490870A548006808B9012009
:102D900000E00020A249086036E10020FEF766FA54
:102DA0000120FEF763FA0220FEF760FA0320FEF727
:102DB0005DFA9848008800EB800097490978B1EBEC
:102DC000400F11D100209349088000E01BE1924997
:102DD00008700520914908709148006808B90120E1
:102DE00000E000208E4908600EE10020FEF73EFA68
:102DF0000120FEF73BFA0220FEF738FA0320FEF727
:102E000035FA8448008800EB800083490978B1EBEB
:102E1000400F0FD100207F4908807F4908700520AE
:102E20007E4908707E48006808B9012000E0002053
:102E30007B490860E8E00020FEF718FA0120FEF761
:102E400015FA0220FEF712FA0320FEF70FFA714876
:102E5000008800EB800070490978B1EB400F0FD17A
:102E600000206C4908806C49087005206B49087087
:102E70006B48006808B9012000E00020684908603C
:102E8000C2E00020FEF7F2F90120FEF7EFF9022080
:102E9000FEF7ECF90320FEF7E9F95E48008800EB45
:102EA00080005D490978B1EB400F13D100205949EA
:102EB000088059490870052058490870584800682A
:102EC00028B9012004E078E051E02AE003E0002086
:102ED0005349086098E00020FEF7C8F90120FEF78A
:102EE000C5F90220FEF7C2F90320FEF7BFF94948F1
:102EF000008800EB800048490978B1EB400F0FD102
:102F0000002044490880444908700520434908705E
:102F10004348006808B9012000E0002040490860EB
:102F200072E00020FEF7A2F90120FEF79FF90220CF
:102F3000FEF79CF90320FEF799F93648008800EB6C
:102F4000800035490978B1EB400F0FD1002031499D
:102F50000880314908700520304908703048006801
:102F600008B9012000E000202D4908604CE0002055
:102F7000FEF77CF90120FEF779F90220FEF776F9D9
:102F80000320FEF773F92348008800EB80002249F4
:102F90000978B1EB400F0FD100201E4908801E496F
:102FA000087005201D4908701D48006808B90120F7
:102FB00000E000201A49086026E00020FEF756F9DC
:102FC0000120FEF753F90220FEF750F90320FEF727
:102FD0004DF91048008800EB80000F490978B1EBEB
:102FE000400F0FD100200B4908800B4908700520C5
:102FF0000A4908700A48006808B9012000E000206A
:103000000749086000E000BF00BF10BD200000209D
:103010006300002074000020620000206000002097
:103020009481214200404040404040404040414166
:10303000414141404040404040404040404040408D
:103040004040404040050202020202020202020227
:103050000202020202202020202020202020200224
:1030600002020202020290909090909010101010B4
:103070001010101010101010101010101010101050
:1030800002020202020288888888888808080808E4
:1030900008080808080808080808080808080808B0
:1030A000020202024000000025300008CC30000877
:1030B0000000002004010000A42B0008D03100080B
:1030C00004010020CC040000B42B00080000000024
:1030D00001020304010203040607080902040608AA
:1030E00001010101000000000000000000000000DC
:1030F00000000000000000000000000000000000D0
:1031000000000000000000000000000000000000BF
:1031100000000000000000000000000000000000AF
:103120000000000000000000000000000508000092
:10313000000000000000000000000000000000008F
:10314000000000000000000000000000000000007F
:10315000000000000000000000000000000000006F
:1031600000000000000000000000204000000000FF
:103170000000004000000000000039400000000096
:10318000000020400000000000000040000000009F
:103190000000394000000000000020400000000056
:1031A0000000004000000000000039400000000066
:1031B000000020400000000000000040000000006F
:1031C0000000394000000000000000000000000086
:0400000508000131BD
:00000001FF
