:020000040800F2
:10000000D80400204501000859040008EF02000848
:10001000F30200088D0100088F0B000800000000AB
:100020000000000000000000000000004105000882
:100030009101000800000000FD0400082D060008E2
:100040005F0100085F0100085F0100085F01000810
:100050005F0100085F0100085F0100085F01000800
:100060005F0100085F0100085F0100085F010008F0
:100070005F0100085F0100085F0100085F010008E0
:100080005F0100085F0100085F0100085F010008D0
:100090005F0100085F0100085F0100085F010008C0
:1000A0005F0100085F0100085F0100085F010008B0
:1000B0005F0100085F0100085F0100085F010008A0
:1000C0005F0100085F0100085F0100085F01000890
:1000D0005F010008A90A00085F0100085F0100082D
:1000E0005F0100085F0100085F0100085F01000870
:1000F0005F0100085F0100085F0100085F01000860
:100100005F0100085F0100085F0100085F0100084F
:100110005F0100085F0100085F0100085F0100083F
:100120005F0100085F0100085F0100085F0100082F
:10013000DFF80CD000F018F800480047D10B000899
:10014000D80400200648804706480047FEE7FEE73F
:10015000FEE7FEE7FEE7FEE7FEE7FEE7FEE7FEE777
:100160003106000831010008064C074D06E0E06842
:1001700040F0010394E8070098471034AC42F6D3EE
:10018000FFF7DAFF500C0008700C000800BFFEE714
:100190007047000008B50121042000F0C1F9C0201B
:1001A000ADF8000018208DF8030003208DF8020040
:1001B0006946054800F00CF80320ADF800006946D8
:1001C000024800F005F808BD00080140000C01409D
:1001D0002DE9F041024600250026002000230024DE
:1001E000002791F803C00CF00F0591F803C00CF044
:1001F000100CBCF1000F03D091F802C04CEA0505C9
:1002000091F800C0BCF1000F31D0146800202BE041
:100210004FF0010C0CFA00F3B1F800C00CEA030631
:100220009E4220D183004FF00F0C0CFA03F7BC4321
:1002300005FA03FC4CEA040491F803C0BCF1280F52
:1002400006D14FF0010C0CFA00FCC2F814C00AE011
:1002500091F803C0BCF1480F05D14FF0010C0CFA26
:1002600000FCC2F810C0401C0828D1D31460B1F8BB
:1002700000C0BCF1FF0F34DD546800202EE000F117
:10028000080C4FF0010808FA0CF3B1F800C00CEAB2
:1002900003069E4221D183004FF00F0C0CFA03F7A6
:1002A000BC4305FA03FC4CEA040491F803C0BCF11A
:1002B000280F05D100F1080C08FA0CF8C2F81480D8
:1002C00091F803C0BCF1480F07D100F1080C4FF0C2
:1002D000010808FA0CF8C2F81080401C0828CED398
:1002E0005460BDE8F081416170470161704700BF13
:1002F000FEE700BFFEE7000008B50121042000F082
:100300000FF90F20ADF8000010208DF80300032036
:100310008DF8020069461548FFF75AFF0F21134870
:10032000FFF7E1FF00F099F80121002000F020F82C
:100330000121084600F01CF80121022000F018F805
:100340000121032000F014F80021084600F062F8B3
:100350000021012000F05EF80021022000F05AF890
:100360000021032000F056F808BD000000080140FD
:1003700070B505460C46032D01DC002D00DA70BD7A
:100380002148445535B1012D10D0022D1AD0032D2E
:1003900030D123E01CB901211C48FFF7A6FF012C36
:1003A00003D101211948FFF79EFF24E01CB9022167
:1003B0001648FFF79AFF012C03D102211348FFF7DB
:1003C00092FF18E01CB904211048FFF78EFF012CA2
:1003D00003D104210D48FFF786FF0CE01CB908216A
:1003E0000A48FFF782FF012C03D108210748FFF7D5
:1003F0007AFF00E000BF00BF0548415D284600F0DD
:1004000009F800BFBBE70000000000200008014021
:100410000400002070B504460D46002C15DB032CAB
:1004200013DC0B490D550B48005D012803D129460B
:10043000601C00F029F80748005D38B9C5F1640078
:1004400081B2601C00F020F800E070BD00BFFCE746
:100450000400002000000020704710B5FFF79AFE4E
:1004600000F016F90021012000F00EF80021022012
:1004700000F00AF80021032000F006F80021042013
:1004800000F002F810BD000070B505460C4604EB04
:1004900084004FF6FF7101EA4004B4F57A7F02DD73
:1004A0004FF47A7000E020460446002C01DA002068
:1004B00000E020460446012D06D0022D09D0032D70
:1004C0000CD0042D14D10EE021460B4800F091FA17
:1004D0000FE02146084800F08EFA0AE0214606485F
:1004E00000F08BFA05E02146034800F088FA00E0AE
:1004F00000BF00BF70BD0000000400407047000056
:1005000029B1064AD2690243044BDA6104E0034A86
:10051000D2698243014BDA6170470000001002404B
:1005200029B1064A92690243044B9A6104E0034AE6
:1005300092698243014B9A617047000000100240AB
:10054000704710B500F002F810BD00000CB5002097
:10055000019000903348006840F4803031490860D1
:1005600000BF3048006800F4003000900198401C43
:100570000190009818B90198B0F5A06FF1D1294801
:10058000006800F4003010B10120009001E000206C
:1005900000900098012843D12348006840F01000E3
:1005A000214908600846006820F0030008600846FA
:1005B000006840F0020008601A4840681949486025
:1005C0000846406848600846406840F480604860DB
:1005D0000846406820F47C1048600846406840F4B3
:1005E000E81048600846006840F08070086000BF6E
:1005F0000C48006800F000700028F9D009484068F5
:1006000020F00300074948600846406840F00200B7
:10061000486000BF0348406800F00C000828F9D18A
:100620000CBD000000100240002002407047000096
:1006300010B51348006840F00100114908600846F1
:100640004068104908400E494860084600680E4955
:1006500008400B4908600846006820F480200860C4
:100660000846406820F4FE0048604FF41F00886090
:10067000FFF767FF4FF000600449086010BD0000FD
:10068000001002400000FFF8FFFFF6FE08ED00E05A
:1006900000B587B001210220FFF732FF40F2E730BA
:1006A000ADF814004720ADF810000020ADF816009A
:1006B000ADF8120004A91A4800F0A4F96020ADF8C2
:1006C00000000120ADF802003220ADF80600002045
:1006D000ADF808006946124800F030F808211048CB
:1006E00000F078F869460E4800F07EF808210C48C2
:1006F00000F0CCF869460A4800F0D6F8082108480E
:1007000000F022F96946064800F028F9082104485B
:1007100000F062F90121024800F004F807B000BDC2
:100720000004004021B1028842F00102028004E08E
:1007300002884FF6FE731A400280704770B500249D
:1007400000220023058C4FF6FE7635400584028C8E
:100750008388048B4FF68F752C40B51E2C400D8876
:100760002C43751E2A400D892A434D882A43144D77
:10077000A8420BD0134DA84208D0134DA84205D073
:10078000124DA84202D0124DA84213D14FF6F77570
:100790002A404D892A434FF6FB752A408D882A430B
:1007A0004FF6FF652B404FF6FF552B408D892B43AD
:1007B000CD892B4383800483CD888586028470BDD8
:1007C000002C014000340140004001400044014041
:1007D000004801400A460021018B4FF6F77319408B
:1007E000114301837047000070B5002400220023EC
:1007F000058C4FF6EF7635400584028C8388048B98
:1008000048F6FF752C404FF6FF452C400D884FF6FB
:10081000FF7606EA05252C434FF6DF752A400D8941
:1008200006EA05152A434D8806EA05152A43154DA3
:10083000A84202D0144DA8421DD14FF67F752A4020
:100840004D894FF6FF7606EA05152A434FF6BF7528
:100850002A408D8806EA05152A434FF6FF352B40BE
:100860004FF2FF752B408D8906EA85052B43CD8914
:1008700006EA85052B4383800483CD88058702849F
:1008800070BD0000002C0140003401400A460021E8
:10089000018B4FF2FF7319404FF6FF7303EA0223F7
:1008A000194301837047000070B500240022002323
:1008B000058C4FF6FF6635400584028C8388848B57
:1008C0004FF68F752C404FF6FC752C400D882C434D
:1008D0004FF6FF552A400D894FF6FF7606EA0525AB
:1008E0002A434D8806EA05252A43154DA84202D021
:1008F000144DA8421DD14FF2FF752A404D894FF685
:10090000FF7606EA05252A434FF6FF352A408D88F3
:1009100006EA05252A434EF6FF752B404DF6FF7576
:100920002B408D8906EA05152B43CD8906EA05156E
:100930002B4383808483CD888587028470BD00002B
:10094000002C0140003401400A460021818B4FF603
:10095000F7731940114381837047000070B500227E
:1009600000230024058C4EF6FF7635400584038C69
:100970008488828B48F6FF752A404FF6FF452A404F
:100980000D884FF6FF7606EA05252A434DF6FF75DA
:100990002B400D8906EA05352B434D8806EA0535BF
:1009A0002B430B4DA84202D00A4DA84208D14BF66A
:1009B000FF752C408D894FF6FF7606EA85152C438E
:1009C00084808283CD88A0F84050038470BD0000ED
:1009D000002C0140003401400A460021818B4FF277
:1009E000FF7319404FF6FF7303EA02231943818313
:1009F0007047818670470187704781877047A0F8EC
:100A000040107047002202881D4B98420ED01D4BAB
:100A100098420BD0B0F1804F08D01B4B984205D0C4
:100A20001A4B984202D01A4B984204D14FF68F735A
:100A30001A404B881A43174B984207D0164B9842DE
:100A400004D04FF6FF431A40CB881A4302808B88AC
:100A500083850B8803850A4B98420BD0094B98423B
:100A600008D00E4B984205D00D4B984202D00D4B4A
:100A7000984201D10B7A03860123838270470000DC
:100A8000002C0140003401400004004000080040F8
:100A9000000C0040001000400014004000400140E5
:100AA000004401400048014010B540F225511D4866
:100AB00000F03EF810B31B4800F064F8C4B21A48C6
:100AC000008800F40040C8B91748008800F480404E
:100AD00060B10A2C03D000201349088020E012489E
:100AE000008840F400401049088019E00D2C06D120
:100AF0000D48008840F480400B49088010E00A4807
:100B00000088C0F30D0009490C5407480088401CB8
:100B10000549088008460088C72801DD00200880B4
:100B200010BD000000380140080000200C0000202B
:100B300070B50246002400230025002040F66A1606
:100B4000B14200D100BFC1F3421501F01F030126DD
:100B500006FA03F3012D02D19689334006E0022DF7
:100B600002D1168A334001E0968A33400C120126E6
:100B700006FA04F41688344013B10CB1012000E0E9
:100B8000002070BD01468888C0F30800704700BF90
:100B9000FEE702E008C8121F08C1002AFAD1704718
:100BA0007047002001E001C1121F002AFBD17047ED
:100BB00006E0064900BF0A1EA1F10101FBD100BFFA
:100BC000011EA0F10100F4D170470000401901009E
:100BD000FFF792FB3AE050210020FFF71BFC502169
:100BE0000120FFF717FC50210220FFF713FC5021D2
:100BF0000320FFF70FFC0A20FFF7DAFF0121002096
:100C0000FFF7B6FB00210120FFF7B2FB0121022014
:100C1000FFF7AEFB00210320FFF7AAFB0A20FFF736
:100C2000C7FF32210020FFF7F5FB0A20FFF7C0FFC6
:100C300014210120FFF7EEFB0A20FFF7B9FF012185
:100C40000846FFF795FB0A20FFF7B2FFC3E7000055
:100C5000700C0008000000200C000000920B00083F
:100C60007C0C00080C000020CC040000A20B000843
:0C0C700001010101000000000000000074
:0400000508000131BD
:00000001FF
