:020000040800F2
:10000000C00500204501000829110008D50C000892
:10001000B90D0008830900089F23000800000000B4
:10002000000000000000000000000000E1140008D3
:10003000870900080000000089130008B5160008B1
:100040005F0100085F0100085F0100085F01000810
:100050005F0100085F0100085F01000889090008CE
:10006000AD090008D1090008F50900085F01000882
:100070005F0100085F0100085F0100085F010008E0
:100080005F0100085F0100085F0100085F010008D0
:100090005F0100085F0100085F0100085F010008C0
:1000A0005F0100085F0100085F0100085F010008B0
:1000B000551700085F0100085F0100085F01000894
:1000C0005F0100085F0100085F0100085F01000890
:1000D0005F010008BD2000085F0100085F01000803
:1000E0005F0100085F0100085F0100085F01000870
:1000F0005F0100085F0100085F0100085F01000860
:100100005F0100085F0100085F0100085F0100084F
:100110005F0100085F0100085F0100085F0100083F
:100120005F0100085F0100085F0100085F0100082F
:10013000DFF80CD000F0C2FB004800472D25000876
:10014000C00500200648804706480047FEE7FEE756
:10015000FEE7FEE7FEE7FEE7FEE7FEE7FEE7FEE777
:10016000F516000831010008F0B480EA0102D40F4E
:100170004200B2EB410F02D20246084611464A0045
:1001800042D0C30DDDB2C1F3C752AD1A202D35DA0E
:10019000C1F3160141F4000204B15242C5F1200638
:1001A00002FA06F12A411044B3EBD05F23D0C4B168
:1001B000012DA0EBC35009DCF0BC4FF0004202EA75
:1001C000C352DBB200F5000000F0BEBA400000F1FF
:1001D000807000EBC350A0F1807040EAD1704900FC
:1001E00009E0490841EAC071A0EBC35000F50000E6
:1001F000400800EBC350F0BC00F09DBA6142012200
:1002000002EB4101001BF6E7F0BC704781F00041B2
:10021000AAE780F00040A7E730B480EA010202F0CC
:10022000004530F0004221F0004013D090B1C30DE2
:10023000D40DC2F31601C0F31600E41A41F4000114
:1002400040F400027D34914201D3641C00E0490077
:10025000002C02DA30BC002070474FF4000000236D
:10026000914201D3891A034340084FEA4101F7D173
:1002700051B1914202D14FF0004105E002D24FF05E
:10028000010101E06FF0010103EBC450284430BCD0
:1002900000F051BA2DE9FE4F804681EA0300C00FFD
:1002A0000C46009021F0004123F00045B8EB02001D
:1002B000A94105D24046214690461C460B460246BF
:1002C00023F00040104347D0270DC7F30A00C3F3C3
:1002D0000A510290401A019040286BDAC3F31300D0
:1002E00040F4801B0098924620B10023D2EB030A11
:1002F00063EB0B0B01985946C0F14002504600F0E9
:10030000E9F906460D4650465946019A00F001FAB1
:1003100010EB08006141002487EA115284EAE77378
:100320001A4340D0009A62B3019A012A4FEA075259
:1003300015DC001B61EB02014FF0004202EA07529C
:10034000CDE90042001C41F5801132462B4600F0F9
:1003500038FA03B0BDE8F08F40462146F9E7001BAC
:1003600061EB0201001C41F5801300185B4120186D
:10037000A2F5001747EB030140EAD570B6196D41AD
:1003800011E06D084FEA360645EAC0754FEA07529C
:10039000001B61EB0201001C41F5801149084FEA86
:1003A00030000019514132462B4603B0BDE8F04FF2
:1003B00000F0F8B90098012240000023D0EB0202BF
:1003C00063EBE073009821464FEAE074B8EB00005D
:1003D00061EB0401E9E783F000435BE781F0004152
:1003E00058E72DE9FE4F81EA030404F0004421F0B0
:1003F000004100944FF0000B23F0004350EA010449
:100400005ED052EA03045BD0C3F30A54C1F30A5529
:100410002C44A4F2F3340194A0FB0254C1F3130161
:1004200041F48011C3F3130343F4801301FB02442E
:1004300000FB034E840A970A44EA815447EA835733
:10044000A4FB076802958D0A05FB07854FEA932CEC
:1004500004FB0C542705029D4FEA065847EA16375D
:10046000B5EB08056EEB070C870E920E47EA811775
:1004700042EA8312A7FB0201B6EB0B0164EB000416
:100480002B0D43EA0C335E1844EB1C50DA46514600
:10049000E7FB0201C5F313044FEA0B3343EA14539D
:1004A0004FEA0432019C43EA0603A4F10C040294CF
:1004B000009CCDE900B400F084F903B0BDE8F08FF2
:1004C00000200146F9E72DE9F04D81EA030404F02C
:1004D000004B21F0004514464FF0000A23F0004184
:1004E00050EA050220D054EA01021DD0C5F30A5794
:1004F0000246C5F31303C1F31300C1F30A5640F4D7
:10050000801543F48013A7EB0608101BD64608F2AB
:10051000FD3873EB050002D308F1010801E09218E1
:100520005B41B8F1000F03DA00200146BDE8F08D11
:1005300000204FF48011064684460EE0171B73EB33
:10054000050705D3121B63EB050306434CEA010CB8
:1005500049084FEA300092185B4150EA0107EDD19B
:1005600052EA030012D082EA040083EA050108433C
:1005700005D0101BAB4106D20122002306E0002269
:100580004FF0004302E06FF0010253101AEB060037
:100590004CEB085110EB0A0041EB0B01BDE8F04DAC
:1005A00000F000B996230022114600F0CDB80EB538
:1005B000C10F80EAE0700844CA07002140F23343CB
:1005C0008DE80E000A460B4600F0FBF803B000BDB4
:1005D0000EB540F2334102910021CDE900110A46E7
:1005E0000B4600F0EEF803B000BD00F0004220F032
:1005F0000040C10DC0F3160040F400007F2901DA6D
:1006000000207047962903DCC1F19601C84001E043
:1006100096398840002AF4D040427047C1F30A520C
:1006200010B5C1F3130140F2FF3341F480119A4237
:1006300001DA002010BD40F233439A42A2F2334265
:1006400003DC524200F055F810BD904010BD00F0A0
:10065000004230F000400AD0C10D01F56071C0F3D6
:10066000160042EA0151C2084007114370470020BA
:100670000146704701F0004330B421F0004150EAD8
:10068000010206D00A0DA2F56072C1F31301002A1F
:1006900002DC30BC00207047440F44EAC104C100B2
:1006A000E01830BC00EBC25000F045B8002801DB78
:1006B000C0F10040002901DBC1F1004181427047D7
:1006C000002801DBC0F10040002901DBC1F100413D
:1006D00088427047202A04DB203A00FA02F1002009
:1006E00070479140C2F1200320FA03F31943904070
:1006F0007047202A04DB203A21FA02F000217047DB
:1007000021FA02F3D040C2F1200291400843194679
:100710007047202A06DBCB17203A41FA02F043EA61
:10072000E07306E041FA02F3D040C2F120029140AA
:100730000843194670470029A8BF7047401C49006C
:1007400008BF20F00100704710B4B0FA80FC00FA36
:100750000CF050EA010404BF10BC704749B1CCF161
:10076000200421FA04F411FA0CF118BF01212143ED
:100770000843A3EB0C01CB1D4FEA00614FEA1020A8
:1007800042BF002010BC704700EBC350104400294A
:10079000A4BF10BC7047401C490008BF20F00100F6
:1007A00010BC704710B5141E73F1000408DA401C29
:1007B00041F1000192185B411A4301D120F0010080
:1007C00010BD2DE9F04D92469B4611B1B1FA81F270
:1007D00002E0B0FA80F220329046FFF77BFF044639
:1007E0000F4640EA0A0041EA0B0153465A460843C5
:1007F00013D0114653EA010019D0C8F14002504607
:10080000FFF777FF05460E46504659464246FFF72A
:1008100061FF084305D0012004E020463946BDE8C9
:10082000F08D0020054346EAE0762C4337430A98D2
:100830006305E40AA0EB08000022FD0A44EA4754DD
:100840000A3002D500200146E9E701051019694187
:10085000DDE9084500196941BDE8F04DA2E770B532
:1008600021F0004303430CD0C1F30A550024D5EB1B
:10087000040564EB0403D617AD1AB34102DB002074
:10088000014670BD201841EB025170BD30B5041E09
:1008900071F1000404DB4FF00044404264EB0101BD
:1008A000141E73F1000405DB1C464FF00043524256
:1008B00063EB0403994208BF904230BD064C074DDC
:1008C00006E0E06840F0010394E807009847103420
:1008D000AC42F6D3FFF730FC7034000890340008C7
:1008E0002DE9F04D00231A461B1A8A4103DB002034
:1008F0000146BDE8F08DC1F30A52C1F3130141F482
:1009000080154FF0000BD10702D100186D41521E27
:100910000027044640F2FF11384601EB620A3E46CA
:100920008046024600204FF48011FFF7E2FEC21914
:100930007141BB1846EB0100B4EB030C75EB000CE6
:1009400004D3E41A65EB000517460E46241908F196
:1009500001006D4180463428E3DDF91946EB0600BD
:10096000091BA84103D24FF0FF32134601E00022D9
:1009700013461BEB070046EB0A51BDE8F04DFFF7AD
:1009800011BF00BFFEE7704710B5022000F04AF823
:10099000012804D104480068401C03490860022073
:1009A00000F03AF810BD0000D400002010B504207B
:1009B00000F038F8012804D104484068401C03497D
:1009C0004860042000F028F810BD0000D40000208A
:1009D00010B5082000F026F8012804D104488068EA
:1009E000401C03498860082000F016F810BD000084
:1009F000D400002010B5102000F014F8012804D114
:100A00000448C068401C0349C860102000F004F886
:100A100010BD0000D40000200149086070470000AC
:100A200014040140014600200022074B1B6803EA22
:100A30000102054B14331B680B4013B10AB10120AE
:100A400000E000207047000000040140002123491D
:100A50008279002A3AD00A46126803689A430B4604
:100A60001A600A1D126803689A430B1D1A60027906
:100A700011440A6803681A430A60184A0832126867
:100A800003689A43154B08331A601A1D12680368ED
:100A90009A43124B0C331A604279102A0ED11A1F56
:100AA000126803681A430D4B08331A601A1D126846
:100AB00003681A43094B0C331A600DE00749427969
:100AC00011440A6803681A430A6005E00279114478
:100AD0000A6803689A430A607047000000040140F6
:100AE00000200349086048608860C86070470000C3
:100AF000D400002008B50121042000F067FC01218A
:100B0000082000F063FCC020ADF8000018208DF82C
:100B1000030003208DF802006946054800F042F802
:100B20000320ADF800006946024800F03BF808BD1C
:100B300000080140000C014008B50121042000F02C
:100B400045FC1E20ADF8000028208DF8030003208E
:100B50008DF802006946024800F024F808BD000044
:100B60000008014030B500228B071C0F0F2303FA49
:100B700004F20B4B8C1053F824309343084C8D1027
:100B800044F8253023468C1053F824308C07240F6A
:100B900000FA04F42343024C8D1044F8253030BD94
:100BA000080001402DE9F041024600250026002002
:100BB00000230024002791F803C00CF00F0591F8E2
:100BC00003C00CF0100CBCF1000F03D091F802C070
:100BD0004CEA050591F800C0BCF1000F31D0146853
:100BE00000202BE04FF0010C0CFA00F3B1F800C02C
:100BF0000CEA03069E4220D183004FF00F0C0CFA42
:100C000003F7BC4305FA03FC4CEA040491F803C063
:100C1000BCF1280F06D14FF0010C0CFA00FCC2F811
:100C200014C00AE091F803C0BCF1480F05D14FF0A1
:100C3000010C0CFA00FCC2F810C0401C0828D1D3EB
:100C40001460B1F800C0BCF1FF0F34DD546800201F
:100C50002EE000F1080C4FF0010808FA0CF3B1F88F
:100C600000C00CEA03069E4221D183004FF00F0C16
:100C70000CFA03F7BC4305FA03FC4CEA040491F8B0
:100C800003C0BCF1280F05D100F1080C08FA0CF8DC
:100C9000C2F8148091F803C0BCF1480F07D100F1ED
:100CA000080C4FF0010808FA0CF8C2F81080401C3C
:100CB0000828CED35460BDE8F08102460020936836
:100CC0000B400BB1012000E00020704741617047EC
:100CD0000161704700BFFEE710B5002400BF0EE0C1
:100CE00001F02AFC0C4800780C490978084440B20D
:100CF00009490870022001F0F3FB601CC4B2962C75
:100D0000EEDB054890F90000962190FBF1F040B22F
:100D10000149087010BD00002200002028000020BA
:100D20002DE9F05F1B4800681B4908601B49B1F9B9
:100D300000101B4A92F90020881AFFF738FC06467B
:100D40004FF06632174BFFF7BEFB0446FFF792FCED
:100D50001049086010480068FFF779FC0646124AFF
:100D6000124BFFF73EFB04460D460A480068FFF7AA
:100D70006EFC06460E4A0F4BFFF733FB80462246B9
:100D80002B46FFF787FA8246FFF774FC014908609B
:100D9000BDE8F09F3C000020380000202800002023
:100DA00022000020666630409A9999999999B93F36
:100DB000CDCCCCCCCCCCEC3F00BFFEE708B50121BC
:100DC000202000F003FBFF20ADF8000010208DF87C
:100DD000030003208DF8020069461548FFF7E2FE84
:100DE000FF211348FFF772FF00F086FA012100206F
:100DF00000F020F80121084600F01CF80121022033
:100E000000F018F80121032000F014F80021084632
:100E100000F07AF80021012000F076F8002102208D
:100E200000F072F80021032000F06EF808BD000009
:100E30000014014070B505460C46032D01DC002D61
:100E400000DA70BD2E494C5535B1012D18D0022D58
:100E50002AD0032D50D13BE03CB902212948FFF7AD
:100E600037FF01212748FFF731FF012C07D101216E
:100E70002448FFF72DFF02212248FFF727FF3CE01F
:100E80003CB908211F48FFF723FF04211D48FFF745
:100E90001DFF012C07D108211A48FFF717FF042175
:100EA0001848FFF715FF28E03CB920211548FFF747
:100EB0000FFF10211348FFF709FF012C07D1202154
:100EC0001048FFF703FF10210E48FFF701FF14E061
:100ED0003CB980210B48FFF7FBFE40210948FFF792
:100EE000F5FE012C07D180210648FFF7EFFE4021D7
:100EF0000448FFF7EDFE00E000BF00BF00BFA0E721
:100F0000140000200014014070B504460D46002C6A
:100F100008DB032C06DC04490D55611C88B2294608
:100F200000F000FA70BD00001800002010B500218C
:100F30000846FFF77FFF00210120FFF77BFF00211C
:100F40000220FFF777FF00210320FFF773FF10BD9A
:100F500010B501210020FFF76DFF01210846FFF7C2
:100F600069FF01210220FFF765FF01210320FFF740
:100F700061FF10BD2DE9F04F8BB04FF0000A6548BE
:100F8000008800F4004000287ED0002008900990DE
:100F9000834600245F4890F800A000BF04E05E484C
:100FA000005D08A90855641C5445F8DB00240EE0D8
:100FB00008A8005D5949095D884200D106E008A8EB
:100FC000005D564908554FF0010B00BF641C5445A5
:100FD000EEDBBBF1010F69D14FF00009002429E0DD
:100FE00008A9085DFFF7F4FACDE90401C4F1010096
:100FF000FFF7DDFA02460B46CDE9000100204FF075
:10100000804101F045FCCDE90201DDE90423FFF751
:10101000E8F905460E464846FFF7DAFA07462A463B
:101020003346FFF737F9CDE90601FFF7F7FA00F08D
:10103000FF09641C022CD3DB394880F800904FF084
:10104000000902242CE008A9085DFFF7C1FA074651
:101050008846C4F10600FFF7AAFA02460B46CDE91E
:10106000000100204FF0804101F012FC3A46434657
:10107000CDE90201FFF7B5F905460E464846FFF7F0
:10108000A7FA2A46334600E014E0CDE90401FFF751
:1010900001F9CDE90601FFF7C1FA00F0FF09641C70
:1010A000062CD0DB1F4880F8009000BF00201949B3
:1010B000088000BF1A48007830B101280AD0022801
:1010C00014D0032818D10BE0FFF742FF0420144985
:1010D000087012E0FFF72AFF0420114908700CE0A5
:1010E00000F090FF04200E49087006E000F02EFF8B
:1010F00004200B49087000E000BF00BF08480078DA
:10110000042803D10748007802F0EAF80BB0BDE8E4
:10111000F08F0000CC000020F400002041000020EF
:101120003000002040000020704708B54FF4A06058
:1011300000F046F81C208DF8000000208DF8020019
:1011400001208DF80300684600F002F808BD000099
:1011500070B5002100230F22C47804B3154C246815
:1011600004F4E064C4F5E064210AC1F10403CA4058
:10117000447804FA03F184781440214309010E4CA9
:101180000678A155047804F01F050124AC400578C9
:101190006D11AD0005F1E025C5F8004109E00478C6
:1011A00004F01F050124AC40044D0678761145F883
:1011B000264070BD0CED00E000E400E080E100E0BE
:1011C00002490143024A1160704700000000FA051D
:1011D0000CED00E02DE9F04F89B081460C463F4808
:1011E00010F82400A9EB00003D490855095D3D4A6F
:1011F000125D022303FB12113B4A125D8818FFF7B0
:10120000D6F90746884604EB4400384901EBC00094
:10121000D0E904532A4638464146FFF7E2F8CDE9C3
:1012200004012F49085DFFF7D3F90746884604EB10
:1012300044002E4901EBC000D0E902532A4638464B
:101240004146FFF7CEF882468B462549095D254A7F
:10125000125D881AFFF7ABF905460E4604EB440011
:10126000224901EBC000D0E900733A4628463146D6
:10127000FFF7B7F852465B46CDE90001FFF70AF8E1
:10128000CDE90201DDE90423FFF704F8CDE9060109
:10129000FFF7C4F9164921F81400164830F8140075
:1012A00031F814100844134921F814000D48005D6A
:1012B0000D4908550A48005D0A4908550D4830F89F
:1012C0001400642803DD64200A4921F81400094849
:1012D00030F8140009B0BDE8F08F0000D400002001
:1012E0004B0000204F000020530000206800002029
:1012F000580000206000002010B5FFF7FBFB00F055
:1013000007FB0021012000F00DF80021022000F071
:1013100009F80021032000F005F80021042000F066
:1013200001F810BD70B505460C4604EB8400400082
:1013300004B2B4F57A7F01DD4FF47A74002C00DA40
:101340000024012D06D0022D09D0032D0CD0042D30
:1013500014D10EE0A1B20B4800F09DFD0FE0A1B248
:10136000084800F09AFD0AE0A1B2064800F097FD97
:1013700005E0A1B2034800F094FD00E000BF00BF0B
:1013800070BD0000000400407047000029B1064A0B
:10139000D2690243044BDA6104E0034AD269824312
:1013A000014BDA61704700000010024029B1064A83
:1013B00012690243044B1A6104E0034A1269824332
:1013C000014B1A61704700000010024029B1064A23
:1013D00092690243044B9A6104E0034A9269824392
:1013E000014B9A61704700000010024029B1064A83
:1013F000D2680243044BDA6004E0034AD2688243B5
:10140000014BDA60704700000010024030B5002147
:101410000022002400232D4D6D6805F00C0121B140
:10142000042905D0082923D105E0294D056022E0D3
:10143000274D05601FE0254D6D6805F47012234DA2
:101440006D6805F48034022505EB92421CB9214DEC
:10145000554305600BE01D4D6D6805F400351DB169
:101460001C4D5543056002E0194D5543056002E0EF
:10147000174D056000BF00BF144D6D6805F0F00109
:101480000909154D6B5C0568DD4045600F4D6D68C1
:1014900005F4E061090A104D6B5C4568DD4085602C
:1014A0000A4D6D6805F46051C90A0B4D6B5C4568C7
:1014B000DD40C560054D6D6805F44041890B074D61
:1014C0006B5CC568B5FBF3F5056130BD00100240EB
:1014D00000127A0000093D000000002010000020EA
:1014E00070470EB5FFF728FB01210846FFF76EFF96
:1014F00001210020FFF736FB02210020FFF732FB1D
:1015000003210020FFF72EFB04210020FFF72AFB18
:1015100008208DF8080001208DF8090002208DF8C0
:101520000A0001208DF80B0002A8FFF711FE092028
:101530008DF8080001208DF8090003208DF80A00BD
:1015400001208DF80B0002A8FFF702FE0A208DF89B
:10155000080001208DF8090004208DF80A00012000
:101560008DF80B0002A8FFF7F3FD07208DF80800A7
:1015700001208DF809008DF80A008DF80B0002A8F3
:10158000FFF7E6FD1E20009000208DF804000820E3
:101590008DF8050001208DF806006846FFF756FA21
:1015A0000EBD10B500F002F810BD00000CB5002013
:1015B000019000903348006840F480303149086061
:1015C00000BF3048006800F4003000900198401CD3
:1015D0000190009818B90198B0F5A06FF1D1294891
:1015E000006800F4003010B10120009001E00020FC
:1015F00000900098012843D12348006840F0100073
:10160000214908600846006820F003000860084689
:10161000006840F0020008601A48406819494860B4
:101620000846406848600846406840F4806048606A
:101630000846406820F47C1048600846406840F442
:10164000E81048600846006840F08070086000BFFD
:101650000C48006800F000700028F9D00948406884
:1016600020F00300074948600846406840F0020047
:10167000486000BF0348406800F00C000828F9D11A
:101680000CBD00000010024000200240042808D1D8
:101690004FF0E021096941F004014FF0E0221161AF
:1016A00007E04FF0E021096921F004014FF0E0224A
:1016B000116170477047000010B504466FF00400D8
:1016C000FFF7E4FFE11704EB5171C1F3C701074ACB
:1016D00011701046007800EB4001C1EBC0104FF6CE
:1016E000FF7101EAC0000249088010BDC800002057
:1016F000CA00002010B51348006840F001001149ED
:10170000086008464068104908400E49486008468D
:1017100000680E4908400B4908600846006820F43C
:10172000802008600846406820F4FE0048604FF4BE
:101730001F008860FFF735FF4FF000600449086024
:1017400010BD0000001002400000FFF8FFFFF6FE91
:1017500008ED00E02DE9FC5F0121880700F026FA82
:1017600001287DD10121800700F01CF94F48008835
:10177000401C4E49088008460088B0F57A7F6FDB30
:10178000002008804A480068FEF761FF06460F46C1
:1017900048490868FEF706FF00904748016800982E
:1017A000FEF73AFD0190FEF752FF8246434A444B52
:1017B000FEF717FE804632463B46FEF712FE044611
:1017C000FEF758FF3F49086039480068FEF73FFFC1
:1017D00004460D4637494868FEF7E4FE0090364857
:1017E00001680098FEF718FD0190FEF730FF804673
:1017F000324A334BFEF7F5FD064622462B46FEF7EE
:10180000F0FD8246FEF736FF2E4948602848006802
:10181000FEF71DFF04460D4626498868FEF7C2FE06
:101820008346254801685846FEF7F6FC8246FEF7D7
:101830000EFF8046214A224BFEF7D3FD0646224684
:101840002B46FEF7CEFDCDE90001FEF713FF1D4943
:10185000886017480068FEF7FAFE04460D4600E06F
:1018600021E01449C868FEF79DFE00901248016807
:101870000098FEF7D1FC0190FEF7E9FE06460F4AFC
:101880000F4BFEF7AEFD804622462B46FEF7A9FD24
:101890008246FEF7EFFE0B49C8600020054908604C
:1018A00048608860C860BDE8FC9F00002000002000
:1018B000D4330008D4000020D83300081F85EB5132
:1018C000B81E0940E40000203EB505460C46012143
:1018D0000846FFF75BFD4FF0804000F073F8ADF86D
:1018E0000450ADF800400020ADF8020069464FF00A
:1018F000804000F0D9FA01221146900700F067F904
:101900000121880700F051F8FFF70FFC3EBD0000F1
:1019100000B587B001210220FFF738FD40F2E73023
:10192000ADF814004720ADF810000020ADF8160007
:10193000ADF8120004A91A4800F0B6FA6020ADF81C
:1019400000000120ADF802003220ADF806000020B2
:10195000ADF808006946124800F042F90821104825
:1019600000F08AF969460E4800F090F908210C4809
:1019700000F0DEF969460A4800F0E8F90821084855
:1019800000F034FA6946064800F03AFA08210448A3
:1019900000F074FA0121024800F007F807B000BD1A
:1019A00000040040CA430282704721B1028842F01D
:1019B0000102028004E002884FF6FE731A400280A2
:1019C0007047000010B504466848844208D10121E0
:1019D000C014FFF70BFD0021E014FFF707FDC4E082
:1019E000B4F1804F08D101210846FFF7DFFC002148
:1019F0000120FFF7DBFCB8E05D48844208D10121FB
:101A00000220FFF7D3FC00210220FFF7CFFCACE05F
:101A10005848844208D101210420FFF7C7FC002167
:101A20000420FFF7C3FCA0E05348844208D1012101
:101A30000820FFF7BBFC00210820FFF7B7FC94E06B
:101A40004E48844208D101211020FFF7AFFC00214D
:101A50001020FFF7ABFC88E04948844208D10121FF
:101A60002020FFF7A3FC00212020FFF79FFC7CE053
:101A70004448844208D101214014FFF7B7FC0021FB
:101A80006014FFF7B3FC70E03F48844209D10121A4
:101A9000C804FFF7ABFC00214FF40020FFF7A6FCC1
:101AA00063E03A48844209D101210805FFF79EFC12
:101AB00000214FF48010FFF799FC56E0344884422F
:101AC00009D101214805FFF791FC00214FF40010D6
:101AD000FFF78CFC49E02F48844208D101214020C7
:101AE000FFF764FC00214020FFF760FC3DE02A483E
:101AF000844208D101218020FFF758FC002180207A
:101B0000FFF754FC31E02548844208D101218015BB
:101B1000FFF74CFC0021A015FFF748FC25E020480A
:101B2000844209D101210804FFF760FC00214FF431
:101B30008030FFF75BFC18E01A48844209D101218C
:101B40004804FFF753FC00214FF40030FFF74EFC30
:101B50000BE01548844208D101218804FFF746FCB8
:101B600000214FF48020FFF741FC10BD002C014004
:101B70000004004000080040000C0040001000403D
:101B80000014004000340140004C0140005001406E
:101B90000054014000180040001C0040002000409C
:101BA00000400140004401400048014030B5024679
:101BB000002000230024158A05EA0103958905EA1F
:101BC000010413B10CB1012000E0002030BD1AB1B6
:101BD00083890B43838102E083898B438381704730
:101BE00070B5002400220023058C4FF6FE763540A8
:101BF0000584028C8388048B4FF68F752C40B51EAC
:101C00002C400D882C43751E2A400D892A434D888F
:101C10002A43144DA8420BD0134DA84208D0134DAF
:101C2000A84205D0124DA84202D0124DA84213D1AD
:101C30004FF6F7752A404D892A434FF6FB752A4027
:101C40008D882A434FF6FF652B404FF6FF552B40FA
:101C50008D892B43CD892B4383800483CD88858652
:101C6000028470BD002C014000340140004001405E
:101C700000440140004801400A460021018B4FF614
:101C8000F7731940114301837047000070B50024B9
:101C900000220023058C4FF6EF7635400584028C38
:101CA0008388048B48F6FF752C404FF6FF452C4087
:101CB0000D884FF6FF7606EA05252C434FF6DF75B3
:101CC0002A400D8906EA05152A434D8806EA0515BE
:101CD0002A43154DA84202D0144DA8421DD14FF6FB
:101CE0007F752A404D894FF6FF7606EA05152A438F
:101CF0004FF6BF752A408D8806EA05152A434FF630
:101D0000FF352B404FF2FF752B408D8906EA850584
:101D10002B43CD8906EA85052B4383800483CD8838
:101D20000587028470BD0000002C01400034014092
:101D30000A460021018B4FF2FF7319404FF6FF73E3
:101D400003EA0223194301837047000070B50024A1
:101D500000220023058C4FF6FF6635400584028C77
:101D60008388848B4FF68F752C404FF6FC752C4082
:101D70000D882C434FF6FF552A400D894FF6FF760C
:101D800006EA05252A434D8806EA05252A43154D0E
:101D9000A84202D0144DA8421DD14FF2FF752A402F
:101DA0004D894FF6FF7606EA05252A434FF6FF35A3
:101DB0002A408D8806EA05252A434EF6FF752B40FA
:101DC0004DF6FF752B408D8906EA05152B43CD890D
:101DD00006EA05152B4383808483CD88858702849A
:101DE00070BD0000002C0140003401400A46002173
:101DF000818B4FF6F77319401143818370470000C0
:101E000070B5002200230024058C4EF6FF76354085
:101E10000584038C8488828B48F6FF752A404FF630
:101E2000FF452A400D884FF6FF7606EA05252A432E
:101E30004DF6FF752B400D8906EA05352B434D887D
:101E400006EA05352B430B4DA84202D00A4DA842A5
:101E500008D14BF6FF752C408D894FF6FF7606EAC8
:101E600085152C4384808283CD88A0F8405003845C
:101E700070BD0000002C0140003401400A460021E2
:101E8000818B4FF2FF7319404FF6FF7303EA022371
:101E90001943818370478186704701877047818726
:101EA0007047A0F840107047002202881D4B9842EE
:101EB0000ED01D4B98420BD0B0F1804F08D01B4B79
:101EC000984205D01A4B984202D01A4B984204D13E
:101ED0004FF68F731A404B881A43174B984207D01E
:101EE000164B984204D04FF6FF431A40CB881A4352
:101EF00002808B8883850B8803850A4B98420BD020
:101F0000094B984208D00E4B984205D00D4B984291
:101F100002D00D4B984201D10B7A038601238382B4
:101F200070470000002C01400034014000040040D4
:101F300000080040000C0040001000400014004069
:101F400000400140004401400048014010B500F04D
:101F5000F3FA00210846FEF76DFF00210120FEF78D
:101F600069FF01210220FEF765FF01210320FEF732
:101F700061FFFEF7D5FE1F491F480068FEF796FB7C
:101F80001CD81E480078012818D11D4801681A483D
:101F90000068FEF7E9F81849086032210020FEF7D2
:101FA000B3FF32210120FEF7AFFF32210220FEF7FE
:101FB000ABFF32210320FEF7A7FF1AE00D490E48C0
:101FC0000068FEF77DFB14D200200C4908700A4916
:101FD000086000210846FEF797FF00210120FEF768
:101FE00093FF00210220FEF78FFF00210320FEF760
:101FF0008BFF10BD0000B4423400002049000020D7
:102000003C00002010B500F097FA01210020FEF7F7
:1020100011FF01210846FEF70DFF00210220FEF707
:1020200009FF00210320FEF705FFFEF779FE1F4997
:102030001F480068FEF744FB1CD21E4800780228A7
:1020400018D11D4801681A480068FEF78DF8184934
:10205000086032210020FEF757FF32210120FEF7F1
:1020600053FF32210220FEF74FFF32210320FEF7FB
:102070004BFF1AE00D490E480068FEF717FB14D21B
:1020800000200C4908700A49086000210846FEF744
:102090003BFF00210120FEF737FF00210220FEF761
:1020A00033FF00210320FEF72FFF10BD0000B4C254
:1020B00034000020490000203C00002010B540F210
:1020C00025511D4800F0ABF810B31B4800F062F931
:1020D000C4B21A48008800F40040C8B91748008804
:1020E00000F4804060B10A2C03D00020134908801E
:1020F00020E01248008840F400401049088019E0B0
:102100000D2C06D10D48008840F480400B49088012
:1021100010E00A480088C0F30D0009490C54074834
:102120000088401C0549088008460088C72801DD52
:102130000020088010BD000000380140CC000020C5
:10214000F400002010B586B0044601210420FFF7FA
:102150003DF901218803FFF739F94FF40070ADF81C
:10216000140003208DF8160018208DF8170005A91B
:102170001E48FEF717FD4FF48060ADF814000420F0
:102180008DF8170005A91948FEF70CFD01940020F1
:10219000ADF80800ADF80A00ADF80C00ADF810007D
:1021A0000C20ADF80E0001A9114800F087F80121BC
:1021B0000F4800F028F840210D4800F01BF80122DC
:1021C00040F225510A4800F054F825208DF800000F
:1021D00003208DF801008DF8020001208DF8030026
:1021E0006846FEF7B5FF06B010BD000000080140CC
:1021F0000038014001F40072B2F5007F00D100BF49
:10220000CA430280704721B1828942F40052828120
:1022100004E082894DF6FF731A408281704770B5E1
:102220000246002400230025002040F66A16B14231
:1022300000D100BFC1F3421501F01F03012606FAC9
:1022400003F3012D02D19689334006E0022D02D11D
:10225000168A334001E0968A33400C12012606FAB2
:1022600004F41688344013B10CB1012000E00020C2
:1022700070BDF0B50346002400260025002040F67E
:102280006A17B94200D100BF1846C1F3421401F0E9
:102290001F06012707FA06F5012C01D10C3004E0D6
:1022A000022C01D1103000E014301AB107682F431E
:1022B000076002E00768AF430760F0BD2DE9F04713
:1022C00086B005460E460024A24600BFA146002760
:1022D000B08900B100BF2F462C8A4CF6FF70044035
:1022E000F08804432C82AC894EF6F3100440B08889
:1022F00031890843718908430443AC81AC8A4FF6A5
:10230000FF400440B0890443AC8201A8FFF77EF887
:102310001F48874202D1DDF810A001E0DDF80CA0D3
:10232000A88900F4004040B10AEBCA0000EB0A1093
:1023300031684900B0FBF1F807E00AEBCA0000EB96
:102340000A1031688900B0FBF1F86420B8FBF0F0A6
:1023500004012009642101FB1089A88900F40040D0
:1023600040B1322000EBC900B0FBF1F000F00700F3
:10237000044308E0322000EB09106421B0FBF1F0C7
:1023800000F00F0004432C8106B0BDE8F087000088
:102390000038014001468888C0F30800704700BF3C
:1023A000FEE7490050EAC12018BF04204A0D18BFBB
:1023B00040F0010040F2FF72B2EB515F08BF40F005
:1023C0000200012808BF052070472DE9F0414F1E8B
:1023D00000EBC7010446D1E9000115461E4637F05F
:1023E00006020DD02A463346FDF7FBFF7F1E04EBA5
:1023F000C703D3E90023FDF74DFF37F00602F1D103
:10240000022F25D0042F13D0062F18BFBDE8F0816E
:102410002A463346FDF7E5FFD4E90A23FDF73AFFE4
:102420002A463346FDF7DDFFD4E90823FDF732FFE6
:102430002A463346FDF7D5FFD4E90623FDF72AFFE8
:102440002A463346FDF7CDFFD4E90423FDF722FFEA
:102450002A463346FDF7C5FFD4E90223FDF71AFFEC
:102460002A463346FDF7BDFFD4E90023BDE8F0411D
:10247000FDF710BF0022134610460149FEF723B8AE
:102480000000F03FFDF706BF00221346104611463C
:10249000FEF719B840F2013200204FF0E041FEF79C
:1024A000DEB90000024A00201107FEF7D8B900008B
:1024B00001FDFFFF02E008C8121F08C1002AFAD17F
:1024C00070477047002001E001C1121F002AFBD1B4
:1024D000704700000149086070470000D0000020EC
:1024E0000146114A12884A434FF0E0235A61002204
:1024F0009A611A46126942F001021A6100BF4FF058
:10250000E022106900F001021AB100F48032002AC2
:10251000F5D04FF0E022126922F001024FF0E023E3
:102520001A6100229A617047CA00002000F0C2FEC2
:1025300001E0FEF71FFDFCE71CB506236A464321B8
:10254000682000F011F99DF801009DF8001040EAA4
:10255000012000B20A4908809DF803009DF802108E
:1025600040EA012000B2074908809DF805009DF867
:10257000041040EA012000B2034908801CBD00009D
:1025800024000020260000202800002010B5642030
:10259000FFF7A6FF00F084F808B1012010BD00226B
:1025A0006B21682000F05EF907221921682000F0F5
:1025B00059F904221A21682000F054F918221B212D
:1025C000682000F04FF910221C21682000F04AF921
:1025D00000226A21682000F045F902223721682094
:1025E00000F040F9FEF778FB0020D7E770B506460B
:1025F000002440211848FEF76BFB00F08FF8802183
:102600001548FEF763FB002518E000F087F840212D
:102610001148FEF75DFB00F081F840210E48FEF7FF
:1026200055FB00F07BF86006040E80210A48FEF797
:1026300044FB08B1601CC4B2681CC5B2082DE4DBC1
:1026400040210548FEF744FB00F068F8304600F0F2
:10265000B5F8204670BD0000000C014010B54021C7
:102660000E48FEF735FB00F059F840210B48FEF705
:102670002DFB00F053F880210848FEF71EFB28B11F
:1026800040210648FEF724FB002010BD40210348EE
:10269000FEF71EFB00F042F80120F6E7000C0140B7
:1026A00010B500226B21682000F0DCF80722192108
:1026B000682000F0D7F81921682000F037F80728C3
:1026C00001D0012010BD0020FCE7000070B50446D9
:1026D000082519E004F0800020B180210E48FEF7A3
:1026E000F5FA03E080210C48FEF7F2FA6006040ECA
:1026F00000F014F840210848FEF7E8FA00F00EF860
:1027000040210548FEF7E4FA281EA5F10101CDB2EB
:10271000E0D1FFF7A3FF70BD000C0140002000BF17
:10272000011EA0F1010290B2FAD1704770B50446C3
:102730000D4600F065F8002141EA4401C8B2FFF7F8
:10274000C5FF2846FFF7C2FF00F05AF8012101EB50
:102750004401C8B2FFF7BAFF0020FFF747FF064663
:1027600000F066F8304670BD2DE9F04105460E4692
:1027700014461F4600F044F8002141EA4501C8B262
:10278000FFF7A4FF3046FFF7A1FF00F039F8012161
:1027900001EB4501C8B2FFF799FF04E00120FFF704
:1027A00025FF2070641C781EC0B2071EF6D1FFF70B
:1027B0001DFF207000F03CF8BDE8F08110B5044624
:1027C00040210E48FEF784FAFFF7A8FF24B18021CC
:1027D0000A48FEF77DFA03E080210848FEF776FA02
:1027E00040210648FEF772FAFFF798FF40210348A0
:1027F000FEF76EFAFFF792FF10BD0000000C0140DB
:1028000010B580210948FEF761FA40210748FEF71C
:102810005DFAFFF783FF80210448FEF759FAFFF7BE
:102820007DFF40210148FEF753FA10BD000C014026
:1028300010B580210A48FEF74BFA40210848FEF700
:1028400047FAFFF76BFF40210548FEF73FFAFFF715
:1028500065FF80210248FEF739FAFFF75FFF10BDE0
:10286000000C014070B504460D461646FFF7C8FF40
:10287000002141EA4401C8B2FFF728FF2846FFF7CC
:1028800025FF3046FFF722FFFFF7D2FF70BD0000A3
:102890002DE9F04D1D460C4698B0174621F0004139
:1028A00023F00043002814BF4FF0010C4FF0000C40
:1028B0000CEB440CFE4A0CEB02064FEA620C664538
:1028C0002BD33E0018BF012606EB45061644F94AF5
:1028D000964222D3F84A53EA070C02D0944205D11B
:1028E00048B918B000201146BDE8F08D002808BF97
:1028F0004FF0000C01D04FF0010C0CEB440212F52C
:10290000001F0AD8002F14BF4FF0010C4FF0000C2D
:102910000CEB450212F5001F07D918B03A462B46BA
:102920002146BDE8F04DFFF7ADBD0022DFF88CA3D6
:10293000002CB8BF534526DADFF884C36345A8BF2F
:10294000022220DADFF870C39C451CDCDFF874C378
:102950000CEB235CBCF1140F08DDCCF1340627FA34
:1029600006FC0CFA06F6BE420DD108E05FB9CCF1C8
:10297000140623FA06FC0CFA06F69E4203D10CF06C
:102980000102C2F1020251EA000C19D1002D17DA3E
:10299000002C18BF022A01D0012A07D00220FFF71D
:1029A00099FD18B0BDE8F04DFFF764BD0220FFF7B8
:1029B00091FDFFF75FFD18B081F00041BDE8F08D9B
:1029C000B7F1000C6CD1534525D104F1804212F5CA
:1029D000801201BF00280020B74918B008BFBDE829
:1029E000F08DB548884207DC002DA1BF604629461E
:1029F00018B0BDE8F08D07E0281E05DA80F0004130
:102A000018B06046BDE8F08DAF497944D1E90001C6
:102A100018B0BDE8F08DDFF8A0C2634525D1002DC8
:102A20001FDA19B1514512D1D8B909E0002840F098
:102A3000EC82A24A214618B062F31E01BDE8F08D77
:102A40000020214618B060F31E01BDE8F08D08DAC1
:102A500018B02346BDE8F04D024600206146FDF760
:102A600032BD18B02146BDE8F08D514518DAB5F1F8
:102A7000804F0DD0A5F1005CBCF1FF5C10D1B4F12A
:102A8000000C0DDB18B06146BDE8F04D00F0ECBB6A
:102A9000234618B00246BDE8F04D1946FDF7A1BC2B
:102AA000060024F0004C3BD1D9B1514533D1002C64
:102AB00006DD002DA1BF0020514618B0BDE8F08D05
:102AC000002C01DD002D1BDB002C13DA002D11DBA7
:102AD000012A4FF0000014BF78497C4918B0BDE8C6
:102AE000F08D022A18BF002C0AD0012A08D1002C30
:102AF00006DA0AE0002CB8BF002D11DA012A04D052
:102B0000002018B00146BDE8F08D18B000204FF04D
:102B10000041BDE8F08DA1F14050B0F17F601AD0C6
:102B2000012000EBE47050EA020421D0624C521EF6
:102B30004FF0000B104304BF4FF0000B644C65488E
:102B400083427CDD644A654893421FDD884217DB7F
:102B5000002D25DB37E0002C00DA4AB1022A0CBF39
:102B600001204FF0FF3018B0BDE8F04DFDF71FBD5C
:102B70000120FFF7AFFC18B0BDE8F04DFFF784BCB3
:102B80004D4A8A4202DC002D0ADC1CE0814202DA56
:102B9000002D18DA04E0484B994220DD002D12DDAB
:102BA0000220FFF797FCFFF775FC05460E46002252
:102BB000534658462146FDF714FC18B066F31E0133
:102BC0002846BDE8F08D0220FFF784FCFFF76AFC81
:102BD0000A46214618B062F31E01BDE8F08D0022BE
:102BE00030466146FDF7F7FB80460E466FF0010266
:102BF000FDF735FE4FF05532394BFDF7EFFB4246FE
:102C00003346FDF7EEFB0022364BFDF7E7FB82462D
:102C100042463346049110461946FDF7E2FB524600
:102C2000049BFDF7DEFB8A4600904FF0C0422E4B1E
:102C300040463146FDF7D5FB2C4A2B4B00E027E000
:102C4000CDE9060151460098FDF7CBFB8246019184
:102C5000274A284B40463146FDF7C3FB5246019BAD
:102C6000FDF7B9FB82460B4602460591DDE90601F8
:102C7000FDF710FBDDE90623002688463046FDF708
:102C8000AAFB5246059BFDF7A9FB024600F07EB960
:102C90000020B1F5801F07DA352230466146FDF786
:102CA000DEFD06466FF0340000EB215024E000000A
:102CB000FFFF1F00FFFF0F000000F03F0000F07F4C
:102CC0000000404301FCFFFF5A0A00000000F0FF33
:102CD0000000F0BF0000E0410000F043FFFFEF3FC5
:102CE0005555D53F0000E03F4715F73FFE822B6565
:102CF00044DF5DF80BAE543EA0F2FF300190C1F30B
:102D0000130040F07F6141F040510291FE4988423A
:102D1000D8BF002004DDFD498142C8BF012001DD8C
:102D20000D9008E000200D900198401C0190029841
:102D3000A0F5801002900299F54878440B910D9906
:102D400000EBC100D0E900230F9330460A920B99A3
:102D5000FDF741FBCDE90601DDE90A2130460F9B75
:102D6000FDF798FA02460B460020EA49FDF7ABFB57
:102D7000059102460B460090DDE90601FDF731FBA7
:102D80001490E5488A464FF000087844029900689C
:102D900012904FF0005040EA61010D980F9B01EB3B
:102DA000804000F5002109910A9A1298FDF713FB63
:102DB00032460B9BFDF712FB42465346FDF711FBD3
:102DC0000646029140465146099B129AFDF709FBBF
:102DD000DDE90623FDF702FB3246029BFDF7FBFA15
:102DE000059B009AFDF7FDFA0091149A0490534652
:102DF00010461946FDF7F5FA06460246C7480B4647
:102E0000029106217844FFF7E0FACDE90510029B14
:102E1000324610461946FDF7E4FADDE90532FDF7C2
:102E2000E0FA05910646534640461946149AFDF7C6
:102E300031FA009B049AFDF7D4FA3246059BFDF760
:102E400029FACDE905104246534610461946FDF7CA
:102E5000C8FA0022B24B02910A90FDF71BFADDE995
:102E60000532FDF717FA0E464246AD4B4046FDF7D8
:102E7000B2FA029B0A9AFDF7AEFADDE90532FDF7D8
:102E8000ADFA424602910A90334610465146FDF78C
:102E9000A8FACDE906015346149A02990A98FDF75B
:102EA000A0FA8A4602903346424600990498FDF7FC
:102EB00098FA5346029AFDF7EDF982460B46024610
:102EC0000591DDE90601FDF7E5F9DDE906230020BE
:102ED00088460646FDF77FFA5246059BFDF77EFAC7
:102EE000824609914FF060428E4B30464146FDF7D5
:102EF00078FA049006918C4A8A4B50460999FDF75E
:102F000070FA82460291894A894B30464146FDF764
:102F100068FA5246029BFDF7BDF9864B7B440D9A39
:102F200003EBC203D3E90023FDF7B4F90E90079138
:102F30000198FDF73CFB0591DDE9061382460E9AE8
:102F40000498FDF7A7F97C4A7A440D9B02EBC30372
:102F5000D3E9002300930292FDF79CF95246059BAA
:102F6000FDF798F90026884652463046059BFDF746
:102F700032FA009B029AFDF72EFA069B049AFDF79F
:102F80002AFA079B0E9AFDF729FA024600200B4603
:102F9000029038462946FDF724FA824601912B46D5
:102FA00038461946029AFDF716FA32464346FDF7AF
:102FB00018FA5246019BFDF76DF907468A463246DC
:102FC000434629460298FDF70CFA05460E463A4656
:102FD0005346FDF75FF9594A8846914221DBA8EB39
:102FE000020353EA000210D12A463346FDF7F3F9F3
:102FF000CDE90401524A534B38465146FDF74AF990
:10300000DDE90423FDF742FC21D20220FFF762FA3A
:10301000FFF740FA0A46214618B062F31E01BDE8E8
:10302000F08D494B28F000429A4210D3474A08EBF2
:10303000020353EA00027FF4C6AD2A463346FDF789
:10304000CAF93A465346FDF721FC7FF6BCAD002293
:10305000019228F000403E493E4A01EB2051824255
:1030600023DA481C4FF4801121FA00F040443A4A18
:10307000C0F30A517A44394BA1F2FF31CB4020EA28
:103080000303C0F3130040F48010C1F11401C840E1
:1030900012680190B8F1000FBCBF40420190284671
:1030A0003146FDF798F905460E462A46334638461E
:1030B0005146FDF7EFF84FF000084246284B4046D6
:1030C0000591FDF78EF9CDE90601264A264B4046CB
:1030D0000599FDF786F9009102902A46334640464D
:1030E0000599FDF778F93A465346FDF777F91F4AF7
:1030F0001F4BFDF776F9009B029AFDF7CBF80746C8
:10310000884602460B4635E08E9803007AB60B00DF
:10311000A20600000000F03FDA06000008060000EA
:103120000000084009C7EE3FFD033ADCF5015B14DF
:10313000E02F3EBEE0040000A40400000000904028
:10314000FE822B654715973C00CC904000346F3FC2
:1031500001FCFFFF0000E03FF0030000FFFF0F0055
:10316000432EE63F396CA80C615C20BEEF39FAFEB5
:10317000422EE63FDDE90601FDF78CF8DDE9062386
:1031800005460E46FDF727F93A464346FDF726F970
:103190000F462A463346009010461946FDF721F99E
:1031A000824602462E4888460B4605217844FFF7A2
:1031B0000CF952464346FDF714F92A463346FDF70B
:1031C0000DF980468A463B4628463146009AFDF76F
:1031D00008F93B46009AFDF75DF806910090002241
:1031E0004FF0804340465146FDF7F5F80F460C90EE
:1031F0004246534628463146FDF7F3F83B460C9AC3
:10320000FDF761F9069B009AFDF7E5F82A4633467B
:10321000FDF7E1F80022134BFDF7E0F805460198B1
:103220000E4601EB00510815002810DC28463146F7
:10323000019AFDF714FBFFF7B4F8042808BFFFF765
:1032400031F928463146019AFDF709FB05460B4640
:1032500018B02A4658462146BDE8F04DFDF7C1B8E2
:10326000900200000000F03F2DE9F04106460F46B5
:10327000FDF736FB041E0D4618BF0120284320F041
:103280000040C0F17F6000F1E040C00F0ED0301C64
:1032900018BF0120384320F00040C0F17F6000F1EA
:1032A000E040C00F04BF0120FFF714F92046294673
:1032B000BDE8F08110B5FDF781FDFEF712F9472159
:1032C00040F2E730FEF700FBFDF70AFCFFF75EF97E
:1032D0004820FEF7F1F94FF4E130FEF733FF10BD5F
:1032E00070B5044600253648008835498988084469
:1032F00033490989084432498989084431490978A0
:1033000001EB90002F49087084B900210846FDF7B1
:10331000FBFD00210120FDF7F7FD00210220FDF754
:10332000F3FD00210320FDF7EFFD48E0002C46D01F
:103330002548007823490978084423490870002566
:103340002FE069B22148007840B2FDF743FF0646FE
:10335000FDF728F91E4941F825000868FDF745F9F1
:1033600006B231460020FDF7CFFD19494868FDF748
:103370003CF906B231460120FDF7C6FD14498868C4
:10338000FDF733F906B231460220FDF7BDFD1049C5
:10339000C868FDF72AF906B231460320FDF7B4FDEF
:1033A0006D1C042DCDDB4BF69B206043064909784C
:1033B000B1EB400F03DD002400200349087070BD0D
:1033C000D4000020320000204A00002031000020FC
:1033D000E40000200AD7233D0000A04100000000C7
:1033E000000000000000F03F000000000000F83F77
:1033F00000000000000000000000004003B8E23FB1
:10340000000000000000000006D0CF43EBFD4C3E62
:10341000033333333333E33FFFAB6FDBB66DDB3F57
:103420004D268F515555D53F01411DA96074D13F9F
:1034300065DBC9934A86CD3FEF4E454A287ECA3F99
:103440003E5555555555C53F93BDBE166CC166BF1B
:103450002CDE25AF6A56113FF16BD2C541BDBBBE14
:10346000D0A4BE726937663E000000000000000074
:103470009034000800000020D4000000B4240008AC
:1034800064350008D4000020EC040000C4240008C7
:1034900000000000010203040102030406070809FA
:1034A0000204060801010101000000000000000004
:1034B000000000000000000000000000000000000C
:1034C000005A0000000000000000000000000000A2
:1034D00000000000000000000000000000000000EC
:1034E00000000000000000000000000000000000DC
:1034F000000000000000000000000000000020406C
:103500000000000000000040000000000000394002
:10351000000000000000204000000000000000400B
:1035200000000000000039400000000000002040C2
:1035300000000000000000400000000000003940D2
:1035400000000000000020400000000000000040DB
:1035500000000000000039400000000000000000F2
:043560000000000067
:0400000508000131BD
:00000001FF
