:020000040800F2
:10000000D005002049010008951300089F0E000844
:1000100059100008B30900085F260008000000001E
:100020000000000000000000000000002D16000885
:10003000B709000800000000D514000801180008E6
:100040006301000863010008630100086301000800
:10005000630100086301000863010008B909000892
:10006000FD090008410A0008850A0008630100082C
:1000700063010008630100086301000863010008D0
:1000800063010008630100086301000863010008C0
:1000900063010008630100086301000863010008B0
:1000A00063010008630100086301000863010008A0
:1000B000A11800086301000863010008630100083B
:1000C0006301000863010008630100086301000880
:1000D000630100087523000863010008630100083C
:1000E0006301000863010008630100086301000860
:1000F0006301000863010008630100086301000850
:10010000630100086301000863010008630100083F
:10011000630100086301000863010008630100082F
:10012000630100086301000863010008630100081F
:10013000DFF810D000F0CAFB00480047D9260008BD
:10014000AFF30080D00500200648804706480047EE
:10015000FEE7FEE7FEE7FEE7FEE7FEE7FEE7FEE777
:10016000FEE7FEE7411800083101000870B50646B9
:1001700002F078FA046805460A220021304600F0B1
:10018000D8FA2C6070BDF0B480EA0102D40F4200AE
:10019000B2EB410F02D20246084611464A0042D055
:1001A000C30DDDB2C1F3C752AD1A202D35DAC1F34C
:1001B000160141F4000204B15242C5F1200602FAD0
:1001C00006F12A411044B3EBD05F23D0C4B1012D16
:1001D000A0EBC35009DCF0BC4FF0004202EAC3526E
:1001E000DBB200F5000000F0E5BA400000F18070DD
:1001F00000EBC350A0F1807040EAD170490009E0E3
:10020000490841EAC071A0EBC35000F50000400866
:1002100000EBC350F0BC00F0C4BA6142012202EB13
:100220004101001BF6E7F0BC704781F00041AAE7EE
:1002300080F00040A7E780EA010210B502F0004319
:10024000400022D04A001FD0010E01EB1261C0F322
:100250005600C2F3560240F4000042F40002A0FB34
:10026000022000047F39140400D0401C50EA1240E0
:1002700001D44000491EC2B20C0604EBD010401C51
:100280004008802A02D003E0002010BD20F00100C9
:10029000002900DA0020184310BD2DE9FE4F8046EA
:1002A00081EA0300C00F0C46009021F0004123F0CA
:1002B0000045B8EB0200A94105D2404621469046D0
:1002C0001C460B46024623F00040104347D0270D42
:1002D000C7F30A00C3F30A510290401A0190402864
:1002E0006BDAC3F3130040F4801B0098924620B1F0
:1002F0000023D2EB030A63EB0B0B01985946C0F1C4
:100300004002504600F0E4F906460D465046594674
:10031000019A00F0FCF910EB08006141002487EA23
:10032000115284EAE7731A4340D0009A62B3019AEB
:10033000012A4FEA075215DC001B61EB02014FF066
:10034000004202EA0752CDE90042001C41F580114B
:1003500032462B4600F06BFA03B0BDE8F08F404602
:100360002146F9E7001B61EB0201001C41F58013F7
:1003700000185B412018A2F5001747EB030140EA83
:10038000D570B6196D4111E06D084FEA360645EAA1
:10039000C0754FEA0752001B61EB0201001C41F5DA
:1003A000801149084FEA30000019514132462B466E
:1003B00003B0BDE8F04F00F02BBA009801224000D6
:1003C0000023D0EB020263EBE073009821464FEA72
:1003D000E074B8EB000061EB0401E9E783F000434F
:1003E0005BE781F0004158E72DE9FE4F81EA030405
:1003F00004F0004421F0004100944FF0000B23F082
:10040000004350EA01045ED052EA03045BD0C3F318
:100410000A54C1F30A552C44A4F2F3340194A0FB0E
:100420000254C1F3130141F48011C3F3130343F4E5
:10043000801301FB024400FB034E840A970A44EA3E
:10044000815447EA8357A4FB076802958D0A05FB90
:1004500007854FEA932C04FB0C542705029D4FEAB5
:10046000065847EA1637B5EB08056EEB070C870E02
:10047000920E47EA811742EA8312A7FB0201B6EB0C
:100480000B0164EB00042B0D43EA0C335E1844EBC4
:100490001C50DA465146E7FB0201C5F313044FEA4C
:1004A0000B3343EA14534FEA0432019C43EA060338
:1004B000A4F10C040294009CCDE900B400F0B7F95B
:1004C00003B0BDE8F08F00200146F9E72DE9F04DBB
:1004D00081EA030404F0004B21F0004514464FF07C
:1004E000000A23F0004150EA050220D054EA01023C
:1004F0001DD0C5F30A570246C5F31303C1F3130019
:10050000C1F30A5640F4801543F48013A7EB0608A4
:10051000101BD64608F2FD3873EB050002D308F134
:10052000010801E092185B41B8F1000F03DA0020E6
:100530000146BDE8F08D00204FF480110646844648
:100540000EE0171B73EB050705D3121B63EB0503C6
:1005500006434CEA010C49084FEA300092185B410F
:1005600050EA0107EDD152EA030012D082EA0400FA
:1005700083EA0501084305D0101BAB4106D20122D6
:10058000002306E000224FF0004302E06FF001027A
:1005900053101AEB06004CEB085110EB0A0041EB2C
:1005A0000B01BDE8F04D00F033B99623002211464F
:1005B00000F000B90EB5C10F80EAE0700844CA0728
:1005C000002140F233438DE80E000A460B4600F04E
:1005D0002EF903B000BD0EB540F233410291002167
:1005E000CDE900110A460B4600F021F903B000BD29
:1005F00020F00040C10DC0F3160040F400007F2938
:1006000001DA00207047962903DCC1F19601C84049
:100610007047963988407047C1F30A5210B5C1F34C
:10062000130140F2FF3341F480119A4201DA0020B5
:1006300010BD40F233439A42A2F2334203DC5242ED
:1006400000F055F810BD904010BD00F0004230F0B1
:1006500000400AD0C10D01F56071C0F3160042EAF6
:100660000151C208400711437047002001467047FE
:1006700001F0004330B421F0004150EA010206D0FD
:100680000A0DA2F56072C1F31301002A02DC30BC2E
:1006900000207047440F44EAC104C100E01830BC98
:1006A00000EBC25000F07DB8002801DBC0F1004033
:1006B000002901DBC1F1004181427047002801DBC4
:1006C000C0F10040002901DBC1F1004188427047C0
:1006D000202A04DB203A00FA02F100207047914002
:1006E000C2F1200320FA03F3194390407047202AF7
:1006F00004DB203A21FA02F00021704721FA02F3CC
:10070000D040C2F120029140084319467047202A88
:1007100006DBCB17203A41FA02F043EAE07306E029
:1007200041FA02F3D040C2F1200291400843194639
:1007300070472DE9F04791460F4680460446002653
:1007400014F8015B2DB100F0D3F80068405DC007DC
:10075000F6D12B2D02D02D2D18D0641E4A463946D5
:10076000204600F0C9F827B13968A14201D1C7F885
:10077000008071054FF002040BD54042002803DDD4
:1007800001F070FF0460A007BDE8F08746F48066C2
:10079000E4E70028F8DA01F065FF04606FF000403C
:1007A000F2E70029A8BF7047401C490008BF20F0AD
:1007B0000100704710B4B0FA80FC00FA0CF050EA67
:1007C000010404BF10BC704749B1CCF1200421FAE8
:1007D00004F411FA0CF118BF012121430843A3EBE3
:1007E0000C01CB1D4FEA00614FEA102042BF0020F0
:1007F00010BC704700EBC35010440029A4BF10BCCC
:100800007047401C490008BF20F0010010BC704731
:1008100010B5141E73F1000408DA401C41F1000108
:1008200092185B411A4301D120F0010010BD2DE95F
:10083000F04D92469B4611B1B1FA81F202E0B0FA56
:1008400080F220329046FFF743FF04460F4640EA0D
:100850000A0041EA0B0153465A46084313D0114699
:1008600053EA010019D0C8F140025046FFF73FFF9C
:1008700005460E46504659464246FFF729FF0843B3
:1008800005D0012004E020463946BDE8F08D002067
:10089000054346EAE0762C4337430A986305E40AA9
:1008A000A0EB08000022FD0A44EA47540A3002D5B2
:1008B00000200146E9E7010510196941DDE9084515
:1008C00000196941BDE8F04DA2E70000064C074D54
:1008D00006E0E06840F0010394E807009847103410
:1008E000AC42F6D3FFF728FCF02B0008102C0008D0
:1008F00000487047EC2B00082DE9F05F8246007835
:10090000002715468B460AF10104B946302801D06C
:100910009DB113E014F8010B0127782803D0582863
:1009200001D045B10AE00DB1102D07D100271025E7
:1009300014F8010B02E0082500E00A250026B04665
:100940000EE005FB080005FB06F1012701EB104650
:100950001FFA80F8B6F5803F00D3B94614F8010BB2
:10096000294600F018F80028EBDABBF1000F05D09B
:100970000FB1641E00E05446CBF80040B9F1000FFF
:1009800006D001F06FFE02210160C81EBDE8F09F95
:1009900048EA0640FAE73A2800D2303820F0200230
:1009A000412A01D3A2F13700884201D34FF0FF3032
:1009B000704700BFFEE7704710B5022000F08AF8CC
:1009C000012815D102210B4800F05AFA20B90A4833
:1009D0000088401C084908800748008842F20F71CF
:1009E000884202DD002004490880022000F06CF8F3
:1009F00010BD0000000801401800002010B50420C0
:100A000000F068F8012815D104210B4800F038FAED
:100A100020B90A484088401C084948800748408857
:100A200042F20F71884202DD002004494880042010
:100A300000F04AF810BD0000000801401800002036
:100A400010B5082000F046F8012815D108210B4800
:100A500000F016FA20B90A488088401C08498880AE
:100A60000748808842F20F71884202DD0020044965
:100A70008880082000F028F810BD00000008014020
:100A80001800002010B5102000F024F8012815D11E
:100A900010210B4800F0F4F920B90A48C088401C26
:100AA0000849C8800748C08842F20F71884202DDB9
:100AB00000200449C880102000F006F810BD000096
:100AC000000801401800002001490860704700003C
:100AD00014040140014600200022074B1B6803EA72
:100AE0000102054B14331B680B4013B10AB10120FE
:100AF00000E000207047000000040140002123496D
:100B00008279002A3AD00A46126803689A430B4653
:100B10001A600A1D126803689A430B1D1A60027955
:100B200011440A6803681A430A60184A08321268B6
:100B300003689A43154B08331A601A1D126803683C
:100B40009A43124B0C331A604279102A0ED11A1FA5
:100B5000126803681A430D4B08331A601A1D126895
:100B600003681A43094B0C331A600DE007494279B8
:100B700011440A6803681A430A6005E002791144C7
:100B80000A6803689A430A60704700000004014045
:100B900000200349088048808880C8807047000092
:100BA0001800002008B50121042000F0B5FC1E202B
:100BB000ADF8000048208DF8030003208DF80200F6
:100BC0006946054800F064F8002004490880488020
:100BD0008880C88008BD000000080140180000207F
:100BE00008B50121042000F097FC0121082000F045
:100BF00093FCC020ADF8000018208DF803000320FE
:100C00008DF802006946054800F042F80320ADF86F
:100C100000006946024800F03BF808BD00080140AA
:100C2000000C014008B50121042000F075FC1E20D5
:100C3000ADF8000028208DF8030003208DF8020095
:100C40006946024800F024F808BD00000008014091
:100C500030B500228B071C0F0F2303FA04F20B4B55
:100C60008C1053F824309343084C8D1044F82530F1
:100C700023468C1053F824308C07240F00FA04F418
:100C80002343024C8D1044F8253030BD080001404C
:100C90002DE9F04102460025002600200023002413
:100CA000002791F803C00CF00F0591F803C00CF079
:100CB000100CBCF1000F03D091F802C04CEA0505FE
:100CC00091F800C0BCF1000F31D0146800202BE077
:100CD0004FF0010C0CFA00F3B1F800C00CEA030667
:100CE0009E4220D183004FF00F0C0CFA03F7BC4357
:100CF00005FA03FC4CEA040491F803C0BCF1280F88
:100D000006D14FF0010C0CFA00FCC2F814C00AE046
:100D100091F803C0BCF1480F05D14FF0010C0CFA5B
:100D200000FCC2F810C0401C0828D1D31460B1F8F0
:100D300000C0BCF1FF0F34DD546800202EE000F14C
:100D4000080C4FF0010808FA0CF3B1F800C00CEAE7
:100D500003069E4221D183004FF00F0C0CFA03F7DB
:100D6000BC4305FA03FC4CEA040491F803C0BCF14F
:100D7000280F05D100F1080C08FA0CF8C2F814800D
:100D800091F803C0BCF1480F07D100F1080C4FF0F7
:100D9000010808FA0CF8C2F81080401C0828CED3CD
:100DA0005460BDE8F081000008B50121102000F07A
:100DB000B3FB0121082000F0AFFB4FF48070ADF8C9
:100DC000000010208DF8030003208DF80200694612
:100DD0002948FFF75DFF4FF40070ADF80000694649
:100DE0002548FFF755FF4FF48060ADF800006946D5
:100DF0002148FFF74DFF4FF48070ADF800006946C1
:100E00001E48FFF745FF4FF40070ADF8000069463B
:100E10001A48FFF73DFF4FF48060ADF800006946C7
:100E20001648FFF735FF4FF40060ADF80000694643
:100E30001248FFF72DFF4FF48050ADF800006946CF
:100E40000E48FFF725FF4FF40050ADF8000069464B
:100E50000A48FFF71DFF4FF48040ADF800006946D7
:100E60000648FFF715FF4FF40040ADF80000694653
:100E70000248FFF70DFF08BD00100140000C0140C3
:100E80000246002093680B400BB1012000E00020D7
:100E900070474161704701617047C160704700BF92
:100EA000FEE700BF011EA0F10100FBD1704710B5A5
:100EB000FFF77AFF0C2000F00DF83C2000F00AF854
:100EC000062000F007F8012000F004F80F2000F0E1
:100ED00001F810BD10B504464FF480611148FFF7CA
:100EE000D8FF4FF480710F48FFF7D3FF4FF4007124
:100EF0000C48FFF7CEFF21020B48FFF7CEFF4FF65D
:100F0000FF70FFF7CEFF4FF480610648FFF7C3FF85
:100F10004FF6FF70FFF7C5FF4FF480610148FFF700
:100F2000B8FF10BD00100140000C014008B50121C0
:100F3000482000F0F1FA2020ADF8000010208DF8D4
:100F4000030003208DF8020069460948FFF7A0FE60
:100F500020210748FFF79FFF2020ADF800006946D9
:100F60000448FFF795FE20210248FFF794FF08BDD3
:100F7000000C01400018014010B5002400BF0EE035
:100F800001F0BEFB0C4800780C490978084440B2D7
:100F900009490870022001F079FB601CC4B2962C4C
:100FA000EEDB054890F90000962190FBF1F040B28D
:100FB0000149087010BD00004A00002050000020C8
:100FC0002DE9F05F1B4800681B4908601B49B1F917
:100FD00000101B4A92F90020881AFFF7EBFA064628
:100FE0004FF06632174BFFF771FA0446FFF740FBEC
:100FF0001049086010480068FFF727FB0646124AB0
:10100000124BFFF7F1F904460D460A480068FFF756
:101010001CFB06460E4A0F4BFFF7E6F980462246B8
:101020002B46FFF73AF98246FFF722FB0149086099
:10103000BDE8F09F68000020640000205000002000
:101040004A000020666630409A9999999999B93F6B
:10105000CDCCCCCCCCCCEC3F00BFFEE708B5012119
:10106000202000F059FAFF20ADF8000010208DF884
:10107000030003208DF8020069461548FFF708FEBB
:10108000FF211348FFF705FF00F0DCF901210020E4
:1010900000F020F80121084600F01CF80121022090
:1010A00000F018F80121032000F014F80021084690
:1010B00000F07AF80021012000F076F800210220EB
:1010C00000F072F80021032000F06EF808BD000067
:1010D0000014014070B505460C46032D01DC002DBF
:1010E00000DA70BD2E494C5535B1012D18D0022DB6
:1010F0002AD0032D50D13BE03CB902212948FFF70B
:10110000CAFE01212748FFF7C4FE012C07D10121A7
:101110002448FFF7C0FE02212248FFF7BAFE3CE058
:101120003CB908211F48FFF7B6FE04211D48FFF710
:10113000B0FE012C07D108211A48FFF7AAFE0421AE
:101140001848FFF7A8FE28E03CB920211548FFF712
:10115000A2FE10211348FFF79CFE012C07D120218D
:101160001048FFF796FE10210E48FFF794FE14E09A
:101170003CB980210B48FFF78EFE40210948FFF75C
:1011800088FE012C07D180210648FFF782FE40210E
:101190000448FFF780FE00E000BF00BF00BFA0E7EB
:1011A000140000200014014070B504460D46002CC8
:1011B00006DB032C04DC611C88B2294600F058F9D8
:1011C00070BD10B500210846FFF784FF0021012003
:1011D000FFF780FF00210220FFF77CFF00210320A2
:1011E000FFF778FF10BD10B501210020FFF772FF57
:1011F00001210846FFF76EFF01210220FFF76AFF79
:1012000001210320FFF766FF10BD000030B585B057
:1012100000250024002004905648008800F4004077
:10122000002841D000200090019002900390514886
:10123000057800BF04E05048005D2DF81400641CE0
:10124000AC42F8DBBDF800004E2803D100204B492A
:10125000087016E0BDF80000532803D1012047496B
:1012600008700EE0BDF80000572803D10220434962
:10127000087006E0BDF80000452802D103203F4970
:101280000870002405E0601C1DF8100004A9085532
:10129000641C022CF7DB04A8FEF768FF38490880BD
:1012A00000203449088000BF3448007830B101285C
:1012B00014D002283ED0032858D11FE0FFF768FC65
:1012C0003048006808B9012000E000202D4908607E
:1012D000FFF789FF04202949087048E0FFF758FC10
:1012E0002948006808B9012000E00020264908606C
:1012F000FFF767FF04202149087038E0FFF748FC3A
:1013000002202249087000F0D9FF1F48006808B980
:10131000012000E000201C4908601D48D0F894011D
:1013200008B9012000E00020164908600420134994
:1013300008701CE0FFF72CFC01201449087000F035
:1013400061FF1148006808B9012000E000200E4943
:1013500008600F48D0F8940108B9012000E000208F
:101360000849086004200549087000E000BF00BF7C
:1013700005B030BDFC000020040100205800002012
:101380006C00002094012342948121426E000020D1
:1013900000002342704708B54FF4A06000F048F801
:1013A0001C208DF8000002208DF8010000208DF82F
:1013B000020001208DF80300684600F001F808BD26
:1013C00070B5002100230F22C47804B3154C2468A3
:1013D00004F4E064C4F5E064210AC1F10403CA40E6
:1013E000447804FA03F184781440214309010E4C37
:1013F0000678A155047804F01F050124AC40057857
:101400006D11AD0005F1E025C5F8004109E0047853
:1014100004F01F050124AC40044D0678761145F810
:10142000264070BD0CED00E000E400E080E100E04B
:1014300002490143024A1160704700000000FA05AA
:101440000CED00E010B5FFF7CBFB00F0BBFB00217B
:10145000012000F00DF80021022000F009F8002121
:10146000032000F005F80021042000F001F810BD71
:1014700070B505460C4604EB8400400004B2B4F598
:101480007A7F01DD4FF47A74002C00DA0024012DFC
:1014900006D0022D09D0032D0CD0042D14D10EE05E
:1014A000A1B20B4800F053FE0FE0A1B2084800F0D3
:1014B00050FE0AE0A1B2064800F04DFE05E0A1B2E0
:1014C000034800F04AFE00E000BF00BF70BD00000E
:1014D000000400407047000029B1064AD269024367
:1014E000044BDA6104E0034AD2698243014BDA61BA
:1014F000704700000010024029B1064A12690243F9
:10150000044B1A6104E0034A12698243014B1A61D9
:10151000704700000010024029B1064A9269024358
:10152000044B9A6104E0034A92698243014B9A6139
:10153000704700000010024029B1064AD2680243F9
:10154000044BDA6004E0034AD2688243014BDA605C
:10155000704700000010024030B500210022002436
:1015600000232D4D6D6805F00C0121B1042905D033
:10157000082923D105E0294D056022E0274D0560AB
:101580001FE0254D6D6805F47012234D6D6805F45C
:101590008034022505EB92421CB9214D554305606C
:1015A0000BE01D4D6D6805F400351DB11C4D554314
:1015B000056002E0194D5543056002E0174D0560D6
:1015C00000BF00BF144D6D6805F0F0010909154D0D
:1015D0006B5C0568DD4045600F4D6D6805F4E061AA
:1015E000090A104D6B5C4568DD4085600A4D6D68E9
:1015F00005F46051C90A0B4D6B5C4568DD40C56060
:10160000054D6D6805F44041890B074D6B5CC5685D
:10161000B5FBF3F5056130BD0010024000127A0001
:1016200000093D00000000201000002070470EB5AA
:101630004FF4A060FFF7FCFEFFF7F4FA0121002051
:10164000FFF706FB02210020FFF702FB0321002029
:10165000FFF7FEFA04210020FFF7FAFA07208DF8C1
:10166000080003208DF8090001208DF80A008DF88C
:101670000B0002A8FFF7A4FE08208DF80800032045
:101680008DF8090002208DF80A0001208DF80B006A
:1016900002A8FFF795FE09208DF8080003208DF8B9
:1016A00009008DF80A0001208DF80B0002A8FFF751
:1016B00087FE0A208DF8080003208DF80900042019
:1016C0008DF80A0001208DF80B0002A8FFF778FEC4
:1016D0001E20009000208DF804000C208DF80500DD
:1016E00001208DF806006846FFF708FA0EBD10B518
:1016F00000F002F810BD00000CB500200190009031
:101700003348006840F480303149086000BF3048F9
:10171000006800F4003000900198401C019000988F
:1017200018B90198B0F5A06FF1D12948006800F40C
:10173000003010B10120009001E0002000900098DE
:10174000012843D12348006840F010002149086077
:101750000846006820F0030008600846006840F072
:10176000020008601A484068194948600846406805
:1017700048600846406840F4806048600846406819
:1017800020F47C1048600846406840F4E810486047
:101790000846006840F08070086000BF0C48006890
:1017A00000F000700028F9D00948406820F00300DC
:1017B000074948600846406840F00200486000BFA2
:1017C0000348406800F00C000828F9D10CBD000067
:1017D0000010024000200240042808D14FF0E02110
:1017E000096941F004014FF0E022116107E04FF078
:1017F000E021096921F004014FF0E02211617047F6
:101800007047000010B504466FF00400FFF7E4FFD6
:10181000E11704EB5171C1F3C701074A117010467B
:10182000007800EB4001C1EBC0104FF6FF7101EAF8
:10183000C0000249088010BDF8000020FA00002016
:1018400010B51348006840F00100114908600846CF
:101850004068104908400E494860084600680E4933
:1018600008400B4908600846006820F480200860A2
:101870000846406820F4FE0048604FF41F0088606E
:10188000FFF735FF4FF000600449086010BD00000D
:10189000001002400000FFF8FFFFF6FE08ED00E038
:1018A0002DE9F05F0121880700F0DCFA00287CD0E8
:1018B0009E480088401C9D490880084600883228C0
:1018C0001AD19B4800789B49087099484078487025
:1018D0009748807888709648C078C8709648008885
:1018E000964908809448408848809348808888803A
:1018F0009148C088C88020E08C48008896281CD178
:101900008B4800788E49087089484078487088482C
:10191000807888708648C078C87087480088894970
:10192000088085484088488083488088888082482D
:10193000C088C88000207D490880824800887F498F
:101940000988884207DA7D4800887E490988401A5C
:101950007D49088006E07B48008878490988401A5C
:10196000794908807748408874494988884207DA6D
:101970007248408873494988401A7349488006E094
:10198000704840886D494988401A6F4948806D48C1
:1019900080886A498988884208DA68488088694965
:1019A0008988401A6849888007E0BCE065488088DB
:1019B00062498988401A644988806248C0885F49C2
:1019C000C988884207DA5D48C0885E49C988401ADC
:1019D0005D49C88006E05B48C0885849C988401AFC
:1019E0005949C88058490888FEF7F5FD8246574A8C
:1019F000574BFEF7F9FC80460022564BFEF7F4FCED
:101A000006460022544BFEF761FD0446FEF704FE35
:101A1000524908704C494888FEF7DDFD06464B4A9E
:101A20004B4BFEF7E1FC804600224A4BFEF7DCFC04
:101A300004460022484BFEF749FD8246FEF7ECFDC6
:101A40004649487040498888FEF7C5FD80463F4AB0
:101A50003F4BFEF7C9FC064600223E4BFEF7C4FC96
:101A6000044600223C4BFEF731FD8246FEF7D4FDD2
:101A70003A4988703449C888FEF7ADFD8046334A3C
:101A8000334BFEF7B1FC06460022324BFEF7ACFCAE
:101A900004460022304BFEF719FD8246FEF7BCFDDE
:101AA0002E49C870234800782549097808442B49F5
:101AB00009780844032190FBF1F01D4908701D4886
:101AC00000781F490978084424490978084403210B
:101AD00090FBF1F01649087016480078184909780B
:101AE00008441E4909780844032190FBF1F010498D
:101AF0000870104800781249097808441749097895
:101B00000844032190FBF1F009490870144800785B
:101B1000042804D113490878134900F0B7FF0121C4
:101B2000880700F09CF8BDE8F09F0000240000202A
:101B3000200000203E000020180000202600002089
:101B4000420000202E000020360000201F85EB51AF
:101B5000B81E094000001840000034404600002034
:101B6000580000206C0000200AD7233C3EB50546F3
:101B70000C4601210846FFF7AFFC4FF0804000F013
:101B80007DF8ADF80450ADF800400020ADF802003B
:101B9000ADF806008DF8080069464FF0804000F06F
:101BA000DFFA0121880700F057F80122114690075B
:101BB00000F069F9FFF7EFFB0121880700F052F808
:101BC0003EBD000000B587B001210220FFF784FC74
:101BD00040F2E730ADF814004720ADF810000020C7
:101BE000ADF81600ADF8120004A91A4800F0B8FAD2
:101BF0006020ADF800000120ADF802003220ADF801
:101C000006000020ADF808006946124800F044F9CB
:101C10000821104800F08CF969460E4800F092F94E
:101C200008210C4800F0E0F969460A4800F0EAF99A
:101C30000821084800F036FA6946064800F03CFAE8
:101C40000821044800F076FA0121024800F00AF861
:101C500007B000BD00040040CA4302827047CA4377
:101C60000282704721B1028842F00102028004E042
:101C700002884FF6FE731A400280704710B5044682
:101C80006848844208D10121C014FFF755FC0021A7
:101C9000E014FFF751FCC4E0B4F1804F08D10121FA
:101CA0000846FFF729FC00210120FFF725FCB8E0DA
:101CB0005D48844208D101210220FFF71DFC00216C
:101CC0000220FFF719FCACE05848844208D10121FA
:101CD0000420FFF711FC00210420FFF70DFCA0E019
:101CE0005348844208D101210820FFF705FC002158
:101CF0000820FFF701FC94E04E48844208D10121FE
:101D00001020FFF7F9FB00211020FFF7F5FB88E01A
:101D10004948844208D101212020FFF7EDFB002132
:101D20002020FFF7E9FB7CE04448844208D10121F0
:101D30004014FFF701FC00216014FFF7FDFB70E089
:101D40003F48844209D10121C804FFF7F5FB002177
:101D50004FF40020FFF7F0FB63E03A48844209D1DA
:101D600001210805FFF7E8FB00214FF48010FFF781
:101D7000E3FB56E03448844209D101214805FFF7CE
:101D8000DBFB00214FF40010FFF7D6FB49E02F48A2
:101D9000844208D101214020FFF7AEFB0021402002
:101DA000FFF7AAFB3DE02A48844208D101218020A8
:101DB000FFF7A2FB00218020FFF79EFB31E02548C2
:101DC000844208D101218015FFF796FB0021A01560
:101DD000FFF792FB25E02048844209D10121080445
:101DE000FFF7AAFB00214FF48030FFF7A5FB18E0B6
:101DF0001A48844209D101214804FFF79DFB0021C4
:101E00004FF40030FFF798FB0BE01548844208D1EF
:101E100001218804FFF790FB00214FF48020FFF799
:101E20008BFB10BD002C0140000400400008004066
:101E3000000C00400010004000140040003401403D
:101E4000004C014000500140005401400018004087
:101E5000001C0040002000400040014000440140C0
:101E60000048014030B50246002000230024158AB6
:101E700005EA0103958905EA010413B10CB10120BB
:101E800000E0002030BD1AB183890B43838102E05A
:101E900083898B438381704770B50024002200231F
:101EA000058C4FF6FE7635400584028C8388048BC2
:101EB0004FF68F752C40B51E2C400D882C43751E97
:101EC0002A400D892A434D882A43144DA8420BD03D
:101ED000134DA84208D0134DA84205D0124DA84278
:101EE00002D0124DA84213D14FF6F7752A404D8902
:101EF0002A434FF6FB752A408D882A434FF6FF652B
:101F00002B404FF6FF552B408D892B43CD892B431A
:101F100083800483CD888586028470BD002C0140B7
:101F200000340140004001400044014000480140AD
:101F30000A460021018B4FF6F773194011430183C4
:101F40007047000070B5002400220023058C4FF676
:101F5000EF7635400584028C8388048B48F6FF7544
:101F60002C404FF6FF452C400D884FF6FF7606EAD1
:101F700005252C434FF6DF752A400D8906EA051525
:101F80002A434D8806EA05152A43154DA84202D07A
:101F9000144DA8421DD14FF67F752A404D894FF64A
:101FA000FF7606EA05152A434FF6BF752A408D884D
:101FB00006EA05152A434FF6FF352B404FF2FF7511
:101FC0002B408D8906EA85052B43CD8906EA8505D8
:101FD0002B4383800483CD880587028470BD000075
:101FE000002C0140003401400A460021018B4FF2D1
:101FF000FF7319404FF6FF7303EA0223194301836D
:102000007047000070B5002400220023058C4FF6B5
:10201000FF6635400584028C8388848B4FF68F756C
:102020002C404FF6FC752C400D882C434FF6FF5585
:102030002A400D894FF6FF7606EA05252A434D888A
:1020400006EA05252A43154DA84202D0144DA842A0
:102050001DD14FF2FF752A404D894FF6FF7606EAF3
:1020600005252A434FF6FF352A408D8806EA0525C7
:102070002A434EF6FF752B404DF6FF752B408D8998
:1020800006EA05152B43CD8906EA05152B43838007
:102090008483CD888587028470BD0000002C0140B8
:1020A000003401400A460021818B4FF6F773194036
:1020B000114381837047000070B500220023002483
:1020C000058C4EF6FF7635400584038C8488828B20
:1020D00048F6FF752A404FF6FF452A400D884FF617
:1020E000FF7606EA05252A434DF6FF752B400D893C
:1020F00006EA05352B434D8806EA05352B430B4D83
:10210000A84202D00A4DA84208D14BF6FF752C40D8
:102110008D894FF6FF7606EA85152C4384808283ED
:10212000CD88A0F84050038470BD0000002C014011
:10213000003401400A460021818B4FF2FF731940A1
:102140004FF6FF7303EA02231943818370478186A8
:1021500070470187704781877047A0F8401070472B
:10216000002202881D4B98420ED01D4B98420BD086
:10217000B0F1804F08D01B4B984205D01A4B9842C3
:1021800002D01A4B984204D14FF68F731A404B88F5
:102190001A43174B984207D0164B984204D04FF67B
:1021A000FF431A40CB881A4302808B8883850B88B3
:1021B00003850A4B98420BD0094B984208D00E4B2E
:1021C000984205D00D4B984202D00D4B984201D158
:1021D0000B7A03860123838270470000002C0140A4
:1021E000003401400004004000080040000C0040A2
:1021F0000010004000140040004001400044014035
:102200000048014010B500F07BFA00210846FEF7B7
:1022100061FF00210120FEF75DFF01210220FEF792
:1022200059FF01210320FEF755FFFEF7C9FE1F49A4
:102230001F480068FEF738FA1CD81E4800780128AD
:1022400018D11D4801681A480068FDF79CFF18491D
:10225000086032210020FEF7A7FF32210120FEF79F
:10226000A3FF32210220FEF79FFF32210320FEF759
:102270009BFF1AE00D490E480068FEF71FFA14D2C2
:1022800000200C4908700A49086000210846FEF742
:102290008BFF00210120FEF787FF00210220FEF7BF
:1022A00083FF00210320FEF77FFF10BD0000B44232
:1022B000600000206E0000206800002010B500F0D3
:1022C0001FFA01210020FEF705FF01210846FEF755
:1022D00001FF00210220FEF7FDFE00210320FEF792
:1022E000F9FEFEF76DFE1F491F480068FEF7E6F98C
:1022F0001CD21E480078022818D11D4801681A48CF
:102300000068FDF740FF1849086032210020FEF701
:102310004BFF32210120FEF747FF32210220FEF75A
:1023200043FF32210320FEF73FFF1AE00D490E481C
:102330000068FEF7B9F914D200200C4908700A4968
:10234000086000210846FEF72FFF00210120FEF75C
:102350002BFF00210220FEF727FF00210320FEF7BC
:1023600023FF10BD0000B4C2600000206E000020FA
:102370006800002010B540F225511D4800F0ABF870
:1023800010B31B4800F062F9C4B21A48008800F488
:102390000040C8B91748008800F4804060B10A2C9A
:1023A00003D000201349088020E01248008840F440
:1023B00000401049088019E00D2C06D10D48008816
:1023C00040F480400B49088010E00A480088C0F3C0
:1023D0000D0009490C5407480088401C0549088035
:1023E00008460088C72801DD0020088010BD0000D5
:1023F00000380140FC0000200401002010B586B028
:10240000044601210420FFF787F801218803FFF724
:1024100083F84FF40070ADF8140003208DF8160017
:1024200018208DF8170005A91E48FEF731FC4FF45F
:102430008060ADF8140004208DF8170005A9194834
:10244000FEF726FC01940020ADF80800ADF80A0064
:10245000ADF80C00ADF810000C20ADF80E0001A98D
:10246000114800F087F801210F4800F028F84021BA
:102470000D4800F01BF8012240F225510A4800F0F7
:1024800054F825208DF8000003208DF801008DF808
:10249000020001208DF803006846FEF791FF06B0A8
:1024A00010BD0000000801400038014001F4007236
:1024B000B2F5007F00D100BFCA430280704721B14E
:1024C000828942F40052828104E082894DF6FF73D2
:1024D0001A408281704770B502460024002300250F
:1024E000002040F66A16B14200D100BFC1F3421588
:1024F00001F01F03012606FA03F3012D02D196898C
:10250000334006E0022D02D1168A334001E0968A5C
:1025100033400C12012606FA04F41688344013B135
:102520000CB1012000E0002070BDF0B5034600248E
:1025300000260025002040F66A17B94200D100BFEE
:102540001846C1F3421401F01F06012707FA06F5E9
:10255000012C01D10C3004E0022C01D1103000E03C
:1025600014301AB107682F43076002E00768AF43D1
:102570000760F0BD2DE9F04786B005460E46002401
:10258000A24600BFA1460027B08900B100BF2F4678
:102590002C8A4CF6FF700440F08804432C82AC89EE
:1025A0004EF6F3100440B08831890843718908431E
:1025B0000443AC81AC8A4FF6FF400440B089044329
:1025C000AC8201A8FEF7C8FF1F48874202D1DDF8A0
:1025D00010A001E0DDF80CA0A88900F4004040B193
:1025E0000AEBCA0000EB0A1031684900B0FBF1F8B1
:1025F00007E00AEBCA0000EB0A1031688900B0FB63
:10260000F1F86420B8FBF0F004012009642101FB1B
:102610001089A88900F4004040B1322000EBC900C5
:10262000B0FBF1F000F00700044308E0322000EBBB
:1026300009106421B0FBF1F000F00F0004432C817D
:1026400006B0BDE8F08700000038014001468888E8
:10265000C0F308007047C1F308028280704700BFD2
:10266000FEE70000004870470001002002E008C8B3
:10267000121F08C1002AFAD170477047002001E0FC
:1026800001C1121F002AFBD1704700000146114A08
:1026900012884A434FF0E0235A6100229A611A4699
:1026A000126942F001021A6100BF4FF0E022106986
:1026B00000F001021AB100F48032002AF5D04FF088
:1026C000E022126922F001024FF0E0231A61002299
:1026D0009A617047FA00002000F0BDF909E0FEF7AA
:1026E00095FD0448007820B1034801780348FFF7BE
:1026F000B2FFF4E76F0000205800002000380140CE
:102700001CB506236A464321682000F011F99DF8A4
:1027100001009DF8001040EA012000B20A4908803B
:102720009DF803009DF8021040EA012000B207491D
:1027300008809DF805009DF8041040EA012000B2D1
:10274000034908801CBD00004C0000204E00002002
:102750005000002010B56420FFF798FF00F084F8C7
:1027600008B1012010BD00226B21682000F05EF945
:1027700007221921682000F059F904221A21682043
:1027800000F054F918221B21682000F04FF91022A4
:102790001C21682000F04AF900226A21682000F01C
:1027A00045F902223721682000F040F9FEF7E4FBEA
:1027B0000020D7E770B50646002440211848FEF7F0
:1027C0006AFB00F08FF880211548FEF762FB0025B8
:1027D00018E000F087F840211148FEF75CFB00F09C
:1027E00081F840210E48FEF754FB00F07BF86006AC
:1027F000040E80210A48FEF743FB08B1601CC4B2F6
:10280000681CC5B2082DE4DB40210548FEF743FBF8
:1028100000F068F8304600F0B5F8204670BD0000C2
:10282000000C014010B540210E48FEF734FB00F0CB
:1028300059F840210B48FEF72CFB00F053F880219B
:102840000848FEF71DFB28B140210648FEF723FB90
:10285000002010BD40210348FEF71DFB00F042F8A8
:102860000120F6E7000C014010B500226B21682022
:1028700000F0DCF807221921682000F0D7F81921B0
:10288000682000F037F8072801D0012010BD002093
:10289000FCE7000070B50446082519E004F080004C
:1028A00020B180210E48FEF7F4FA03E080210C48A5
:1028B000FEF7F1FA6006040E00F014F84021084813
:1028C000FEF7E7FA00F00EF840210548FEF7E3FABC
:1028D000281EA5F10101CDB2E0D1FFF7A3FF70BD25
:1028E000000C0140002000BF011EA0F1010290B2C7
:1028F000FAD1704770B504460D4600F065F8002126
:1029000041EA4401C8B2FFF7C5FF2846FFF7C2FFFE
:1029100000F05AF8012101EB4401C8B2FFF7BAFFF9
:102920000020FFF747FF064600F066F8304670BD0E
:102930002DE9F04105460E4614461F4600F044F8C6
:10294000002141EA4501C8B2FFF7A4FF3046FFF776
:10295000A1FF00F039F8012101EB4501C8B2FFF7F2
:1029600099FF04E00120FFF725FF2070641C781E0A
:10297000C0B2071EF6D1FFF71DFF207000F03CF833
:10298000BDE8F08110B5044640210E48FEF783FAF9
:10299000FFF7A8FF24B180210A48FEF77CFA03E084
:1029A00080210848FEF775FA40210648FEF771FAC3
:1029B000FFF798FF40210348FEF76DFAFFF792FFFB
:1029C00010BD0000000C014010B580210948FEF741
:1029D00060FA40210748FEF75CFAFFF783FF802189
:1029E0000448FEF758FAFFF77DFF40210148FEF743
:1029F00052FA10BD000C014010B580210A48FEF7C4
:102A00004AFA40210848FEF746FAFFF76BFF4021DB
:102A10000548FEF73EFAFFF765FF80210248FEF702
:102A200038FAFFF75FFF10BD000C014070B5044697
:102A30000D461646FFF7C8FF002141EA4401C8B21F
:102A4000FFF728FF2846FFF725FF3046FFF722FF54
:102A5000FFF7D2FF70BD10B5FEF7E9FDFEF766FA8D
:102A60004820FEF7CFFE4FF4E130FFF7C7FC4721C7
:102A700042F20F70FFF77AF8FFF76CFEFEF7EEFAFE
:102A8000FEF790F8FEF713FA10BD00002DE9F047AD
:102A900004460D462F4800782E49497808442D49B0
:102AA000897808442B49C97808442B49087084B9AF
:102AB00000210846FEF778FB00210120FEF774FB99
:102AC00000210220FEF770FB00210320FEF76CFBC3
:102AD0003DE0002C3BD020480078FDF766FD8146A4
:102AE0002946FDF7A8FB07461C480078FDF75DFD69
:102AF00080463946FDF747FB0646FDF779FD174945
:102B0000087046210020FEF74FFB46210120FEF70A
:102B10004BFB46210220FEF747FB46210320FEF730
:102B200043FBC4EB04100D490978B1EB800F0EDDB7
:102B30000024002009490870052009490870094847
:102B4000006808B9012000E0002006490860BDE8DF
:102B5000F0870000200000205A0000206F000020B5
:102B600058000020948121420040404040404040B5
:102B70004040414141414140404040404040404050
:102B800040404040404040404005020202020202F4
:102B90000202020202020202022020202020202043
:102BA0002020200202020202020290909090909057
:102BB0001010101010101010101010101010101015
:102BC0001010101002020202020288888888888889
:102BD0000808080808080808080808080808080875
:102BE000080808080202020240000000692B0008E1
:102BF000102C000800000020040100006C260008D2
:102C0000142D000804010020CC0400007C260008DC
:102C10000000000001020304010203040607080982
:102C2000020406080101010100000000000000008C
:102C30000000000000000000000000000000000094
:102C40000000000000000000000000000000000084
:102C50000000000000000000000000000000000074
:102C6000000000000000000000080000000000005C
:102C70000000000000000000000000000000000054
:102C80000000000000000000000000000000000044
:102C90000000000000000000000000000000000034
:102CA00000000000000000000000000000002040C4
:102CB000000000000000004000000000000039405B
:102CC0000000000000002040000000000000004064
:102CD000000000000000394000000000000020401B
:102CE000000000000000004000000000000039402B
:102CF0000000000000002040000000000000004034
:102D0000000000000000394000000000000000004A
:042D100000000000BF
:0400000508000131BD
:00000001FF
