:020000040800F2
:10000000C0050020490100085D110008E10C00084E
:10001000110E000853090008D32200080000000058
:100020000000000000000000000000004D15000866
:100030005709000800000000F51300081917000810
:100040006301000863010008630100086301000800
:1000500063010008630100086301000859090008F2
:100060007D090008A1090008C5090008630100080E
:1000700063010008630100086301000863010008D0
:1000800063010008630100086301000863010008C0
:1000900063010008630100086301000863010008B0
:1000A00063010008630100086301000863010008A0
:1000B000B917000863010008630100086301000824
:1000C0006301000863010008630100086301000880
:1000D00063010008F11F00086301000863010008C4
:1000E0006301000863010008630100086301000860
:1000F0006301000863010008630100086301000850
:10010000630100086301000863010008630100083F
:10011000630100086301000863010008630100082F
:10012000630100086301000863010008630100081F
:10013000DFF810D000F09AFB004800474D2300087C
:10014000AFF30080C00500200648804706480047FE
:10015000FEE7FEE7FEE7FEE7FEE7FEE7FEE7FEE777
:10016000FEE7FEE7591700083101000870B50646A2
:1001700002F0B2F8046805460A220021304600F079
:10018000A8FA2C6070BDF0B480EA0102D40F4200DE
:10019000B2EB410F02D20246084611464A0042D055
:1001A000C30DDDB2C1F3C752AD1A202D35DAC1F34C
:1001B000160141F4000204B15242C5F1200602FAD0
:1001C00006F12A411044B3EBD05F23D0C4B1012D16
:1001D000A0EBC35009DCF0BC4FF0004202EAC3526E
:1001E000DBB200F5000000F0B5BA400000F180700D
:1001F00000EBC350A0F1807040EAD170490009E0E3
:10020000490841EAC071A0EBC35000F50000400866
:1002100000EBC350F0BC00F094BA6142012202EB43
:100220004101001BF6E7F0BC704781F00041AAE7EE
:1002300080F00040A7E72DE9FE4F804681EA0300E9
:10024000C00F0C46009021F0004123F00045B8EBB0
:100250000200A94105D24046214690461C460B4665
:10026000024623F00040104347D0270DC7F30A0091
:10027000C3F30A510290401A019040286BDAC3F38D
:10028000130040F4801B0098924620B10023D2EB6B
:10029000030A63EB0B0B01985946C0F1400250462C
:1002A00000F0E6F906460D4650465946019A00F020
:1002B000FEF910EB08006141002487EA115284EA3C
:1002C000E7731A4340D0009A62B3019A012A4FEAB9
:1002D000075215DC001B61EB02014FF0004202EAFD
:1002E0000752CDE90042001C41F5801132462B46F1
:1002F00000F06DFA03B0BDE8F08F40462146F9E703
:10030000001B61EB0201001C41F5801300185B41EA
:100310002018A2F5001747EB030140EAD570B61983
:100320006D4111E06D084FEA360645EAC0754FEAA7
:100330000752001B61EB0201001C41F580114908C6
:100340004FEA30000019514132462B4603B0BDE858
:10035000F04F00F02DBA0098012240000023D0EBAE
:10036000020263EBE073009821464FEAE074B8EBB9
:10037000000061EB0401E9E783F000435BE781F0F3
:10038000004158E72DE9FE4F81EA030404F00044E0
:1003900021F0004100944FF0000B23F0004350EA9D
:1003A00001045ED052EA03045BD0C3F30A54C1F3E4
:1003B0000A552C44A4F2F3340194A0FB0254C1F377
:1003C000130141F48011C3F3130343F4801301FBC1
:1003D000024400FB034E840A970A44EA815447EA28
:1003E0008357A4FB076802958D0A05FB07854FEA32
:1003F000932C04FB0C542705029D4FEA065847EA4C
:100400001637B5EB08056EEB070C870E920E47EA20
:10041000811742EA8312A7FB0201B6EB0B0164EBE2
:1004200000042B0D43EA0C335E1844EB1C50DA46F3
:100430005146E7FB0201C5F313044FEA0B3343EACD
:1004400014534FEA0432019C43EA0603A4F10C045E
:100450000294009CCDE900B400F0B9F903B0BDE806
:10046000F08F00200146F9E72DE9F04D81EA030401
:1004700004F0004B21F0004514464FF0000A23F031
:10048000004150EA050220D054EA01021DD0C5F314
:100490000A570246C5F31303C1F31300C1F30A560A
:1004A00040F4801543F48013A7EB0608101BD646D2
:1004B00008F2FD3873EB050002D308F1010801E0F2
:1004C00092185B41B8F1000F03DA00200146BDE845
:1004D000F08D00204FF48011064684460EE0171B75
:1004E00073EB050705D3121B63EB050306434CEAC8
:1004F000010C49084FEA300092185B4150EA0107AD
:10050000EDD152EA030012D082EA040083EA050129
:10051000084305D0101BAB4106D20122002306E0A0
:1005200000224FF0004302E06FF0010253101AEB7B
:1005300006004CEB085110EB0A0041EB0B01BDE843
:10054000F04D00F035B9C10F80EAE0700844CA07E9
:100550009623002100F0FEB80EB5C10F80EAE070CE
:100560000844CA07002140F233438DE80E000A46D2
:100570000B4600F02CF903B000BD00F0004220F063
:100580000040C10DC0F3160040F400007F2901DADD
:1005900000207047962903DCC1F19601C84001E0B4
:1005A00096398840002AF4D04042704770B5C1F3B4
:1005B0000A5201F000450024C1F3130140F2FF3359
:1005C00041F480119A4201DA002070BD40F23343B9
:1005D0009A42A2F2334203DC524200F058F800E0A3
:1005E00090402C43F1D0404270BD00F0004230F00A
:1005F00000400AD0C10D01F56071C0F3160042EA57
:100600000151C2084007114370470020014670475E
:1006100001F0004330B421F0004150EA010206D05D
:100620000A0DA2F56072C1F31301002A02DC30BC8E
:1006300000207047440F44EAC104C100E01830BCF8
:1006400000EBC25000F07DB8002801DBC0F1004093
:10065000002901DBC1F1004181427047002801DB24
:10066000C0F10040002901DBC1F100418842704720
:10067000202A04DB203A00FA02F100207047914062
:10068000C2F1200320FA03F3194390407047202A57
:1006900004DB203A21FA02F00021704721FA02F32C
:1006A000D040C2F120029140084319467047202AE9
:1006B00006DBCB17203A41FA02F043EAE07306E08A
:1006C00041FA02F3D040C2F120029140084319469A
:1006D00070472DE9F04791460F46804604460026B4
:1006E00014F8015B2DB100F0D3F80068405DC0073D
:1006F000F6D12B2D02D02D2D18D0641E4A46394636
:10070000204600F0C9F827B13968A14201D1C7F8E5
:10071000008071054FF002040BD54042002803DD34
:1007200001F0DAFD0460A007BDE8F08746F48066BA
:10073000E4E70028F8DA01F0CFFD04606FF0004034
:10074000F2E70029A8BF7047401C490008BF20F00D
:100750000100704710B4B0FA80FC00FA0CF050EAC7
:10076000010404BF10BC704749B1CCF1200421FA48
:1007700004F411FA0CF118BF012121430843A3EB43
:100780000C01CB1D4FEA00614FEA102042BF002050
:1007900010BC704700EBC35010440029A4BF10BC2C
:1007A0007047401C490008BF20F0010010BC704792
:1007B00010B5141E73F1000408DA401C41F1000169
:1007C00092185B411A4301D120F0010010BD2DE9C0
:1007D000F04D92469B4611B1B1FA81F202E0B0FAB7
:1007E00080F220329046FFF743FF04460F4640EA6E
:1007F0000A0041EA0B0153465A46084313D01146FA
:1008000053EA010019D0C8F140025046FFF73FFFFC
:1008100005460E46504659464246FFF729FF084313
:1008200005D0012004E020463946BDE8F08D0020C7
:10083000054346EAE0762C4337430A986305E40A09
:10084000A0EB08000022FD0A44EA47540A3002D512
:1008500000200146E9E7010510196941DDE9084575
:1008600000196941BDE8F04DA2E70000064C074DB4
:1008700006E0E06840F0010394E807009847103470
:10088000AC42F6D3FFF758FC5C2800087C2800082F
:1008900000487047582800082DE9F05F824600782C
:1008A000002715468B460AF10104B946302801D0CD
:1008B0009DB113E014F8010B0127782803D05828C4
:1008C00001D045B10AE00DB1102D07D10027102548
:1008D00014F8010B02E0082500E00A250026B046C6
:1008E0000EE005FB080005FB06F1012701EB1046B1
:1008F0001FFA80F8B6F5803F00D3B94614F8010B13
:10090000294600F018F80028EBDABBF1000F05D0FB
:100910000FB1641E00E05446CBF80040B9F1000F5F
:1009200006D001F0D9FC02210160C81EBDE8F09F8D
:1009300048EA0640FAE73A2800D2303820F0200290
:10094000412A01D3A2F13700884201D34FF0FF3092
:10095000704700BFFEE7704710B5022000F04AF86C
:10096000012804D104480068401C034908600220A3
:1009700000F03AF810BD0000D400002010B50420AB
:1009800000F038F8012804D104484068401C0349AD
:100990004860042000F028F810BD0000D4000020BA
:1009A00010B5082000F026F8012804D1044880681A
:1009B000401C03498860082000F016F810BD0000B4
:1009C000D400002010B5102000F014F8012804D144
:1009D0000448C068401C0349C860102000F004F8B7
:1009E00010BD0000D40000200149086070470000DD
:1009F00014040140014600200022074B1B6803EA53
:100A00000102054B14331B680B4013B10AB10120DE
:100A100000E000207047000000040140002123494D
:100A20008279002A3AD00A46126803689A430B4634
:100A30001A600A1D126803689A430B1D1A60027936
:100A400011440A6803681A430A60184A0832126897
:100A500003689A43154B08331A601A1D126803681D
:100A60009A43124B0C331A604279102A0ED11A1F86
:100A7000126803681A430D4B08331A601A1D126876
:100A800003681A43094B0C331A600DE00749427999
:100A900011440A6803681A430A6005E002791144A8
:100AA0000A6803689A430A60704700000004014026
:100AB00000200349086048608860C86070470000F3
:100AC000D400002008B50121042000F0B5FC0F205F
:100AD000ADF8000028208DF8030003208DF80200F7
:100AE0006946054800F064F8002004490860486041
:100AF0008860C86008BD000000080140D4000020E4
:100B000008B50121042000F097FC0121082000F025
:100B100093FCC020ADF8000018208DF803000320DE
:100B20008DF802006946054800F042F80320ADF850
:100B300000006946024800F03BF808BD000801408B
:100B4000000C014008B50121042000F075FC1E20B6
:100B5000ADF8000028208DF8030003208DF8020076
:100B60006946024800F024F808BD00000008014072
:100B700030B500228B071C0F0F2303FA04F20B4B36
:100B80008C1053F824309343084C8D1044F82530D2
:100B900023468C1053F824308C07240F00FA04F4F9
:100BA0002343024C8D1044F8253030BD080001402D
:100BB0002DE9F041024600250026002000230024F4
:100BC000002791F803C00CF00F0591F803C00CF05A
:100BD000100CBCF1000F03D091F802C04CEA0505DF
:100BE00091F800C0BCF1000F31D0146800202BE058
:100BF0004FF0010C0CFA00F3B1F800C00CEA030648
:100C00009E4220D183004FF00F0C0CFA03F7BC4337
:100C100005FA03FC4CEA040491F803C0BCF1280F68
:100C200006D14FF0010C0CFA00FCC2F814C00AE027
:100C300091F803C0BCF1480F05D14FF0010C0CFA3C
:100C400000FCC2F810C0401C0828D1D31460B1F8D1
:100C500000C0BCF1FF0F34DD546800202EE000F12D
:100C6000080C4FF0010808FA0CF3B1F800C00CEAC8
:100C700003069E4221D183004FF00F0C0CFA03F7BC
:100C8000BC4305FA03FC4CEA040491F803C0BCF130
:100C9000280F05D100F1080C08FA0CF8C2F81480EE
:100CA00091F803C0BCF1480F07D100F1080C4FF0D8
:100CB000010808FA0CF8C2F81080401C0828CED3AE
:100CC0005460BDE8F0810246002093680B400BB1F0
:100CD000012000E0002070474161704701617047CA
:100CE00000BFFEE708B50121482000F0A5FB202049
:100CF000ADF8000010208DF8030003208DF80200ED
:100D000069460948FFF754FF20210748FFF7E6FF2F
:100D10002020ADF8000069460448FFF749FF202174
:100D20000248FFF7DBFF08BD000C0140001801403E
:100D300010B5002400BF0EE001F00EFB0C48007857
:100D40000C490978084440B209490870022001F0B2
:100D5000D7FA601CC4B2962CEEDB054890F900006F
:100D6000962190FBF1F040B20149087010BD0000DF
:100D70001A000020200000202DE9F05F1B480068C9
:100D80001B4908601B49B1F900101B4A92F9002069
:100D9000881AFFF7E1FB06464FF06632174BFFF764
:100DA00063FB0446FFF734FC1049086010480068F4
:100DB000FFF71BFC0646124A124BFFF7E3FA044604
:100DC0000D460A480068FFF710FC06460E4A0F4B16
:100DD000FFF7D8FA804622462B46FFF72CFA8246C8
:100DE000FFF716FC01490860BDE8F09F34000020C1
:100DF00030000020200000201A00002066663040ED
:100E00009A9999999999B93FCDCCCCCCCCCCEC3F5F
:100E100000BFFEE708B50121202000F00DFBFF20F8
:100E2000ADF8000010208DF8030003208DF80200BB
:100E300069461548FFF7BCFEFF211348FFF74CFF3A
:100E400000F090FA0121002000F020F8012108466E
:100E500000F01CF80121022000F018F80121032005
:100E600000F014F80021084600F07AF80021012073
:100E700000F076F80021022000F072F80021032033
:100E800000F06EF808BD00000014014070B5054682
:100E90000C46032D01DC002D00DA70BD2E494C55A7
:100EA00035B1012D18D0022D2AD0032D50D13BE0B1
:100EB0003CB902212948FFF711FF01212748FFF71C
:100EC0000BFF012C07D101212448FFF707FF022166
:100ED0002248FFF701FF3CE03CB908211F48FFF71B
:100EE000FDFE04211D48FFF7F7FE012C07D1082164
:100EF0001A48FFF7F1FE04211848FFF7EFFE28E03B
:100F00003CB920211548FFF7E9FE10211348FFF7EF
:100F1000E3FE012C07D120211048FFF7DDFE102150
:100F20000E48FFF7DBFE14E03CB980210B48FFF7C9
:100F3000D5FE40210948FFF7CFFE012C07D18021C3
:100F40000648FFF7C9FE40210448FFF7C7FE00E04E
:100F500000BF00BF00BFA0E7140000200014014044
:100F600070B504460D46002C06DB032C04DC611C26
:100F700088B2294600F00CFA70BD10B50021084671
:100F8000FFF784FF00210120FFF780FF00210220EE
:100F9000FFF77CFF00210320FFF778FF10BD10B59D
:100FA00001210020FFF772FF01210846FFF76EFFC5
:100FB00001210220FFF76AFF01210320FFF766FFEE
:100FC00010BD000030B585B000250024002004903D
:100FD0005A48008800F40040002841D000200090CA
:100FE0000190029003905548057800BF04E05448F2
:100FF000005D2DF81400641CAC42F8DBBDF8000065
:101000004E2803D100204F49087016E0BDF80000BB
:10101000532803D101204B4908700EE0BDF80000B1
:10102000572803D102204749087006E0BDF80000A8
:10103000452802D1032043490870002405E0601CC4
:101040001DF8100004A90855641C022CF7DB04A845
:10105000FFF78CF83C49088000203849088000BF21
:101060003848007830B1012814D002283ED0032837
:1010700058D11FE03548006808B9012000E0002081
:1010800032490860FFF78BFF04202E490870FFF7F4
:101090000FFD48E02E48006808B9012000E000205C
:1010A0002B490860FFF769FF042026490870FFF705
:1010B000FFFC38E002202749087000F03DFF24487B
:1010C000006808B9012000E000202149086022489A
:1010D000D0F8940108B9012000E000201B49086005
:1010E000042018490870FFF7E3FC1CE001201949AF
:1010F000087000F0C5FE1648006808B9012000E03D
:101100000020134908601448D0F8940108B9012060
:1011100000E000200D49086004200A490870FFF72C
:10112000C7FC00E000BF00BF06480078042803D1D8
:101130000549087801F0D4FA05B030BDCC00002094
:10114000F4000020280000203800002094012342F1
:10115000948121423A00002000002342704708B5E4
:101160004FF4A06000F046F81C208DF8000000202D
:101170008DF8020001208DF80300684600F002F8A7
:1011800008BD000070B5002100230F22C47804B30D
:10119000154C246804F4E064C4F5E064210AC1F14C
:1011A0000403CA40447804FA03F1847814402143CC
:1011B00009010E4C0678A155047804F01F0501249E
:1011C000AC4005786D11AD0005F1E025C5F8004192
:1011D00009E0047804F01F050124AC40044D0678B2
:1011E000761145F8264070BD0CED00E000E400E00B
:1011F00080E100E002490143024A116070470000AB
:101200000000FA050CED00E02DE9F04F89B08146B1
:101210000C464D4830F82400A9EB000000B24B49C1
:1012200021F8140031F91410494A32F9142002232C
:1012300003FB1211474A32F914208818FFF78CF982
:101240000746884604EB4400434901EBC000D0E95F
:1012500004532A4638464146FFF794F8CDE9040185
:101260003A4931F91400FFF777F90746884604EB4D
:101270004400394901EBC000D0E902532A46384600
:101280004146FFF77FF882468B46304931F914100A
:101290002F4A32F91420881AFFF75EF905460E46E8
:1012A00004EB44002C4901EBC000D0E900733A463E
:1012B00028463146FFF766F852465B46CDE9000105
:1012C000FEF7B9FFCDE90201DDE90423FEF7B3FF24
:1012D000CDE90601FFF76AF900B2204921F81400B0
:1012E0001F4830F8140031F81410084400B21C49AB
:1012F00021F81400164830F81400164921F814009B
:10130000124830F81400124921F81400144830F93A
:101310001400642804DD6420114921F814000CE055
:101320000F4830F91400002807DA0D4830F814008F
:10133000404200B20A4921F81400094830F914006B
:1013400009B0BDE8F08F0000D40000203C00002070
:10135000440000204C0000206800002054000020C1
:101360005C00002010B5FFF7CBFB00F06BFA00210A
:10137000012000F00DF80021022000F009F8002102
:10138000032000F005F80021042000F001F810BD52
:1013900070B505460C4604EB8400400004B2B4F579
:1013A0007A7F01DD4FF47A74002C00DA0024012DDD
:1013B00006D0022D09D0032D0CD0042D14D10EE03F
:1013C000A1B20B4800F001FD0FE0A1B2084800F007
:1013D000FEFC0AE0A1B2064800F0FBFC05E0A1B269
:1013E000034800F0F8FC00E000BF00BF70BD000043
:1013F000000400407047000029B1064AD269024348
:10140000044BDA6104E0034AD2698243014BDA619A
:10141000704700000010024029B1064A12690243D9
:10142000044B1A6104E0034A12698243014B1A61BA
:10143000704700000010024029B1064A9269024339
:10144000044B9A6104E0034A92698243014B9A611A
:10145000704700000010024029B1064AD2680243DA
:10146000044BDA6004E0034AD2688243014BDA603D
:10147000704700000010024030B500210022002417
:1014800000232D4D6D6805F00C0121B1042905D014
:10149000082923D105E0294D056022E0274D05608C
:1014A0001FE0254D6D6805F47012234D6D6805F43D
:1014B0008034022505EB92421CB9214D554305604D
:1014C0000BE01D4D6D6805F400351DB11C4D5543F5
:1014D000056002E0194D5543056002E0174D0560B7
:1014E00000BF00BF144D6D6805F0F0010909154DEE
:1014F0006B5C0568DD4045600F4D6D6805F4E0618B
:10150000090A104D6B5C4568DD4085600A4D6D68C9
:1015100005F46051C90A0B4D6B5C4568DD40C56040
:10152000054D6D6805F44041890B074D6B5CC5683E
:10153000B5FBF3F5056130BD0010024000127A00E2
:1015400000093D00000000201000002070470EB58B
:10155000FFF7F8FA01210020FFF70AFB0221002023
:10156000FFF706FB03210020FFF702FB0421002008
:10157000FFF7FEFA08208DF8080001208DF8090019
:1015800002208DF80A0001208DF80B0002A8FFF759
:10159000F9FD09208DF8080001208DF809000320CD
:1015A0008DF80A0001208DF80B0002A8FFF7EAFD74
:1015B0000A208DF8080001208DF8090004208DF81C
:1015C0000A0001208DF80B0002A8FFF7DBFD0720C1
:1015D0008DF8080001208DF809008DF80A008DF8BB
:1015E0000B0002A8FFF7CEFD1E20009000208DF812
:1015F00004000C208DF8050001208DF806006846D7
:10160000FFF70CFA0EBD10B500F002F810BD000097
:101610000CB50020019000903348006840F4803001
:101620003149086000BF3048006800F40030009085
:101630000198401C0190009818B90198B0F5A06F6E
:10164000F1D12948006800F4003010B10120009069
:1016500001E0002000900098012843D12348006851
:1016600040F01000214908600846006820F003009F
:1016700008600846006840F0020008601A484068A8
:10168000194948600846406848600846406840F488
:10169000806048600846406820F47C104860084636
:1016A000406840F4E81048600846006840F08070E8
:1016B000086000BF0C48006800F000700028F9D0F6
:1016C0000948406820F00300074948600846406820
:1016D00040F00200486000BF0348406800F00C0082
:1016E0000828F9D10CBD0000001002400020024083
:1016F000042808D14FF0E021096941F004014FF0BE
:10170000E022116107E04FF0E021096921F00401B6
:101710004FF0E022116170477047000010B5044699
:101720006FF00400FFF7E4FFE11704EB5171C1F320
:10173000C701074A11701046007800EB4001C1EB69
:10174000C0104FF6FF7101EAC0000249088010BDC9
:10175000C8000020CA00002010B51348006840F0FF
:1017600001001149086008464068104908400E49C8
:101770004860084600680E4908400B490860084662
:10178000006820F4802008600846406820F4FE00CD
:1017900048604FF41F008860FFF735FF4FF000608E
:1017A0000449086010BD0000001002400000FFF86E
:1017B000FFFFF6FE08ED00E010B50121880700F0FC
:1017C0008FF9012814D10121800700F085F809481C
:1017D0000088401C0749088008460088B0F57A7FD9
:1017E00006DD002008800449086048608860C86001
:1017F00010BD000018000020D40000203EB50546B2
:101800000C4601210846FFF7F7FD4FF0804000F03D
:1018100073F8ADF80450ADF800400020ADF80200B8
:1018200069464FF0804000F0D9FA01221146900736
:1018300000F067F90121880700F051F8FFF78FFCED
:101840003EBD000000B587B001210220FFF7D4FDA6
:1018500040F2E730ADF814004720ADF8100000204A
:10186000ADF81600ADF8120004A91A4800F0B6FA57
:101870006020ADF800000120ADF802003220ADF884
:1018800006000020ADF808006946124800F042F951
:101890000821104800F08AF969460E4800F090F9D6
:1018A00008210C4800F0DEF969460A4800F0E8F922
:1018B0000821084800F034FA6946064800F03AFA70
:1018C0000821044800F074FA0121024800F007F8EA
:1018D00007B000BD00040040CA430282704721B136
:1018E000028842F00102028004E002884FF6FE7393
:1018F0001A4002807047000010B5044668488442D0
:1019000008D10121C014FFF7A7FD0021E014FFF763
:10191000A3FDC4E0B4F1804F08D101210846FFF7D0
:101920007BFD00210120FFF777FDB8E05D48844290
:1019300008D101210220FFF76FFD00210220FFF7EF
:101940006BFDACE05848844208D101210420FFF728
:1019500063FD00210420FFF75FFDA0E053488442AF
:1019600008D101210820FFF757FD00210820FFF7CB
:1019700053FD94E04E48844208D101211020FFF726
:101980004BFD00211020FFF747FD88E049488442C5
:1019900008D101212020FFF73FFD00212020FFF783
:1019A0003BFD7CE04448844208D101214014FFF70C
:1019B00053FD00216014FFF74FFD70E03F48844263
:1019C00009D10121C804FFF747FD00214FF4002091
:1019D000FFF742FD63E03A48844209D1012108053E
:1019E000FFF73AFD00214FF48010FFF735FD56E078
:1019F0003448844209D101214805FFF72DFD00211B
:101A00004FF40010FFF728FD49E02F48844208D129
:101A100001214020FFF700FD00214020FFF7FCFCE2
:101A20003DE02A48844208D101218020FFF7F4FCE0
:101A300000218020FFF7F0FC31E02548844208D1E6
:101A400001218015FFF7E8FC0021A015FFF7E4FC59
:101A500025E02048844209D101210804FFF7FCFC5D
:101A600000214FF48030FFF7F7FC18E01A48844259
:101A700009D101214804FFF7EFFC00214FF40030A9
:101A8000FFF7EAFC0BE01548844208D101218804E5
:101A9000FFF7E2FC00214FF48020FFF7DDFC10BDD2
:101AA000002C01400004004000080040000C0040F1
:101AB000001000400014004000340140004C014080
:101AC000005001400054014000180040001C00403C
:101AD0000020004000400140004401400048014017
:101AE00030B50246002000230024158A05EA0103D0
:101AF000958905EA010413B10CB1012000E0002032
:101B000030BD1AB183890B43838102E083898B4303
:101B10008381704770B5002400220023058C4FF6A6
:101B2000FE7635400584028C8388048B4FF68F75D2
:101B30002C40B51E2C400D882C43751E2A400D8963
:101B40002A434D882A43144DA8420BD0134DA84276
:101B500008D0134DA84205D0124DA84202D0124D14
:101B6000A84213D14FF6F7752A404D892A434FF604
:101B7000FB752A408D882A434FF6FF652B404FF6B0
:101B8000FF552B408D892B43CD892B4383800483C4
:101B9000CD888586028470BD002C01400034014050
:101BA0000040014000440140004801400A46002135
:101BB000018B4FF6F7731940114301837047000002
:101BC00070B5002400220023058C4FF6EF763540D7
:101BD0000584028C8388048B48F6FF752C404FF6F1
:101BE000FF452C400D884FF6FF7606EA05252C436D
:101BF0004FF6DF752A400D8906EA05152A434D8800
:101C000006EA05152A43154DA84202D0144DA842F4
:101C10001DD14FF67F752A404D894FF6FF7606EAB3
:101C200005152A434FF6BF752A408D8806EA05152B
:101C30002A434FF6FF352B404FF2FF752B408D891D
:101C400006EA85052B43CD8906EA85052B4383806B
:101C50000483CD880587028470BD0000002C0140FC
:101C6000003401400A460021018B4FF2FF731940F6
:101C70004FF6FF7303EA0223194301837047000004
:101C800070B5002400220023058C4FF6FF66354016
:101C90000584028C8388848B4FF68F752C404FF619
:101CA000FC752C400D882C434FF6FF552A400D89BA
:101CB0004FF6FF7606EA05252A434D8806EA0525F4
:101CC0002A43154DA84202D0144DA8421DD14FF20F
:101CD000FF752A404D894FF6FF7606EA05252A430F
:101CE0004FF6FF352A408D8806EA05252A434EF631
:101CF000FF752B404DF6FF752B408D8906EA0515C3
:101D00002B43CD8906EA05152B4383808483CD8838
:101D10008587028470BD0000002C01400034014022
:101D20000A460021818B4FF6F773194011438183D6
:101D30007047000070B5002200230024058C4EF689
:101D4000FF7635400584038C8488828B48F6FF75C6
:101D50002A404FF6FF452A400D884FF6FF7606EAE7
:101D600005252A434DF6FF752B400D8906EA0535FA
:101D70002B434D8806EA05352B430B4DA84202D074
:101D80000A4DA84208D14BF6FF752C408D894FF6BD
:101D9000FF7606EA85152C4384808283CD88A0F8DF
:101DA0004050038470BD0000002C0140003401400D
:101DB0000A460021818B4FF2FF7319404FF6FF73E3
:101DC00003EA0223194381837047818670470187A4
:101DD000704781877047A0F8401070470022028842
:101DE0001D4B98420ED01D4B98420BD0B0F1804F46
:101DF00008D01B4B984205D01A4B984202D01A4B80
:101E0000984204D14FF68F731A404B881A43174BF0
:101E1000984207D0164B984204D04FF6FF431A4021
:101E2000CB881A4302808B8883850B8803850A4BF5
:101E300098420BD0094B984208D00E4B984205D0DF
:101E40000D4B984202D00D4B984201D10B7A03867C
:101E50000123838270470000002C014000340140C0
:101E60000004004000080040000C0040001000404A
:101E7000001400400040014000440140004801407F
:101E800010B500F069FA00210846FEF7FFFF0021B7
:101E90000120FEF7FBFF01210220FEF7F7FF0121E1
:101EA0000320FEF7F3FFFEF767FF1F491F48006896
:101EB000FEF7CAFB1CD81E480078012818D11D481F
:101EC00001681A480068FEF75EF918490860322177
:101ED0000020FFF745F832210120FFF741F83221B9
:101EE0000220FFF73DF832210320FFF739F81AE00E
:101EF0000D490E480068FEF7B1FB14D200200C49D2
:101F000008700A49086000210846FFF729F80021F7
:101F10000120FFF725F800210220FFF721F800211A
:101F20000320FFF71DF810BD0000B4422C00002074
:101F30003A0000203400002010B500F00DFA012115
:101F40000020FEF7A3FF01210846FEF79FFF0021B6
:101F50000220FEF79BFF00210320FEF797FFFEF70C
:101F60000BFF1F491F480068FEF778FB1CD21E4874
:101F70000078022818D11D4801681A480068FEF749
:101F800002F91849086032210020FEF7E9FF3221EA
:101F90000120FEF7E5FF32210220FEF7E1FF3221AA
:101FA0000320FEF7DDFF1AE00D490E480068FEF73A
:101FB0004BFB14D200200C4908700A49086000212C
:101FC0000846FEF7CDFF00210120FEF7C9FF0021E2
:101FD0000220FEF7C5FF00210320FEF7C1FF10BD60
:101FE0000000B4C22C0000203A0000203400002081
:101FF00010B540F225511D4800F0ABF810B31B4856
:1020000000F062F9C4B21A48008800F40040C8B970
:102010001748008800F4804060B10A2C03D00020EB
:102020001349088020E01248008840F4004010491D
:10203000088019E00D2C06D10D48008840F480403E
:102040000B49088010E00A480088C0F30D000949D8
:102050000C5407480088401C054908800846008841
:10206000C72801DD0020088010BD000000380140B5
:10207000CC000020F400002010B586B004460121F9
:102080000420FFF7D9F901218803FFF7D5F94FF4B0
:102090000070ADF8140003208DF8160018208DF89C
:1020A000170005A91E48FEF783FD4FF48060ADF8C8
:1020B000140004208DF8170005A91948FEF778FDD3
:1020C00001940020ADF80800ADF80A00ADF80C004E
:1020D000ADF810000C20ADF80E0001A9114800F079
:1020E00087F801210F4800F028F840210D4800F042
:1020F0001BF8012240F225510A4800F054F825202F
:102100008DF8000003208DF801008DF802000120F9
:102110008DF803006846FFF735F806B010BD0000E3
:10212000000801400038014001F40072B2F5007F60
:1021300000D100BFCA430280704721B1828942F4B6
:102140000052828104E082894DF6FF731A40828139
:10215000704770B50246002400230025002040F699
:102160006A16B14200D100BFC1F3421501F01F034E
:10217000012606FA03F3012D02D19689334006E0C9
:10218000022D02D1168A334001E0968A33400C12A8
:10219000012606FA04F41688344013B10CB101206C
:1021A00000E0002070BDF0B50346002400260025A5
:1021B000002040F66A17B94200D100BF1846C1F3AB
:1021C000421401F01F06012707FA06F5012C01D180
:1021D0000C3004E0022C01D1103000E014301AB1B0
:1021E00007682F43076002E00768AF430760F0BD50
:1021F0002DE9F04786B005460E460024A24600BFF2
:10220000A1460027B08900B100BF2F462C8A4CF6AA
:10221000FF700440F08804432C82AC894EF6F31022
:102220000440B08831890843718908430443AC8174
:10223000AC8A4FF6FF400440B0890443AC8201A849
:10224000FFF71AF91F48874202D1DDF810A001E01C
:10225000DDF80CA0A88900F4004040B10AEBCA00E8
:1022600000EB0A1031684900B0FBF1F807E00AEB17
:10227000CA0000EB0A1031688900B0FBF1F8642055
:10228000B8FBF0F004012009642101FB1089A88942
:1022900000F4004040B1322000EBC900B0FBF1F087
:1022A00000F00700044308E0322000EB091064212D
:1022B000B0FBF1F000F00F0004432C8106B0BDE844
:1022C000F08700000038014001468888C0F308000C
:1022D000704700BFFEE7000000487047D0000020B4
:1022E00002E008C8121F08C1002AFAD170477047DF
:1022F000002001E001C1121F002AFBD1704700003D
:102300000146114A12884A434FF0E0235A610022E5
:102310009A611A46126942F001021A6100BF4FF039
:10232000E022106900F001021AB100F48032002AA4
:10233000F5D04FF0E022126922F001024FF0E023C5
:102340001A6100229A617047CA00002000F0AFF9BC
:1023500001E0FEF737FEFCE71CB506236A46432181
:10236000682000F011F99DF801009DF8001040EA86
:10237000012000B20A4908809DF803009DF8021070
:1023800040EA012000B2074908809DF805009DF849
:10239000041040EA012000B2034908801CBD00007F
:1023A0001C0000201E0000202000002010B564202A
:1023B000FFF7A6FF00F084F808B1012010BD00224D
:1023C0006B21682000F05EF907221921682000F0D7
:1023D00059F904221A21682000F054F918221B210F
:1023E000682000F04FF910221C21682000F04AF903
:1023F00000226A21682000F045F902223721682076
:1024000000F040F9FEF794FC0020D7E770B50646CF
:10241000002440211848FEF761FC00F08FF880216D
:102420001548FEF759FC002518E000F087F8402118
:102430001148FEF753FC00F081F840210E48FEF7EA
:102440004BFC00F07BF86006040E80210A48FEF782
:102450003AFC08B1601CC4B2681CC5B2082DE4DBAC
:1024600040210548FEF73AFC00F068F8304600F0DD
:10247000B5F8204670BD0000000C014010B54021A9
:102480000E48FEF72BFC00F059F840210B48FEF7F0
:1024900023FC00F053F880210848FEF714FC28B113
:1024A00040210648FEF71AFC002010BD40210348D9
:1024B000FEF714FC00F042F80120F6E7000C0140A2
:1024C00010B500226B21682000F0DCF807221921EA
:1024D000682000F0D7F81921682000F037F80728A5
:1024E00001D0012010BD0020FCE7000070B50446BB
:1024F000082519E004F0800020B180210E48FEF785
:10250000EBFB03E080210C48FEF7E8FB6006040EBD
:1025100000F014F840210848FEF7DEFB00F00EF84A
:1025200040210548FEF7DAFB281EA5F10101CDB2D6
:10253000E0D1FFF7A3FF70BD000C0140002000BFF9
:10254000011EA0F1010290B2FAD1704770B50446A5
:102550000D4600F065F8002141EA4401C8B2FFF7DA
:10256000C5FF2846FFF7C2FF00F05AF8012101EB32
:102570004401C8B2FFF7BAFF0020FFF747FF064645
:1025800000F066F8304670BD2DE9F04105460E4674
:1025900014461F4600F044F8002141EA4501C8B244
:1025A000FFF7A4FF3046FFF7A1FF00F039F8012143
:1025B00001EB4501C8B2FFF799FF04E00120FFF7E6
:1025C00025FF2070641C781EC0B2071EF6D1FFF7ED
:1025D0001DFF207000F03CF8BDE8F08110B5044606
:1025E00040210E48FEF77AFBFFF7A8FF24B18021B7
:1025F0000A48FEF773FB03E080210848FEF76CFBF6
:1026000040210648FEF768FBFFF798FF402103488A
:10261000FEF764FBFFF792FF10BD0000000C0140C5
:1026200010B580210948FEF757FB40210748FEF707
:1026300053FBFFF783FF80210448FEF74FFBFFF7B2
:102640007DFF40210148FEF749FB10BD000C014011
:1026500010B580210A48FEF741FB40210848FEF7EB
:102660003DFBFFF76BFF40210548FEF735FBFFF709
:1026700065FF80210248FEF72FFBFFF75FFF10BDCB
:10268000000C014070B504460D461646FFF7C8FF22
:10269000002141EA4401C8B2FFF728FF2846FFF7AE
:1026A00025FF3046FFF722FFFFF7D2FF70BD10B5C0
:1026B000FEF74DFFFEF716FBFEF704FAFEF7AAFB46
:1026C000FFF774FE4820FFF729F84FF4E130FFF7D9
:1026D000D3FC472140F2E730FFF790F810BD00002F
:1026E00070B5044600253648008835498988084475
:1026F000334909890844324989890844C0F387006D
:102700003049087084B900210846FEF729FC0021F1
:102710000120FEF725FC00210220FEF721FC00210C
:102720000320FEF71DFC49E0002C47D02648007826
:102730002449097808442449087000250CE069B24E
:102740002248007840B2FEF75FFD0646FDF7FBFE2B
:102750001F4941F825006D1C042DF0DB1C49086859
:10276000FDF70BFF06B231460020FEF7F9FB1849D2
:102770004868FDF702FF06B231460120FEF7F0FB84
:1027800013498868FDF7F9FE06B231460220FEF7CC
:10279000E7FB0F49C868FDF7F0FE06B2314603209B
:1027A000FEF7DEFB04EB440000EB841006490978D9
:1027B000884203DA002400200349087070BD00003D
:1027C000D40000202A0000203B0000202900002027
:1027D000E400002000404040404040404040414133
:1027E00041414140404040404040404040404040E6
:1027F0004040404040050202020202020202020280
:10280000020202020220202020202020202020027C
:10281000020202020202909090909090101010100C
:1028200010101010101010101010101010101010A8
:10283000020202020202888888888888080808083C
:102840000808080808080808080808080808080808
:102850000202020240000000D52700087C28000880
:1028600000000020D4000000E022000850290008E9
:10287000D4000020EC040000F0220008000000005A
:102880000102030401020304060708090204060802
:102890000101010100000000000000000000000034
:1028A0000000000000140000000000000000000014
:1028B0000000000000000000000000000000000018
:1028C0000000000000000000000000000000000008
:1028D00000000000000000000000000000000000F8
:1028E0000000000000000000000020400000000088
:1028F000000000400000000000003940000000001F
:102900000000204000000000000000400000000027
:1029100000003940000000000000204000000000DE
:1029200000000040000000000000394000000000EE
:1029300000002040000000000000004000000000F7
:10294000000039400000000000000000000000000E
:0400000508000131BD
:00000001FF
