:020000040800F2
:10000000F80400204901000869090008FF070008FA
:1000100003080008BF0400082716000800000000BD
:10002000000000000000000000000000390B000884
:10003000C304000800000000B50A0008E50C000831
:100040006301000863010008630100086301000800
:10005000630100086301000863010008C50400088B
:10006000E90400080D0500083105000863010008D7
:1000700063010008630100086301000863010008D0
:1000800063010008630100086301000863010008C0
:1000900063010008630100086301000863010008B0
:1000A00063010008630100086301000863010008A0
:1000B000490D00086301000863010008630100089E
:1000C0006301000863010008630100086301000880
:1000D000630100084115000863010008630100087E
:1000E0006301000863010008630100086301000860
:1000F0006301000863010008630100086301000850
:10010000630100086301000863010008630100083F
:10011000630100086301000863010008630100082F
:10012000630100086301000863010008630100081F
:10013000DFF810D000F092F9004800476916000877
:10014000AFF30080F80400200648804706480047C7
:10015000FEE7FEE7FEE7FEE7FEE7FEE7FEE7FEE777
:10016000FEE7FEE7E90C00083101000830B480EA40
:10017000010202F0004530F0004221F0004013D0AF
:1001800090B1C30DD40DC2F31601C0F31600E41AEA
:1001900041F4000140F400027D34914201D3641C1B
:1001A00000E04900002C02DA30BC002070474FF418
:1001B00000000023914201D3891A034340084FEA0B
:1001C0004101F7D151B1914202D14FF0004105E018
:1001D00002D24FF0010101E06FF0010103EBC450C6
:1001E000284430BC00F0A6B82DE9FE4F81EA030494
:1001F00004F0004421F0004100944FF0000B23F084
:10020000004350EA01045ED052EA03045BD0C3F31A
:100210000A54C1F30A552C44A4F2F3340194A0FB10
:100220000254C1F3130141F48011C3F3130343F4E7
:10023000801301FB024400FB034E840A970A44EA40
:10024000815447EA8357A4FB076802958D0A05FB92
:1002500007854FEA932C04FB0C542705029D4FEAB7
:10026000065847EA1637B5EB08056EEB070C870E04
:10027000920E47EA811742EA8312A7FB0201B6EB0E
:100280000B0164EB00042B0D43EA0C335E1844EBC6
:100290001C50DA465146E7FB0201C5F313044FEA4E
:1002A0000B3343EA14534FEA0432019C43EA06033A
:1002B000A4F10C040294009CCDE900B400F080F895
:1002C00003B0BDE8F08F00200146F9E79623002235
:1002D000114600F038B800F0004230F000400AD07B
:1002E000C10D01F56071C0F3160042EA0151C20868
:1002F00040071143704700200146704701F000435A
:1003000030B421F0004150EA010206D00A0DA2F5F6
:100310006072C1F31301002A02DC30BC0020704778
:10032000440F44EAC104C100E01830BC00EBC250E5
:10033000AFF300800029A8BF7047401C490008BFE8
:1003400020F00100704710B4B0FA80FC00FA0CF005
:1003500050EA010404BF10BC704749B1CCF120043D
:1003600021FA04F411FA0CF118BF012121430843CA
:10037000A3EB0C01CB1D4FEA00614FEA102042BFF6
:10038000002010BC704700EBC35010440029A4BFEC
:1003900010BC7047401C490008BF20F0010010BC91
:1003A000704710B5141E73F1000408DA401C41F1C7
:1003B000000192185B411A4301D120F0010010BDE9
:1003C0002DE9F04D92469B4611B1B1FA81F202E05F
:1003D000B0FA80F22032904600F052F804460F4600
:1003E00040EA0A0041EA0B0153465A46084313D03B
:1003F000114653EA010019D0C8F14002504600F0FE
:100400004EF805460E4650465946424600F038F82A
:10041000084305D0012004E020463946BDE8F08DB0
:100420000020054346EAE0762C4337430A986305EB
:10043000E40AA0EB08000022FD0A44EA47540A300F
:1004400002D500200146E9E7010510196941DDE9FF
:10045000084500196941BDE8F04DA2E7064C074D7B
:1004600006E0E06840F0010394E807009847103484
:10047000AC42F6D3FFF760FE001700082017000813
:10048000202A04DB203A00FA02F100207047914054
:10049000C2F1200320FA03F3194390407047202A49
:1004A00004DB203A21FA02F00021704721FA02F31E
:1004B000D040C2F12002914008431946704700BF66
:1004C000FEE7704710B5022000F04AF8012804D179
:1004D00004480068401C03490860022000F03AF814
:1004E00010BD00000C00002010B5042000F038F80A
:1004F000012804D104484068401C03494860042096
:1005000000F028F810BD00000C00002010B50820F5
:1005100000F026F8012804D104488068401C0349F3
:100520008860082000F016F810BD00000C000020C4
:1005300010B5102000F014F8012804D10448C06858
:10054000401C0349C860102000F004F810BD0000F2
:100550000C000020014908607047000014040140AD
:10056000014600200022074B1B6803EA0102054BED
:1005700014331B680B4013B10AB1012000E00020C6
:100580007047000000040140002123498279002ABD
:100590003AD00A46126803689A430B461A600A1D4D
:1005A000126803689A430B1D1A60027911440A68A5
:1005B00003681A430A60184A0832126803689A43AB
:1005C000154B08331A601A1D126803689A43124BC0
:1005D0000C331A604279102A0ED11A1F1268036870
:1005E0001A430D4B08331A601A1D126803681A4328
:1005F000094B0C331A600DE00749427911440A682F
:1006000003681A430A6005E0027911440A68036826
:100610009A430A607047000000040140002003492B
:10062000086048608860C860704700000C000020C7
:1006300008B50121042000F05FFA0121082000F034
:100640005BFAC020ADF8000018208DF803000320ED
:100650008DF802006946054800F042F80320ADF825
:1006600000006946024800F03BF808BD0008014060
:10067000000C014008B50121042000F03DFA1E20C5
:10068000ADF8000028208DF8030003208DF802004B
:100690006946024800F024F808BD00000008014047
:1006A00030B500228B071C0F0F2303FA04F20B4B0B
:1006B0008C1053F824309343084C8D1044F82530A7
:1006C00023468C1053F824308C07240F00FA04F4CE
:1006D0002343024C8D1044F8253030BD0800014002
:1006E0002DE9F041024600250026002000230024C9
:1006F000002791F803C00CF00F0591F803C00CF02F
:10070000100CBCF1000F03D091F802C04CEA0505B3
:1007100091F800C0BCF1000F31D0146800202BE02C
:100720004FF0010C0CFA00F3B1F800C00CEA03061C
:100730009E4220D183004FF00F0C0CFA03F7BC430C
:1007400005FA03FC4CEA040491F803C0BCF1280F3D
:1007500006D14FF0010C0CFA00FCC2F814C00AE0FC
:1007600091F803C0BCF1480F05D14FF0010C0CFA11
:1007700000FCC2F810C0401C0828D1D31460B1F8A6
:1007800000C0BCF1FF0F34DD546800202EE000F102
:10079000080C4FF0010808FA0CF3B1F800C00CEA9D
:1007A00003069E4221D183004FF00F0C0CFA03F791
:1007B000BC4305FA03FC4CEA040491F803C0BCF105
:1007C000280F05D100F1080C08FA0CF8C2F81480C3
:1007D00091F803C0BCF1480F07D100F1080C4FF0AD
:1007E000010808FA0CF8C2F81080401C0828CED383
:1007F0005460BDE8F081416170470161704700BFFE
:10080000FEE700BFFEE7000008B50121202000F050
:1008100073F90F20ADF8000010208DF803000320BD
:100820008DF8020069461548FFF75AFF0F2113485B
:10083000FFF7E1FF00F0EEF80121002000F020F8C2
:100840000121084600F01CF80121022000F018F8F0
:100850000121032000F014F80021084600F062F89E
:100860000021012000F05EF80021022000F05AF87B
:100870000021032000F056F808BD000000140140DC
:1008800070B505460C46032D01DC002D00DA70BD65
:100890002148445535B1012D10D0022D1AD0032D19
:1008A00030D123E01CB901211C48FFF7A6FF012C21
:1008B00003D101211948FFF79EFF24E01CB9022152
:1008C0001648FFF79AFF012C03D102211348FFF7C6
:1008D00092FF18E01CB904211048FFF78EFF012C8D
:1008E00003D104210D48FFF786FF0CE01CB9082155
:1008F0000A48FFF782FF012C03D108210748FFF7C0
:100900007AFF00E000BF00BF0548415D284600F0C7
:1009100009F800BFBBE70000000000200014014000
:100920000400002070B504460D46002C15DB032C96
:1009300013DC0B490D550B48005D012803D12946F6
:10094000601C00F07DF80748005D38B9C5F164000F
:1009500081B2601C00F074F800E070BD00BFFCE7DD
:100960000400002000000020704708B54FF4A0608C
:1009700000F046F81C208DF8000000208DF80200E1
:1009800001208DF80300684600F002F808BD000061
:1009900070B5002100230F22C47804B3154C2468DD
:1009A00004F4E064C4F5E064210AC1F10403CA4020
:1009B000447804FA03F184781440214309010E4C71
:1009C0000678A155047804F01F050124AC40057891
:1009D0006D11AD0005F1E025C5F8004109E004788E
:1009E00004F01F050124AC40044D0678761145F84B
:1009F000264070BD0CED00E000E400E080E100E086
:100A000002490143024A1160704700000000FA05E4
:100A10000CED00E010B5FFF70BFE00F073FA0021BB
:100A2000012000F00DF80021022000F009F800215B
:100A3000032000F005F80021042000F001F810BDAB
:100A400070B505460C4604EB84004FF6FF7101EAD1
:100A50004004B4F57A7F02DD4FF47A7000E020465E
:100A60000446002C01DA002000E020460446012D57
:100A700006D0022D09D0032D0CD0042D14D10EE088
:100A800021460B4800F001FD0FE02146084800F028
:100A9000FEFC0AE02146064800F0FBFC05E021468A
:100AA000034800F0F8FC00E000BF00BF70BD00008C
:100AB000000400407047000029B1064AD269024391
:100AC000044BDA6104E0034AD2698243014BDA61E4
:100AD000704700000010024029B1064A1269024323
:100AE000044B1A6104E0034A12698243014B1A6104
:100AF000704700000010024029B1064A9269024383
:100B0000044B9A6104E0034A92698243014B9A6163
:100B1000704700000010024029B1064AD268024323
:100B2000044BDA6004E0034AD2688243014BDA6086
:100B3000704700000010024070470EB5FFF79AFDA5
:100B400001210846FFF7D8FF01210020FFF7A8FD8B
:100B500002210020FFF7A4FD03210020FFF7A0FDE4
:100B600004210020FFF79CFD08208DF808000120DB
:100B70008DF8090002208DF80A0001208DF80B0085
:100B800002A8FFF705FF09208DF8080001208DF865
:100B9000090003208DF80A0001208DF80B0002A83F
:100BA000FFF7F6FE0A208DF8080001208DF80900F5
:100BB00004208DF80A0001208DF80B0002A8FFF731
:100BC000E7FE07208DF8080001208DF809008DF858
:100BD0000A008DF80B0002A8FFF7DAFE1E20009035
:100BE00000208DF8040008208DF8050001208DF804
:100BF00006006846FFF7C8FC0EBD10B500F002F80D
:100C000010BD00000CB50020019000903348006832
:100C100040F480303149086000BF3048006800F47B
:100C2000003000900198401C0190009818B901987C
:100C3000B0F5A06FF1D12948006800F4003010B180
:100C40000120009001E0002000900098012843D18D
:100C50002348006840F010002149086008460068F9
:100C600020F0030008600846006840F002000860B9
:100C70001A48406819494860084640684860084674
:100C8000406840F4806048600846406820F47C106A
:100C900048600846406840F4E8104860084600682C
:100CA00040F08070086000BF0C48006800F00070E1
:100CB0000028F9D00948406820F00300074948603F
:100CC0000846406840F00200486000BF03484068A2
:100CD00000F00C000828F9D10CBD00000010024003
:100CE000002002407047000010B51348006840F033
:100CF00001001149086008464068104908400E4943
:100D00004860084600680E4908400B4908600846DC
:100D1000006820F4802008600846406820F4FE0047
:100D200048604FF41F008860FFF767FF4FF00060D6
:100D30000449086010BD0000001002400000FFF8E8
:100D4000FFFFF6FE08ED00E02DE9FC5F01218807BA
:100D500000F026FA01287DD10121800700F01CF95E
:100D60004F480088401C4E49088008460088B0F56E
:100D70007A7F6FDB002008804A480068FFF7ABFAF3
:100D800006460F4648490868FFF7A0FA0090474812
:100D900001680098FFF7EAF90190FFF79CFA824694
:100DA000434A444BFFF720FA804632463B46FFF762
:100DB0001BFA0446FFF7A2FA3F4908603948006869
:100DC000FFF789FA04460D4637494868FFF77EFA6F
:100DD0000090364801680098FFF7C8F90190FFF7C6
:100DE0007AFA8046324A334BFFF7FEF9064622462E
:100DF0002B46FFF7F9F98246FFF780FA2E49486043
:100E000028480068FFF767FA04460D4626498868B7
:100E1000FFF75CFA8346254801685846FFF7A6F9B4
:100E20008246FFF758FA8046214A224BFFF7DCF949
:100E3000064622462B46FFF7D7F9CDE90001FFF71A
:100E40005DFA1D49886017480068FFF744FA0446B8
:100E50000D4600E021E01449C868FFF737FA00901A
:100E6000124801680098FFF781F90190FFF733FA03
:100E700006460F4A0F4BFFF7B7F9804622462B462E
:100E8000FFF7B2F98246FFF739FA0B49C860002034
:100E90000549086048608860C860BDE8FC9F0000A4
:100EA00008000020F81600080C000020FC160008BE
:100EB0001F85EB51B81E09401C0000203EB50546B9
:100EC0000C4601210846FFF7F7FD4FF0804000F087
:100ED00073F8ADF80450ADF800400020ADF8020002
:100EE00069464FF0804000F0D9FA01221146900780
:100EF00000F067F90121880700F051F8FFF735FD90
:100F00003EBD000000B587B001210220FFF7D4FDEF
:100F100040F2E730ADF814004720ADF81000002093
:100F2000ADF81600ADF8120004A91A4800F0B6FAA0
:100F30006020ADF800000120ADF802003220ADF8CD
:100F400006000020ADF808006946124800F042F99A
:100F50000821104800F08AF969460E4800F090F91F
:100F600008210C4800F0DEF969460A4800F0E8F96B
:100F70000821084800F034FA6946064800F03AFAB9
:100F80000821044800F074FA0121024800F007F833
:100F900007B000BD00040040CA430282704721B17F
:100FA000028842F00102028004E002884FF6FE73DC
:100FB0001A4002807047000010B504466848844219
:100FC00008D10121C014FFF7A7FD0021E014FFF7AD
:100FD000A3FDC4E0B4F1804F08D101210846FFF71A
:100FE0007BFD00210120FFF777FDB8E05D488442DA
:100FF00008D101210220FFF76FFD00210220FFF739
:101000006BFDACE05848844208D101210420FFF771
:1010100063FD00210420FFF75FFDA0E053488442F8
:1010200008D101210820FFF757FD00210820FFF714
:1010300053FD94E04E48844208D101211020FFF76F
:101040004BFD00211020FFF747FD88E0494884420E
:1010500008D101212020FFF73FFD00212020FFF7CC
:101060003BFD7CE04448844208D101214014FFF755
:1010700053FD00216014FFF74FFD70E03F488442AC
:1010800009D10121C804FFF747FD00214FF40020DA
:10109000FFF742FD63E03A48844209D10121080587
:1010A000FFF73AFD00214FF48010FFF735FD56E0C1
:1010B0003448844209D101214805FFF72DFD002164
:1010C0004FF40010FFF728FD49E02F48844208D173
:1010D00001214020FFF700FD00214020FFF7FCFC2C
:1010E0003DE02A48844208D101218020FFF7F4FC2A
:1010F00000218020FFF7F0FC31E02548844208D130
:1011000001218015FFF7E8FC0021A015FFF7E4FCA2
:1011100025E02048844209D101210804FFF7FCFCA6
:1011200000214FF48030FFF7F7FC18E01A488442A2
:1011300009D101214804FFF7EFFC00214FF40030F2
:10114000FFF7EAFC0BE01548844208D1012188042E
:10115000FFF7E2FC00214FF48020FFF7DDFC10BD1B
:10116000002C01400004004000080040000C00403A
:10117000001000400014004000340140004C0140C9
:10118000005001400054014000180040001C004085
:101190000020004000400140004401400048014060
:1011A00030B50246002000230024158A05EA010319
:1011B000958905EA010413B10CB1012000E000207B
:1011C00030BD1AB183890B43838102E083898B434D
:1011D0008381704770B5002400220023058C4FF6F0
:1011E000FE7635400584028C8388048B4FF68F751C
:1011F0002C40B51E2C400D882C43751E2A400D89AD
:101200002A434D882A43144DA8420BD0134DA842BF
:1012100008D0134DA84205D0124DA84202D0124D5D
:10122000A84213D14FF6F7752A404D892A434FF64D
:10123000FB752A408D882A434FF6FF652B404FF6F9
:10124000FF552B408D892B43CD892B43838004830D
:10125000CD888586028470BD002C01400034014099
:101260000040014000440140004801400A4600217E
:10127000018B4FF6F773194011430183704700004B
:1012800070B5002400220023058C4FF6EF76354020
:101290000584028C8388048B48F6FF752C404FF63A
:1012A000FF452C400D884FF6FF7606EA05252C43B6
:1012B0004FF6DF752A400D8906EA05152A434D8849
:1012C00006EA05152A43154DA84202D0144DA8423E
:1012D0001DD14FF67F752A404D894FF6FF7606EAFD
:1012E00005152A434FF6BF752A408D8806EA051575
:1012F0002A434FF6FF352B404FF2FF752B408D8967
:1013000006EA85052B43CD8906EA85052B438380B4
:101310000483CD880587028470BD0000002C014045
:10132000003401400A460021018B4FF2FF7319403F
:101330004FF6FF7303EA022319430183704700004D
:1013400070B5002400220023058C4FF6FF6635405F
:101350000584028C8388848B4FF68F752C404FF662
:10136000FC752C400D882C434FF6FF552A400D8903
:101370004FF6FF7606EA05252A434D8806EA05253D
:101380002A43154DA84202D0144DA8421DD14FF258
:10139000FF752A404D894FF6FF7606EA05252A4358
:1013A0004FF6FF352A408D8806EA05252A434EF67A
:1013B000FF752B404DF6FF752B408D8906EA05150C
:1013C0002B43CD8906EA05152B4383808483CD8882
:1013D0008587028470BD0000002C0140003401406C
:1013E0000A460021818B4FF6F77319401143818320
:1013F0007047000070B5002200230024058C4EF6D3
:10140000FF7635400584038C8488828B48F6FF750F
:101410002A404FF6FF452A400D884FF6FF7606EA30
:1014200005252A434DF6FF752B400D8906EA053543
:101430002B434D8806EA05352B430B4DA84202D0BD
:101440000A4DA84208D14BF6FF752C408D894FF606
:10145000FF7606EA85152C4384808283CD88A0F828
:101460004050038470BD0000002C01400034014056
:101470000A460021818B4FF2FF7319404FF6FF732C
:1014800003EA0223194381837047818670470187ED
:10149000704781877047A0F840107047002202888B
:1014A0001D4B98420ED01D4B98420BD0B0F1804F8F
:1014B00008D01B4B984205D01A4B984202D01A4BC9
:1014C000984204D14FF68F731A404B881A43174B3A
:1014D000984207D0164B984204D04FF6FF431A406B
:1014E000CB881A4302808B8883850B8803850A4B3F
:1014F00098420BD0094B984208D00E4B984205D029
:101500000D4B984202D00D4B984201D10B7A0386C5
:101510000123838270470000002C01400034014009
:101520000004004000080040000C00400010004093
:1015300000140040004001400044014000480140C8
:1015400010B540F225511D4800F03EF810B31B487D
:1015500000F064F8C4B21A48008800F40040C8B92A
:101560001748008800F4804060B10A2C03D00020A6
:101570001349088020E01248008840F400401049D8
:10158000088019E00D2C06D10D48008840F48040F9
:101590000B49088010E00A480088C0F30D00094993
:1015A0000C5407480088401C0549088008460088FC
:1015B000C72801DD0020088010BD00000038014070
:1015C0000A0000202C00002070B5024600240023F1
:1015D0000025002040F66A16B14200D100BFC1F3D9
:1015E000421501F01F03012606FA03F3012D02D173
:1015F0009689334006E0022D02D1168A334001E07D
:10160000968A33400C12012606FA04F416883440F8
:1016100013B10CB1012000E0002070BD01468888A4
:10162000C0F30800704700BFFEE702E008C8121FC1
:1016300008C1002AFAD170477047002001E001C1BB
:10164000121F002AFBD1704706E0064900BF0A1EA0
:10165000A1F10101FBD100BF011EA0F10100F4D1F5
:101660007047000040190100FFF7CEF8FFF765FA58
:10167000472140F2E730FFF721FCFEF7CFFF3AE0C9
:1016800050210020FFF74EF950210120FFF74AF9C1
:1016900050210220FFF746F950210320FFF742F9BD
:1016A0000A20FFF7D1FF01210020FFF7E9F8002110
:1016B0000120FFF7E5F801210220FFF7E1F8002102
:1016C0000320FFF7DDF80A20FFF7BEFF32210020DC
:1016D000FFF728F90A20FFF7B7FF14210120FFF7D1
:1016E00021F90A20FFF7B0FF01210846FFF7C8F8EB
:1016F0000A20FFF7A9FFC3E78FC2753D0000A04194
:1017000020170008000000200C0000002A16000826
:101710002C1700080C000020EC0400003A1600080A
:0C172000010101010000000000000000B9
:0400000508000131BD
:00000001FF
