:020000040800F2
:10000000D0050020490100084D170008110F000815
:1000100071120008EB0900080F2C00080000000016
:10002000000000000000000000000000051B0008A8
:10003000EF0900080000000099190008D91C000809
:100040006301000863010008630100086301000800
:10005000630100086301000863010008F10900085A
:10006000410A0008910A0008E10A0008630100083B
:1000700063010008630100086301000863010008D0
:1000800063010008630100086301000863010008C0
:1000900063010008630100086301000863010008B0
:1000A00063010008630100086301000863010008A0
:1000B000A91D00086301000863010008630100082E
:1000C0006301000863010008630100086301000880
:1000D000630100082D29000863010008630100087E
:1000E0006301000863010008630100086301000860
:1000F0006301000863010008630100086301000850
:10010000630100086301000863010008630100083F
:10011000630100086301000863010008630100082F
:10012000630100086301000863010008630100081F
:10013000DFF810D000F0E6FB00480047892C0008EB
:10014000AFF30080D00500200648804706480047EE
:10015000FEE7FEE7FEE7FEE7FEE7FEE7FEE7FEE777
:10016000FEE7FEE7191D00083101000870B50646DC
:1001700002F050FD046805460A220021304600F0D6
:10018000F4FA2C6070BDF0B480EA0102D40F420092
:10019000B2EB410F02D20246084611464A0042D055
:1001A000C30DDDB2C1F3C752AD1A202D35DAC1F34C
:1001B000160141F4000204B15242C5F1200602FAD0
:1001C00006F12A411044B3EBD05F23D0C4B1012D16
:1001D000A0EBC35009DCF0BC4FF0004202EAC3526E
:1001E000DBB200F5000000F001BB400000F18070C0
:1001F00000EBC350A0F1807040EAD170490009E0E3
:10020000490841EAC071A0EBC35000F50000400866
:1002100000EBC350F0BC00F0E0BA6142012202EBF7
:100220004101001BF6E7F0BC704781F00041AAE7EE
:1002300080F00040A7E730B480EA010202F00045F8
:1002400030F0004221F0004013D090B1C30DD40D26
:10025000C2F31601C0F31600E41A41F4000140F4A1
:1002600000027D34914201D3641C00E04900002C5F
:1002700002DA30BC002070474FF4000000239142A6
:1002800001D3891A034340084FEA4101F7D151B124
:10029000914202D14FF0004105E002D24FF001013E
:1002A00001E06FF0010103EBC450284430BC00F0C2
:1002B00094BA2DE9FE4F804681EA0300C00F0C4638
:1002C000009021F0004123F00045B8EB0200A94165
:1002D00005D24046214690461C460B46024623F076
:1002E0000040104347D0270DC7F30A00C3F30A515B
:1002F0000290401A019040286BDAC3F3130040F4D7
:10030000801B0098924620B10023D2EB030A63EBD6
:100310000B0B01985946C0F14002504600F0F4F929
:1003200006460D4650465946019A00F00CFA10EB6D
:1003300008006141002487EA115284EAE7731A43F6
:1003400040D0009A62B3019A012A4FEA075215DCA5
:10035000001B61EB02014FF0004202EA0752CDE9B7
:100360000042001C41F5801132462B4600F07BFA1A
:1003700003B0BDE8F08F40462146F9E7001B61EB72
:100380000201001C41F5801300185B412018A2F502
:10039000001747EB030140EAD570B6196D4111E033
:1003A0006D084FEA360645EAC0754FEA0752001B52
:1003B00061EB0201001C41F5801149084FEA300051
:1003C0000019514132462B4603B0BDE8F04F00F012
:1003D0003BBA0098012240000023D0EB020263EBFD
:1003E000E073009821464FEAE074B8EB000061EB3F
:1003F0000401E9E783F000435BE781F0004158E73F
:100400002DE9FE4F81EA030404F0004421F000418D
:1004100000944FF0000B23F0004350EA01045ED03B
:1004200052EA03045BD0C3F30A54C1F30A552C44C7
:10043000A4F2F3340194A0FB0254C1F3130141F47C
:100440008011C3F3130343F4801301FB024400FB48
:10045000034E840A970A44EA815447EA8357A4FB6F
:10046000076802958D0A05FB07854FEA932C04FB6C
:100470000C542705029D4FEA065847EA1637B5EB9C
:1004800008056EEB070C870E920E47EA811742EAC9
:100490008312A7FB0201B6EB0B0164EB00042B0DEA
:1004A00043EA0C335E1844EB1C50DA465146E7FB36
:1004B0000201C5F313044FEA0B3343EA14534FEA26
:1004C0000432019C43EA0603A4F10C040294009C4C
:1004D000CDE900B400F0C7F903B0BDE8F08F00200B
:1004E0000146F9E72DE9F04D81EA030404F0004BE1
:1004F00021F0004514464FF0000A23F0004150EA75
:10050000050220D054EA01021DD0C5F30A57024665
:10051000C5F31303C1F31300C1F30A5640F4801569
:1005200043F48013A7EB0608101BD64608F2FD38EB
:1005300073EB050002D308F1010801E092185B415A
:10054000B8F1000F03DA00200146BDE8F08D00206D
:100550004FF48011064684460EE0171B73EB050727
:1005600005D3121B63EB050306434CEA010C490853
:100570004FEA300092185B4150EA0107EDD152EA90
:10058000030012D082EA040083EA0501084305D083
:10059000101BAB4106D20122002306E000224FF0DF
:1005A000004302E06FF0010253101AEB06004CEB1F
:1005B000085110EB0A0041EB0B01BDE8F04D00F0D3
:1005C00043B9C10F80EAE0700844CA0796230021AE
:1005D00000F00CB90EB5C10F80EAE0700844CA07FC
:1005E000002140F233438DE80E000A460B4600F02E
:1005F0003AF903B000BD0EB540F23341029100213B
:10060000CDE900110A460B4600F02DF903B000BDFC
:1006100070B5C1F30A5201F000450024C1F3130183
:1006200040F2FF3341F480119A4201DA002070BD9C
:1006300040F233439A42A2F2334203DC524200F0CA
:1006400072F800E090402C43F1D0404270BDC1F3FD
:100650000A5210B5C1F3130140F2FF3341F4801187
:100660009A4201DA002010BD40F233439A42A2F2CE
:10067000334203DC524200F056F810BD904010BDEA
:1006800000F0004230F000400AD0C10D01F5607169
:10069000C0F3160042EA0151C208400711437047F7
:1006A00000200146704701F0004330B421F00041C2
:1006B00050EA010206D00A0DA2F56072C1F31301DF
:1006C000002A02DC30BC00207047440F44EAC10419
:1006D000C100E01830BC00EBC25000F07EB8000052
:1006E000002801DBC0F10040002901DBC1F100411D
:1006F00081427047002801DBC0F10040002901DB86
:10070000C1F1004188427047202A04DB203A00FAF8
:1007100002F1002070479140C2F1200320FA03F358
:10072000194390407047202A04DB203A21FA02F056
:100730000021704721FA02F3D040C2F1200291401B
:10074000084319467047202A06DBCB17203A41FAA6
:1007500002F043EAE07306E041FA02F3D040C2F14E
:10076000200291400843194670472DE9F047914611
:100770000F4680460446002614F8015B2DB100F0B8
:10078000D3F80068405DC007F6D12B2D02D02D2D87
:1007900018D0641E4A463946204600F0C9F827B1F1
:1007A0003968A14201D1C7F8008071054FF00204F9
:1007B0000BD54042002803DD02F02CFA0460A007AC
:1007C000BDE8F08746F48066E4E70028F8DA02F036
:1007D00021FA04606FF00040F2E70029A8BF7047DB
:1007E000401C490008BF20F00100704710B4B0FA67
:1007F00080FC00FA0CF050EA010404BF10BC704702
:1008000049B1CCF1200421FA04F411FA0CF118BF1B
:10081000012121430843A3EB0C01CB1D4FEA0061EA
:100820004FEA102042BF002010BC704700EBC350BD
:1008300010440029A4BF10BC7047401C490008BFE9
:1008400020F0010010BC704710B5141E73F10004B5
:1008500008DA401C41F1000192185B411A4301D1B2
:1008600020F0010010BD2DE9F04D92469B4611B1DC
:10087000B1FA81F202E0B0FA80F220329046FFF73E
:1008800043FF04460F4640EA0A0041EA0B01534683
:100890005A46084313D0114653EA010019D0C8F153
:1008A00040025046FFF73FFF05460E465046594668
:1008B0004246FFF729FF084305D0012004E0204607
:1008C0003946BDE8F08D0020054346EAE0762C432A
:1008D00037430A986305E40AA0EB08000022FD0AEA
:1008E00044EA47540A3002D500200146E9E70105F1
:1008F00010196941DDE9084500196941BDE8F04D6D
:10090000A2E70000064C074D06E0E06840F0010356
:1009100094E8070098471034AC42F6D3FFF70CFC7C
:100920008C2F0008AC2F000800487047882F000863
:100930002DE9F05F82460078002715468B460AF1C4
:100940000104B946302801D09DB113E014F8010B21
:100950000127782803D0582801D045B10AE00DB10D
:10096000102D07D10027102514F8010B02E00825EF
:1009700000E00A250026B0460EE005FB080005FB56
:1009800006F1012701EB10461FFA80F8B6F5803F0B
:1009900000D3B94614F8010B294600F018F80028D6
:1009A000EBDABBF1000F05D00FB1641E00E0544636
:1009B000CBF80040B9F1000F06D002F02BF902216C
:1009C0000160C81EBDE8F09F48EA0640FAE73A28F1
:1009D00000D2303820F02002412A01D3A2F13700A2
:1009E000884201D34FF0FF30704700BFFEE77047E9
:1009F00010B5022000F0A2F8012819D102210D48FB
:100A000000F072FA40B90C480078042804D10B4871
:100A10000088401C094908800848008842F20F718C
:100A2000884202DD002005490880022000F080F89D
:100A300010BD0000000801405800002014000020F4
:100A400010B5042000F07AF8012819D104210D48CE
:100A500000F04AFA40B90C480078042804D10B4849
:100A60004088401C094948800848408842F20F717C
:100A7000884202DD002005494880042000F058F833
:100A800010BD0000000801405800002014000020A4
:100A900010B5082000F052F8012819D108210D489E
:100AA00000F022FA40B90C480078042804D10B4821
:100AB0008088401C094988800848808842F20F716C
:100AC000884202DD002005498880082000F030F8C7
:100AD00010BD000000080140580000201400002054
:100AE00010B5102000F02AF8012819D110210D4866
:100AF00000F0FAF940B90C480078042804D10B48FA
:100B0000C088401C0949C8800848C08842F20F715B
:100B1000884202DD00200549C880102000F008F856
:100B200010BD000000080140580000201400002003
:100B3000014908607047000014040140014600208C
:100B40000022074B1B6803EA0102054B14331B68A4
:100B50000B4013B10AB1012000E0002070470000F3
:100B600000040140002123498279002A3AD00A4634
:100B7000126803689A430B461A600A1D12680368DC
:100B80009A430B1D1A60027911440A6803681A43DC
:100B90000A60184A0832126803689A43154B0833F2
:100BA0001A601A1D126803689A43124B0C331A60BC
:100BB0004279102A0ED11A1F126803681A430D4B8E
:100BC00008331A601A1D126803681A43094B0C3364
:100BD0001A600DE00749427911440A6803681A4314
:100BE0000A6005E0027911440A6803689A430A60C2
:100BF000704700000004014000200349088048803D
:100C00008880C880704700001400002008B50121CA
:100C1000042000F0E3FE1E20ADF8000048208DF80F
:100C2000030003208DF802006946054800F064F8CF
:100C300000200449088048808880C88008BD0000E2
:100C4000000801401400002008B50121042000F034
:100C5000C5FE0121082000F0C1FEC020ADF8000053
:100C600018208DF8030003208DF80200694605481E
:100C700000F042F80320ADF800006946024800F099
:100C80003BF808BD00080140000C014008B50121F7
:100C9000042000F0A3FE1E20ADF8000028208DF8EF
:100CA000030003208DF802006946024800F024F892
:100CB00008BD00000008014030B500228B071C0F62
:100CC0000F2303FA04F20B4B8C1053F82430934398
:100CD000084C8D1044F8253023468C1053F82430EE
:100CE0008C07240F00FA04F42343024C8D1044F8BF
:100CF000253030BD080001402DE9F04102460025B5
:100D00000026002000230024002791F803C00CF0E7
:100D10000F0591F803C00CF0100CBCF1000F03D0CC
:100D200091F802C04CEA050591F800C0BCF1000F33
:100D300031D0146800202BE04FF0010C0CFA00F3C6
:100D4000B1F800C00CEA03069E4220D183004FF0A8
:100D50000F0C0CFA03F7BC4305FA03FC4CEA04043D
:100D600091F803C0BCF1280F06D14FF0010C0CFA2A
:100D700000FCC2F814C00AE091F803C0BCF1480FAF
:100D800005D14FF0010C0CFA00FCC2F810C0401C59
:100D90000828D1D31460B1F800C0BCF1FF0F34DDD6
:100DA000546800202EE000F1080C4FF0010808FA0A
:100DB0000CF3B1F800C00CEA03069E4221D1830077
:100DC0004FF00F0C0CFA03F7BC4305FA03FC4CEA96
:100DD000040491F803C0BCF1280F05D100F1080C00
:100DE00008FA0CF8C2F8148091F803C0BCF1480F5F
:100DF00007D100F1080C4FF0010808FA0CF8C2F80E
:100E00001080401C0828CED35460BDE8F08100005B
:100E100008B50121102000F0E1FD0121082000F0BB
:100E2000DDFD4FF48070ADF8000010208DF8030058
:100E300003208DF8020069462948FFF75DFF4FF453
:100E40000070ADF8000069462548FFF755FF4FF4E4
:100E50008060ADF8000069462148FFF74DFF4FF470
:100E60008070ADF8000069461E48FFF745FF4FF45B
:100E70000070ADF8000069461A48FFF73DFF4FF4D7
:100E80008060ADF8000069461648FFF735FF4FF463
:100E90000060ADF8000069461248FFF72DFF4FF4DF
:100EA0008050ADF8000069460E48FFF725FF4FF46B
:100EB0000050ADF8000069460A48FFF71DFF4FF4E7
:100EC0008040ADF8000069460648FFF715FF4FF473
:100ED0000040ADF8000069460248FFF70DFF08BD6D
:100EE00000100140000C01400246002093680B40B6
:100EF0000BB1012000E000207047416170470161A3
:100F00007047C16070470AB1016100E041617047FC
:100F100000BFFEE700BF011EA0F10100FBD170473A
:100F200010B5FFF775FF0C2000F00EF83C2000F024
:100F30000BF8062000F008F8012000F005F80F205B
:100F400000F002F810BD000010B504464FF48061B7
:100F50001148FFF7D2FF4FF480710F48FFF7CDFF24
:100F60004FF400710C48FFF7C8FF21020B48FFF750
:100F7000C8FF4FF6FF70FFF7CDFF4FF480610648C2
:100F8000FFF7BDFF4FF6FF70FFF7C4FF4FF480611E
:100F90000148FFF7B2FF10BD00100140000C0140F6
:100FA00008B50121482000F019FD2020ADF800000F
:100FB00010208DF8030003208DF8020069460948CF
:100FC000FFF79AFE20210748FFF799FF2020ADF890
:100FD000000069460448FFF78FFE20210248FFF712
:100FE0008EFF08BD000C0140001801402DE9F05FA4
:100FF00006460F4690469946DDE90AAB3B2000F0D5
:1010000067F804463C2000F063F8054645EA0420F2
:1010100000B230803D2000F05BF804463E2000F036
:1010200057F8054645EA042000B238803F2000F01A
:101030004FF80446402000F04BF8054645EA0420EE
:1010400000B2A8F80000432000F042F80446442013
:1010500000F03EF8054645EA042000B2A9F8000079
:10106000452000F035F80446462000F031F80546EA
:1010700045EA042000B2AAF80000472000F028F852
:101080000446482000F024F8054645EA042000B252
:10109000ABF80000BDE8F09F10B500F0AFFA0121F9
:1010A0006B2000F034F800216C2000F030F80921AA
:1010B000192000F02CF806211A2000F028F8182139
:1010C0001B2000F024F818211C2000F020F810BD8F
:1010D00070B5044600F004FBD02000F0ECFA00F0FC
:1010E000B5FA204600F0E7FA00F0B0FA00F0F8FA9E
:1010F000D12000F0E0FA00F0A9FA00F0B6FA0546B7
:10110000012000F0CCFA00F0F9FA284670BD70B565
:1011100005460C4600F0E4FAD02000F0CCFA00F0CE
:1011200095FA284600F0C7FA00F090FA204600F041
:10113000C2FA00F08BFA00F0E1FA70BD7CB5002431
:1011400000BF20E015481649164B174ACDE900109C
:1011500016491748FFF74AFF1048B0F90000FFF79B
:1011600030FA0546134801682846FFF70CF8114984
:1011700008601148006808B9012000E000200E490D
:101180000860601CC4B20A2CDCDB0C49094800680A
:10119000FFF751F8074908607CBD000056000020A9
:1011A0005400002052000020500000204E0000207B
:1011B0004C00002048000020940123420000204100
:1011C0002DE9F05F2148B0F90000FFF7FAF9204956
:1011D0000860084600681F4908601C48B0F9000014
:1011E000FFF7EFF981461C4801684846FFF71DF8F4
:1011F0000446FFF745FA07464FF06632174BFFF7F4
:1012000071F90546FFF74FFA114908601148006867
:10121000FFF736FA0646124A124BFFF7F1F88246FC
:101220008B460B480068FFF72BFA06460E4A0F4B19
:10123000FFF7E6F8804652465B46FFF73AF8044669
:10124000FFF731FA02490860BDE8F09F5600002020
:101250006C000020680000204800002066663040D6
:101260009A9999999999B93FCDCCCCCCCCCCEC3FFB
:1012700000BFFEE710B5044616490978154A5278B2
:101280001144144A92781144124AD2788818C1172E
:1012900000EB9171C1F387010F4A117061B20F48E1
:1012A000007840B200F0AAFA0D4908550846005DE2
:1012B000002804DD012160B200F050F803E00021B5
:1012C00060B200F04BF80648015D60B200F0ACF887
:1012D00010BD00001C0000205D0000205B0000200D
:1012E0005E00002008B50121202000F077FBFF20E0
:1012F000ADF8000010208DF8030003208DF80200E7
:1013000069461548FFF7F8FCFF211348FFF7F5FD84
:1013100000F0FCFA0121002000F020F8012108462D
:1013200000F01CF80121022000F018F80121032030
:1013300000F014F80021084600F076F800210120A2
:1013400000F072F80021022000F06EF80021032066
:1013500000F06AF808BD00000014014070B50546B1
:101360000C46032D01DC002D00DA70BD35B1012DD6
:1013700018D0022D2AD0032D50D13BE03CB90221D8
:101380002848FFF7BCFD01212648FFF7B6FD012CD8
:1013900007D101212348FFF7B2FD02212148FFF7C1
:1013A000ACFD3CE03CB908211E48FFF7A8FD042134
:1013B0001C48FFF7A2FD012C07D108211948FFF7AF
:1013C0009CFD04211748FFF79AFD28E03CB9202135
:1013D0001448FFF794FD10211248FFF78EFD012CF1
:1013E00007D120210F48FFF788FD10210D48FFF796
:1013F00086FD14E03CB980210A48FFF780FD4021BA
:101400000848FFF77AFD012C07D180210548FFF736
:1014100074FD40210348FFF772FD00E000BF00BFEC
:1014200000BFA2E70014014070B504460D46002C31
:1014300005DB032C03DCA0B2294600F07DFA70BD69
:1014400010B500210846FFF789FF00210120FFF7B2
:1014500085FF00210220FFF781FF00210320FFF715
:101460007DFF10BD10B501210020FFF777FF01219E
:101470000846FFF773FF01210220FFF76FFF0121EC
:101480000320FFF76BFF10BD30B585B000250024A9
:10149000002004905148008800F40040002841D00A
:1014A000002000900190029003904C48057800BF06
:1014B00004E04B48005D2DF81400641CAC42F8DBDE
:1014C000BDF800004E2803D100204649087016E000
:1014D000BDF80000532803D10120424908700EE0F6
:1014E000BDF80000572803D102203E49087006E0ED
:1014F000BDF80000452802D103203A4908700024B5
:1015000005E0601C1DF8100004A90855641C022C9D
:10151000F7DB04A8FEF72AFE3349088000202F4994
:10152000088000BF2F480078062852D2DFE800F07C
:1015300003101D283336FFF75FFB00F0D9FAFFF7E1
:1015400091FF00202949087004202649087041E0D5
:10155000FFF752FB00F0CCFAFFF772FF012023499E
:10156000087004201F49087034E0FFF745FB00F0C5
:10157000BFFA02201D49087001201D49087029E0AA
:10158000FFF73AFB00F0B4FA032018490870022074
:10159000174908701EE001F099FB1BE00021084686
:1015A000FFF742FF00210120FFF73EFF002102204C
:1015B000FFF73AFF00210320FFF736FF00200D4917
:1015C0000870FFF719FB00F093FA00200A49086041
:1015D00000E000BF00BF05B030BD0000FC000020EF
:1015E0000401002058000020700000205900002055
:1015F000720000205D0000206400002008B5012179
:10160000082000F0EBF914208DF80300C020ADF89D
:10161000000003208DF8020069460448FFF76CFBC8
:10162000C0210248FFF76BFC08BD0000000C014020
:1016300010B580210448FFF757FC04460A2001F04A
:10164000FDFA204610BD0000000C014010B501203D
:1016500000F06EF8012000F05DF8FFF7E9FF0446A6
:10166000002000F057F8204610BD70B5002501207D
:1016700000F05EF800240EE0012000F04BF8FFF7C8
:10168000D7FF012802D1802020410543002000F02F
:1016900041F8601CC4B2082CEEDB284670BD10B5C2
:1016A0000446204600F044F8012000F033F8002002
:1016B00000F030F810BD70B5054600240DE0802123
:1016C000214101EA050000F033F8012000F022F882
:1016D000002000F01FF8601CC4B2082CEFDB70BDC6
:1016E00010B5012000F024F8012000F013F80020CC
:1016F00000F01EF8002000F00DF810BD10B500201D
:1017000000F016F8012000F005F8012000F010F8B4
:1017100010BD000010B50446224640210348FFF7E3
:10172000F2FB0A2001F08AFA10BD0000000C014013
:1017300010B50446224680210348FFF7E4FB0A2047
:1017400001F07CFA10BD0000000C0140704708B5A4
:101750004FF4A06000F048F81C208DF80000022033
:101760008DF8010000208DF8020001208DF80300A3
:10177000684600F001F808BD70B5002100230F2273
:10178000C47804B3154C246804F4E064C4F5E06440
:10179000210AC1F10403CA40447804FA03F18478B1
:1017A0001440214309010E4C0678A155047804F039
:1017B0001F050124AC4005786D11AD0005F1E02551
:1017C000C5F8004109E0047804F01F050124AC408D
:1017D000044D0678761145F8264070BD0CED00E00A
:1017E00000E400E080E100E002490143024A1160A8
:1017F000704700000000FA050CED00E02DE9FE4FF7
:1018000083468A4600200290019000903948007873
:10181000ABEB0000384921F81A0031F91A10374AA9
:1018200032F91A20881AFEF7D5FE804689460AEB5F
:101830004A00334901EBC000D0E90063324640461C
:101840004946FEF7DDFD0446FEF7E2FE02902A4916
:1018500031F91A00FEF7BEFE06460F460AEB4A00B3
:10186000274901EBC000D0E9024322463046394601
:10187000FEF7C6FD8046FEF7CBFE01901E4931F90A
:101880001A101E4A32F91A20022303FB12111D4AB4
:1018900032F91A208818FEF79DFE06460F460AEB1D
:1018A0004A00174901EBC000D0E904432246304604
:1018B0003946FEF7A5FD8046FEF7AAFE00900F48C8
:1018C00030F81A000F4921F81A000B4830F81A00B6
:1018D0000A4921F81A00DDE9011001440098084482
:1018E00000B2094921F81A00084630F91A00BDE88B
:1018F000FE8F00005D000020740000207C000020AE
:1019000098000020840000208C00002010B5FFF714
:101910009BF900F019FC0021012000F00DF80021D6
:10192000022000F009F80021032000F005F8002152
:10193000042000F001F810BD70B505460C4604EB1C
:101940008400400004B2B4F57A7F01DD4FF47A746C
:10195000002C00DA002435B1012D09D0022D0CD065
:10196000032D14D10EE0A1B20A4800F0B2FE0FE040
:10197000A1B2084800F0AFFE0AE0A1B2054800F0AD
:10198000ACFE05E0A1B2034800F0A9FE00E000BFF4
:1019900000BF70BD000400407047000029B1064A36
:1019A000D2690243044BDA6104E0034AD2698243FC
:1019B000014BDA61704700000010024029B1064A6D
:1019C00012690243044B1A6104E0034A126982431C
:1019D000014B1A61704700000010024029B1064A0D
:1019E00092690243044B9A6104E0034A926982437C
:1019F000014B9A61704700000010024029B1064A6D
:101A0000D2680243044BDA6004E0034AD26882439E
:101A1000014BDA60704700000010024030B5002131
:101A20000022002400232D4D6D6805F00C0121B12A
:101A3000042905D0082923D105E0294D056022E0BD
:101A4000274D05601FE0254D6D6805F47012234D8C
:101A50006D6805F48034022505EB92421CB9214DD6
:101A6000554305600BE01D4D6D6805F400351DB153
:101A70001C4D5543056002E0194D5543056002E0D9
:101A8000174D056000BF00BF144D6D6805F0F001F3
:101A90000909154D6B5C0568DD4045600F4D6D68AB
:101AA00005F4E061090A104D6B5C4568DD40856016
:101AB0000A4D6D6805F46051C90A0B4D6B5C4568B1
:101AC000DD40C560054D6D6805F44041890B074D4B
:101AD0006B5CC568B5FBF3F5056130BD00100240D5
:101AE00000127A0000093D000000002010000020D4
:101AF00000200349087048708870C8707047000063
:101B00001C00002070470EB54FF4A060FFF76CFE7C
:101B1000FFF7BCF801210020FFF7CEF802210020DA
:101B2000FFF7CAF803210020FFF7C6F804210020C0
:101B3000FFF7C2F807208DF8080003208DF8090090
:101B400001208DF80A008DF80B0002A8FFF714FEA3
:101B500008208DF8080003208DF8090002208DF878
:101B60000A0001208DF80B0002A8FFF705FE0920EE
:101B70008DF8080003208DF809008DF80A00012077
:101B80008DF80B0002A8FFF7F7FD0A208DF808007A
:101B900003208DF8090004208DF80A0001208DF83B
:101BA0000B0002A8FFF7E8FD1E20009000208DF832
:101BB00004000C208DF8050001208DF80600684611
:101BC000FEF7D0FF0EBD10B500F002F810BD00000A
:101BD0000CB50020019000903348006840F480303C
:101BE0003149086000BF3048006800F400300090C0
:101BF0000198401C0190009818B90198B0F5A06FA9
:101C0000F1D12948006800F4003010B101200090A3
:101C100001E0002000900098012843D1234800688B
:101C200040F01000214908600846006820F00300D9
:101C300008600846006840F0020008601A484068E2
:101C4000194948600846406848600846406840F4C2
:101C5000806048600846406820F47C104860084670
:101C6000406840F4E81048600846006840F0807022
:101C7000086000BF0C48006800F000700028F9D030
:101C80000948406820F0030007494860084640685A
:101C900040F00200486000BF0348406800F00C00BC
:101CA0000828F9D10CBD00000010024000200240BD
:101CB000042808D14FF0E021096941F004014FF0F8
:101CC000E022116107E04FF0E021096921F00401F1
:101CD0004FF0E022116170477047000010B50446D4
:101CE0006FF00400FFF7E4FFE11704EB5171C1F35B
:101CF000C701074A11701046007800EB4001C1EBA4
:101D0000C0104FF6FF7101EAC0000249088010BD03
:101D1000F8000020FA00002010B51348006840F0D9
:101D200001001149086008464068104908400E4902
:101D30004860084600680E4908400B49086008469C
:101D4000006820F4802008600846406820F4FE0007
:101D500048604FF41F008860FFF735FF4FF00060C8
:101D60000449086010BD0000001002400000FFF8A8
:101D7000FFFFF6FE08ED00E0012080F3138800BFAE
:101D800000BF0748006800F4E06006490843001DF2
:101D900003490860BFF34F8F00BF00BFFEE700009C
:101DA0000CED00E00000FA052DE9FC5F0121880739
:101DB00000F01AFB00287DD0B4480078042804D134
:101DC000B3480088401CB2490880B2480088401CD3
:101DD000B0490880B0480068FEF752FC044621F084
:101DE00000415A2804DDAD480078401CAB4908701A
:101DF000A848008832281AD1A9480078A949087053
:101E0000A74840784870A64880788870A448C07871
:101E1000C870A5480088A5490880A3484088488024
:101E2000A14880888880A048C088C88020E0994860
:101E3000008896281CD19A4800789D4908709848D7
:101E4000407848709648807888709548C078C87007
:101E50009548008897490880934840884880924870
:101E6000808888809048C088C88000208949088080
:101E7000904800888D490988884207DA8B48008895
:101E80008C490988401A8C49088006E089480088F6
:101E900086490988401A88490880864840888349CD
:101EA0004988884209DA8148408882494988401A2D
:101EB000814900E0E7E0488006E07E4840887B49B1
:101EC0004988401A7C4948807A48808877498988BF
:101ED000884207DA7548808876498988401A7649A9
:101EE000888006E07348808870498988401A724962
:101EF00088807048C0886D49C988884207DA6B4875
:101F0000C0886C49C988401A6B49C88006E0694896
:101F1000C0886649C988401A6749C88066490888E8
:101F2000FEF769FB8246654A654BFEF769FA804613
:101F30000022644BFEF764FA06460022624BFEF76D
:101F4000D1FA0446FEF783FB604908705A49488875
:101F5000FEF751FB0646594A594BFEF751FA8246A5
:101F60000022584BFEF74CFA80460022564BFEF7F3
:101F7000B9FA0446FEF76BFB544948704E4988880D
:101F8000FEF739FB06464D4A4D4BFEF739FA8046BF
:101F900000224C4BFEF734FA044600224A4BFEF76F
:101FA000A1FA8246FEF753FB484988704249C88827
:101FB000FEF721FB8046414A414BFEF721FA0646D7
:101FC0000022404BFEF71CFA044600223E4BFEF76F
:101FD00089FA8246FEF73BFB3C49C87031480078DD
:101FE000334909780844394909780844032190FBAA
:101FF000F1F02B4908702B4840782D494978084466
:10200000324949780844032190FBF1F02449487093
:10201000244880782649897808442C4989780844DE
:10202000032190FBF1F01E4988701E48C0782049BA
:10203000C97808442549C9780844032190FBF1F088
:102040001749C87012480088642807D10020104939
:1020500008801F480078401C1D4908701D48007802
:1020600068B11D481D491E4B1E4ACDE900101E498E
:102070001E48FEF7BBFFFFF7A3F800F085FB012128
:10208000880700F0AEF8BDE8FC9F00005800002073
:102090002200002020000020640000205A000020C0
:1020A0001C0000203C000020140000202400002020
:1020B000400000202C000020340000201F85EB5140
:1020C000B81E0940000018400000344044000020C1
:1020D0005C00002072000020560000205400002008
:1020E00052000020500000204E0000204C00002034
:1020F0003EB505460C4601210846FFF74FFC4FF060
:10210000804000F07DF8ADF80450ADF800400020AC
:10211000ADF80200ADF806008DF8080069464FF0F2
:10212000804000F0DFFA0121880700F057F8012213
:102130001146900700F069F9FFF709FB01218807B4
:1021400000F052F83EBD000000B587B0012102202A
:10215000FFF724FC40F2E730ADF814004720ADF85B
:1021600010000020ADF81600ADF8120004A91A48BE
:1021700000F0B8FA6020ADF800000120ADF80200D0
:102180003220ADF806000020ADF80800694612487C
:1021900000F044F90821104800F08CF969460E4817
:1021A00000F092F908210C4800F0E0F969460A486D
:1021B00000F0EAF90821084800F036FA69460648B6
:1021C00000F03CFA0821044800F076FA01210248A8
:1021D00000F00AF807B000BD00040040CA430282C4
:1021E0007047CA430282704721B1028842F001025F
:1021F000028004E002884FF6FE731A4002807047A6
:1022000010B504466848844208D10121C014FFF784
:10221000F5FB0021E014FFF7F1FBC4E0B4F1804FBF
:1022200008D101210846FFF7C9FB00210120FFF773
:10223000C5FBB8E05D48844208D101210220FFF7C8
:10224000BDFB00210220FFF7B9FBACE058488442F7
:1022500008D101210420FFF7B1FB00210420FFF782
:10226000ADFBA0E05348844208D101210820FFF7CC
:10227000A5FB00210820FFF7A1FB94E04E48844213
:1022800008D101211020FFF799FB00211020FFF752
:1022900095FB88E04948844208D101212020FFF7BE
:1022A0008DFB00212020FFF789FB7CE0444884421D
:1022B00008D101214014FFF7A1FB00216014FFF7B2
:1022C0009DFB70E03F48844209D10121C804FFF71B
:1022D00095FB00214FF40020FFF790FB63E03A48A4
:1022E000844209D101210805FFF788FB00214FF442
:1022F0008010FFF783FB56E03448844209D1012166
:102300004805FFF77BFB00214FF40010FFF776FB39
:1023100049E02F48844208D101214020FFF74EFBBD
:1023200000214020FFF74AFB3DE02A48844208D1C3
:1023300001218020FFF742FB00218020FFF73EFBB8
:1023400031E02548844208D101218015FFF736FB92
:102350000021A015FFF732FB25E02048844209D177
:1023600001210804FFF74AFB00214FF48030FFF7FA
:1023700045FB18E01A48844209D101214804FFF7BF
:102380003DFB00214FF40030FFF738FB0BE0154810
:10239000844208D101218804FFF730FB00214FF46B
:1023A0008020FFF72BFB10BD002C014000040040F3
:1023B00000080040000C00400010004000140040E5
:1023C00000340140004C01400050014000540140E5
:1023D00000180040001C0040002000400040014068
:1023E000004401400048014030B50246002000236F
:1023F0000024158A05EA0103958905EA010413B151
:102400000CB1012000E0002030BD1AB183890B43DC
:10241000838102E083898B438381704770B50024F8
:1024200000220023058C4FF6FE7635400584028C91
:102430008388048B4FF68F752C40B51E2C400D8879
:102440002C43751E2A400D892A434D882A43144D7A
:10245000A8420BD0134DA84208D0134DA84205D076
:10246000124DA84202D0124DA84213D14FF6F77573
:102470002A404D892A434FF6FB752A408D882A430E
:102480004FF6FF652B404FF6FF552B408D892B43B0
:10249000CD892B4383800483CD888586028470BDDB
:1024A000002C014000340140004001400044014044
:1024B000004801400A460021018B4FF6F77319408E
:1024C000114301837047000070B5002400220023EF
:1024D000058C4FF6EF7635400584028C8388048B9B
:1024E00048F6FF752C404FF6FF452C400D884FF6FF
:1024F000FF7606EA05252C434FF6DF752A400D8945
:1025000006EA05152A434D8806EA05152A43154DA6
:10251000A84202D0144DA8421DD14FF67F752A4023
:102520004D894FF6FF7606EA05152A434FF6BF752B
:102530002A408D8806EA05152A434FF6FF352B40C1
:102540004FF2FF752B408D8906EA85052B43CD8917
:1025500006EA85052B4383800483CD8805870284A2
:1025600070BD0000002C0140003401400A460021EB
:10257000018B4FF2FF7319404FF6FF7303EA0223FA
:10258000194301837047000070B500240022002326
:10259000058C4FF6FF6635400584028C8388848B5A
:1025A0004FF68F752C404FF6FC752C400D882C4350
:1025B0004FF6FF552A400D894FF6FF7606EA0525AE
:1025C0002A434D8806EA05252A43154DA84202D024
:1025D000144DA8421DD14FF2FF752A404D894FF688
:1025E000FF7606EA05252A434FF6FF352A408D88F7
:1025F00006EA05252A434EF6FF752B404DF6FF757A
:102600002B408D8906EA05152B43CD8906EA051571
:102610002B4383808483CD888587028470BD00002E
:10262000002C0140003401400A460021818B4FF606
:10263000F7731940114381837047000070B5002281
:1026400000230024058C4EF6FF7635400584038C6C
:102650008488828B48F6FF752A404FF6FF452A4052
:102660000D884FF6FF7606EA05252A434DF6FF75DD
:102670002B400D8906EA05352B434D8806EA0535C2
:102680002B430B4DA84202D00A4DA84208D14BF66D
:10269000FF752C408D894FF6FF7606EA85152C4391
:1026A00084808283CD88A0F84050038470BD0000F0
:1026B000002C0140003401400A460021818B4FF27A
:1026C000FF7319404FF6FF7303EA02231943818316
:1026D0007047818670470187704781877047A0F8EF
:1026E00040107047002202881D4B98420ED01D4BAF
:1026F00098420BD0B0F1804F08D01B4B984205D0C8
:102700001A4B984202D01A4B984204D14FF68F735D
:102710001A404B881A43174B984207D0164B9842E1
:1027200004D04FF6FF431A40CB881A4302808B88AF
:1027300083850B8803850A4B98420BD0094B98423E
:1027400008D00E4B984205D00D4B984202D00D4B4D
:10275000984201D10B7A03860123838270470000DF
:10276000002C0140003401400004004000080040FB
:10277000000C0040001000400014004000400140E8
:1027800000440140004801402DE9F05F5E480068C8
:10279000FDF776FF80465D4A5D4BFDF731FE04464E
:1027A0000D465C480068FDF76BFF064622462B4647
:1027B000FDF77FFD8246FDF776FF564908605648D3
:1027C0000078012802D0022877D14BE053495148C4
:1027D0000068FDF78FFF24D251480078642190FBF8
:1027E000F1F201FB120058B900204D490870042095
:1027F0004C4908700020484908704649086030E09C
:1028000000210846FEF710FE00210120FEF70CFE15
:1028100000210220FEF708FE00210320FEF704FE3F
:102820001FE000210846FEF799FD00210120FEF778
:1028300095FD01210220FEF791FD01210320FEF705
:102840008DFD5A210020FEF7EFFD5A210120FEF7F1
:10285000EBFD5A210220FEF7E7FD5A210320FEF787
:10286000E3FD4DE030492B480068FDF739FF25D2E4
:102870002B480078642190FBF1F201FB120058B95B
:1028800000202749087004202649087000202249AA
:1028900008702049086031E000210846FEF7C4FDB9
:1028A00000210120FEF7C0FD00210220FEF7BCFD43
:1028B00000210320FEF7B8FD20E020E001210020E8
:1028C000FEF74CFD01210846FEF748FD00210220DD
:1028D000FEF744FD00210320FEF740FD5A210020B1
:1028E000FEF7A2FD5A210120FEF79EFD5A2102208B
:1028F000FEF79AFD5A210320FEF796FD00E000BF87
:1029000000BFBDE8F09F00006C000020FCA9F1D2E0
:102910004D62803F64000020720000200000B4423D
:102920005A000020580000200000B4C210B540F248
:1029300025511D4800F0ABF810B31B4800F062F9B8
:10294000C4B21A48008800F40040C8B9174800888B
:1029500000F4804060B10A2C03D0002013490880A5
:1029600020E01248008840F400401049088019E037
:102970000D2C06D10D48008840F480400B4908809A
:1029800010E00A480088C0F30D0009490C540748BC
:102990000088401C0549088008460088C72801DDDA
:1029A0000020088010BD000000380140FC0000201D
:1029B0000401002010B586B0044601210420FFF771
:1029C0000DF801218803FFF709F84FF40070ADF806
:1029D000140003208DF8160018208DF8170005A9A3
:1029E0001E48FEF789F94FF48060ADF8140004200A
:1029F0008DF8170005A91948FEF77EF9019400200B
:102A0000ADF80800ADF80A00ADF80C00ADF8100004
:102A10000C20ADF80E0001A9114800F087F8012143
:102A20000F4800F028F840210D4800F01BF8012263
:102A300040F225510A4800F054F825208DF8000096
:102A400003208DF801008DF8020001208DF80300AD
:102A50006846FEF791FE06B010BD00000008014078
:102A60000038014001F40072B2F5007F00D100BFD0
:102A7000CA430280704721B1828942F400528281A8
:102A800004E082894DF6FF731A408281704770B569
:102A90000246002400230025002040F66A16B142B9
:102AA00000D100BFC1F3421501F01F03012606FA51
:102AB00003F3012D02D19689334006E0022D02D1A5
:102AC000168A334001E0968A33400C12012606FA3A
:102AD00004F41688344013B10CB1012000E000204A
:102AE00070BDF0B50346002400260025002040F606
:102AF0006A17B94200D100BF1846C1F3421401F071
:102B00001F06012707FA06F5012C01D10C3004E05D
:102B1000022C01D1103000E014301AB107682F43A5
:102B2000076002E00768AF430760F0BD2DE9F0479A
:102B300086B005460E460024A24600BFA1460027E7
:102B4000B08900B100BF2F462C8A4CF6FF700440BC
:102B5000F08804432C82AC894EF6F3100440B08810
:102B600031890843718908430443AC81AC8A4FF62C
:102B7000FF400440B0890443AC8201A8FEF74EFF39
:102B80001F48874202D1DDF810A001E0DDF80CA05B
:102B9000A88900F4004040B10AEBCA0000EB0A101B
:102BA00031684900B0FBF1F807E00AEBCA0000EB1E
:102BB0000A1031688900B0FBF1F86420B8FBF0F02E
:102BC00004012009642101FB1089A88900F4004058
:102BD00040B1322000EBC900B0FBF1F000F007007B
:102BE000044308E0322000EB09106421B0FBF1F04F
:102BF00000F00F0004432C8106B0BDE8F087000010
:102C00000038014001468888C0F30800704700BFC3
:102C1000FEE70000004870470001002002E008C8FD
:102C2000121F08C1002AFAD170477047002001E046
:102C300001C1121F002AFBD1704700000146114A52
:102C400012784A434FF0E0235A6100229A611A46F3
:102C5000126942F001021A6100BF4FF0E0221069D0
:102C600000F001021AB100F48032002AF5D04FF0D2
:102C7000E022126922F001024FF0E0231A610022E3
:102C80009A617047F800002000F006F8FEF756FA47
:102C900001E0FEF7F9FBFCE710B5FEF734FFFEF7A5
:102CA0007FF94820FFF71AF84FF4E130FFF782FE72
:102CB000472142F20F70FFF71BFAFEF7EDF9FEF71E
:102CC00011FBFDF7A3FFFEF72BF910BD10B58848E7
:102CD000007801282ED1FEF7B3FB0021854800784B
:102CE00040B2FEF78BFD044621460020FEF79CFB18
:102CF00001218048007840B2FEF780FD044621465D
:102D00000120FEF791FB02217A48007840B2FEF7DD
:102D100075FD044621460220FEF786FB0321754817
:102D2000007840B2FEF76AFD044621460320FEF714
:102D30007BFB18E06E480078022806D06C480078CB
:102D4000032802D06A48007868B9FEF78BFB0020A0
:102D5000FEF790FA0120FEF78DFA0220FEF78AFABC
:102D60000320FEF787FA644800880B2878D2DFE852
:102D700000F00611223344556678899AAB00002092
:102D80005D4908805D49087005205D490870FEF7BF
:102D9000F3FFABE05848008800EB80005749097802
:102DA000884207D100205449088054490870052002
:102DB000534908709AE05048008800EB80004F4962
:102DC0000978884207D100204B4908804B49087098
:102DD00005204B49087089E04748008800EB8000D7
:102DE00046490978884207D1002043490880434971
:102DF000087005204249087078E03F48008800EBE1
:102E000080003E490978884207D100203A4908806D
:102E10003A49087005203A49087067E0364800884A
:102E200000EB800035490978884207D100203249FB
:102E300008803249087005203149087056E02E4854
:102E4000008800EB80002D490978884207D10020D6
:102E5000294908802949087005202949087045E05A
:102E600043E02548008800EB800024490978884227
:102E700007D10020204908802049087005202049FA
:102E8000087033E01C48008800EB80001B4909787B
:102E9000884207D100201849088018490870052089
:102EA0001749087022E01448008800EB800013499D
:102EB0000978884207D100200F4908800F4908701F
:102EC00005200F49087011E00B48008800EB8000D6
:102ED0000A490978884207D1002007490880074934
:102EE000087005200649087000E000BF00BF10BD53
:102EF000590000205B000020700000205C000020D2
:102F00005800002000404040404040404040414187
:102F100041414140404040404040404040404040AE
:102F20004040404040050202020202020202020248
:102F30000202020202202020202020202020200245
:102F400002020202020290909090909010101010D5
:102F50001010101010101010101010101010101071
:102F60000202020202028888888888880808080805
:102F700008080808080808080808080808080808D1
:102F80000202020240000000052F0008AC2F0008DA
:102F900000000020040100001C2C0008B0300008D4
:102FA00004010020CC0400002C2C000800000000CC
:102FB00001020304010203040607080902040608CB
:102FC0000000000000000000000000000000000001
:102FD00000000000000000000000000000000000F1
:102FE00000000000000000000000000000000000E1
:102FF00000000000000000000000000000000000D1
:103000000000000005050050000000000000000066
:1030100000000000000000000000000000000000B0
:1030200000000000000000000000000000000000A0
:103030000000000000000000000000000000000090
:103040000000000000000000000020400000000020
:1030500000000040000000000000394000000000B7
:1030600000002040000000000000004000000000C0
:103070000000394000000000000020400000000077
:103080000000004000000000000039400000000087
:103090000000204000000000000000400000000090
:1030A00000003940000000000000000000000000A7
:0400000508000131BD
:00000001FF
