:020000040800F2
:10000000A005002045010008D10E0008D10B000812
:10001000B50C00087D080008231E00080000000041
:10002000000000000000000000000000C5110008F2
:100030008108000800000000411100087113000849
:100040005F0100085F0100085F0100085F01000810
:100050005F0100085F0100085F01000885080008D3
:10006000A9080008CD080008F10800085F01000891
:100070005F0100085F0100085F0100085F010008E0
:100080005F0100085F0100085F0100085F010008D0
:100090005F0100085F0100085F0100085F010008C0
:1000A0005F0100085F0100085F0100085F010008B0
:1000B000D51300085F0100085F0100085F01000818
:1000C0005F0100085F0100085F0100085F01000890
:1000D0005F0100083D1D00085F0100085F01000886
:1000E0005F0100085F0100085F0100085F01000870
:1000F0005F0100085F0100085F0100085F01000860
:100100005F0100085F0100085F0100085F0100084F
:100110005F0100085F0100085F0100085F0100083F
:100120005F0100085F0100085F0100085F0100082F
:10013000DFF80CD000F090FB00480047911E00084B
:10014000A00500200648804706480047FEE7FEE776
:10015000FEE7FEE7FEE7FEE7FEE7FEE7FEE7FEE777
:100160007513000831010008F0B480EA0102D40FD1
:100170004200B2EB410F02D20246084611464A0045
:1001800042D0C30DDDB2C1F3C752AD1A202D35DA0E
:10019000C1F3160141F4000204B15242C5F1200638
:1001A00002FA06F12A411044B3EBD05F23D0C4B168
:1001B000012DA0EBC35009DCF0BC4FF0004202EA75
:1001C000C352DBB200F5000000F0BABA400000F103
:1001D000807000EBC350A0F1807040EAD1704900FC
:1001E00009E0490841EAC071A0EBC35000F50000E6
:1001F000400800EBC350F0BC00F099BA6142012204
:1002000002EB4101001BF6E7F0BC704781F00041B2
:10021000AAE780F00040A7E730B480EA010202F0CC
:10022000004530F0004221F0004013D090B1C30DE2
:10023000D40DC2F31601C0F31600E41A41F4000114
:1002400040F400027D34914201D3641C00E0490077
:10025000002C02DA30BC002070474FF4000000236D
:10026000914201D3891A034340084FEA4101F7D173
:1002700051B1914202D14FF0004105E002D24FF05E
:10028000010101E06FF0010103EBC450284430BCD0
:1002900000F04DBA2DE9FE4F804681EA0300C00F01
:1002A0000C46009021F0004123F00045B8EB02001D
:1002B000A94105D24046214690461C460B460246BF
:1002C00023F00040104347D0270DC7F30A00C3F3C3
:1002D0000A510290401A019040286BDAC3F31300D0
:1002E00040F4801B0098924620B10023D2EB030A11
:1002F00063EB0B0B01985946C0F14002504600F0E9
:10030000E5F906460D4650465946019A00F0FDF9BA
:1003100010EB08006141002487EA115284EAE77378
:100320001A4340D0009A62B3019A012A4FEA075259
:1003300015DC001B61EB02014FF0004202EA07529C
:10034000CDE90042001C41F5801132462B4600F0F9
:1003500034FA03B0BDE8F08F40462146F9E7001BB0
:1003600061EB0201001C41F5801300185B4120186D
:10037000A2F5001747EB030140EAD570B6196D41AD
:1003800011E06D084FEA360645EAC0754FEA07529C
:10039000001B61EB0201001C41F5801149084FEA86
:1003A00030000019514132462B4603B0BDE8F04FF2
:1003B00000F0F4B90098012240000023D0EB0202C3
:1003C00063EBE073009821464FEAE074B8EB00005D
:1003D00061EB0401E9E783F000435BE781F0004152
:1003E00058E72DE9FE4F81EA030404F0004421F0B0
:1003F000004100944FF0000B23F0004350EA010449
:100400005ED052EA03045BD0C3F30A54C1F30A5529
:100410002C44A4F2F3340194A0FB0254C1F3130161
:1004200041F48011C3F3130343F4801301FB02442E
:1004300000FB034E840A970A44EA815447EA835733
:10044000A4FB076802958D0A05FB07854FEA932CEC
:1004500004FB0C542705029D4FEA065847EA16375D
:10046000B5EB08056EEB070C870E920E47EA811775
:1004700042EA8312A7FB0201B6EB0B0164EB000416
:100480002B0D43EA0C335E1844EB1C50DA46514600
:10049000E7FB0201C5F313044FEA0B3343EA14539D
:1004A0004FEA0432019C43EA0603A4F10C040294CF
:1004B000009CCDE900B400F080F903B0BDE8F08FF6
:1004C00000200146F9E72DE9F04D81EA030404F02C
:1004D000004B21F0004514464FF0000A23F0004184
:1004E00050EA050220D054EA01021DD0C5F30A5794
:1004F0000246C5F31303C1F31300C1F30A5640F4D7
:10050000801543F48013A7EB0608101BD64608F2AB
:10051000FD3873EB050002D308F1010801E09218E1
:100520005B41B8F1000F03DA00200146BDE8F08D11
:1005300000204FF48011064684460EE0171B73EB33
:10054000050705D3121B63EB050306434CEA010CB8
:1005500049084FEA300092185B4150EA0107EDD19B
:1005600052EA030012D082EA040083EA050108433C
:1005700005D0101BAB4106D20122002306E0002269
:100580004FF0004302E06FF0010253101AEB060037
:100590004CEB085110EB0A0041EB0B01BDE8F04DAC
:1005A00000F0FCB896230022114600F0C9B80EB541
:1005B000C10F80EAE0700844CA07002140F23343CB
:1005C0008DE80E000A460B4600F0F7F803B000BDB8
:1005D0000EB540F2334102910021CDE900110A46E7
:1005E0000B4600F0EAF803B000BD20F00040C10D5A
:1005F000C0F3160040F400007F2901DA00207047A4
:10060000962903DCC1F19601C840704796398840AD
:100610007047C1F30A5210B5C1F3130140F2FF3322
:1006200041F480119A4201DA002010BD40F23343B8
:100630009A42A2F2334203DC524200F056F810BD57
:10064000904010BD00F0004230F000400AD0C10DD3
:1006500001F56071C0F3160042EA0151C20840077B
:100660001143704700200146704701F0004330B449
:1006700021F0004150EA010206D00A0DA2F5607295
:10068000C1F31301002A02DC30BC00207047440F84
:1006900044EAC104C100E01830BC00EBC25000F0D5
:1006A00046B80000002801DBC0F10040002901DB52
:1006B000C1F1004181427047002801DBC0F10040D8
:1006C000002901DBC1F1004188427047202A04DB88
:1006D000203A00FA02F1002070479140C2F1200355
:1006E00020FA03F3194390407047202A04DB203A94
:1006F00021FA02F00021704721FA02F3D040C2F142
:1007000020029140084319467047202A06DBCB1788
:10071000203A41FA02F043EAE07306E041FA02F3BC
:10072000D040C2F120029140084319467047002989
:10073000A8BF7047401C490008BF20F00100704767
:1007400010B4B0FA80FC00FA0CF050EA010404BFC7
:1007500010BC704749B1CCF1200421FA04F411FA1D
:100760000CF118BF012121430843A3EB0C01CB1D61
:100770004FEA00614FEA102042BF002010BC7047D2
:1007800000EBC35010440029A4BF10BC7047401CAC
:10079000490008BF20F0010010BC704710B5141EBE
:1007A00073F1000408DA401C41F1000192185B412A
:1007B0001A4301D120F0010010BD2DE9F04D924601
:1007C0009B4611B1B1FA81F202E0B0FA80F2203218
:1007D0009046FFF77BFF04460F4640EA0A0041EAD5
:1007E0000B0153465A46084313D0114653EA010001
:1007F00019D0C8F140025046FFF777FF05460E4674
:10080000504659464246FFF761FF084305D0012094
:1008100004E020463946BDE8F08D0020054346EA55
:10082000E0762C4337430A986305E40AA0EB0800FE
:100830000022FD0A44EA47540A3002D5002001464E
:10084000E9E7010510196941DDE908450019694129
:10085000BDE8F04DA2E70000064C074D06E0E06859
:1008600040F0010394E8070098471034AC42F6D3F7
:10087000FFF762FC0C2300082C23000800BFFEE7F2
:100880007047000010B5022000F04AF8012804D19A
:1008900004480068401C03490860022000F03AF850
:1008A00010BD0000B800002010B5042000F038F89A
:1008B000012804D104484068401C034948600420D2
:1008C00000F028F810BD0000B800002010B5082086
:1008D00000F026F8012804D104488068401C034930
:1008E0008860082000F016F810BD0000B800002055
:1008F00010B5102000F014F8012804D10448C06895
:10090000401C0349C860102000F004F810BD00002E
:10091000B80000200149086070470000140401403D
:10092000014600200022074B1B6803EA0102054B29
:1009300014331B680B4013B10AB1012000E0002002
:100940007047000000040140002123498279002AF9
:100950003AD00A46126803689A430B461A600A1D89
:10096000126803689A430B1D1A60027911440A68E1
:1009700003681A430A60184A0832126803689A43E7
:10098000154B08331A601A1D126803689A43124BFC
:100990000C331A604279102A0ED11A1F12680368AC
:1009A0001A430D4B08331A601A1D126803681A4364
:1009B000094B0C331A600DE00749427911440A686B
:1009C00003681A430A6005E0027911440A68036863
:1009D0009A430A6070470000000401400020034968
:1009E000086048608860C86070470000B800002058
:1009F00008B50121042000F0C5FB0121082000F00A
:100A0000C1FBC020ADF8000018208DF803000320C2
:100A10008DF802006946054800F042F80320ADF861
:100A200000006946024800F03BF808BD000801409C
:100A3000000C014008B50121042000F0A3FB1E209A
:100A4000ADF8000028208DF8030003208DF8020087
:100A50006946024800F024F808BD00000008014083
:100A600030B500228B071C0F0F2303FA04F20B4B47
:100A70008C1053F824309343084C8D1044F82530E3
:100A800023468C1053F824308C07240F00FA04F40A
:100A90002343024C8D1044F8253030BD080001403E
:100AA0002DE9F04102460025002600200023002405
:100AB000002791F803C00CF00F0591F803C00CF06B
:100AC000100CBCF1000F03D091F802C04CEA0505F0
:100AD00091F800C0BCF1000F31D0146800202BE069
:100AE0004FF0010C0CFA00F3B1F800C00CEA030659
:100AF0009E4220D183004FF00F0C0CFA03F7BC4349
:100B000005FA03FC4CEA040491F803C0BCF1280F79
:100B100006D14FF0010C0CFA00FCC2F814C00AE038
:100B200091F803C0BCF1480F05D14FF0010C0CFA4D
:100B300000FCC2F810C0401C0828D1D31460B1F8E2
:100B400000C0BCF1FF0F34DD546800202EE000F13E
:100B5000080C4FF0010808FA0CF3B1F800C00CEAD9
:100B600003069E4221D183004FF00F0C0CFA03F7CD
:100B7000BC4305FA03FC4CEA040491F803C0BCF141
:100B8000280F05D100F1080C08FA0CF8C2F81480FF
:100B900091F803C0BCF1480F07D100F1080C4FF0E9
:100BA000010808FA0CF8C2F81080401C0828CED3BF
:100BB0005460BDE8F0810246002093680B400BB101
:100BC000012000E0002070474161704701617047DB
:100BD00000BFFEE710B5002400BF0EE001F05EF993
:100BE0000C4800780C490978084440B2094908705B
:100BF000022001F027F9601CC4B2962CEEDB0548F8
:100C000090F90000962190FBF1F040B20149087084
:100C100010BD00000E000020140000202DE9F05F40
:100C20001B4800681B4908601B49B1F900101B4AAA
:100C300092F90020881AFFF7BAFC06464FF0663298
:100C4000174BFFF740FC0446FFF70FFD1049086003
:100C500010480068FFF7F6FC0646124A124BFFF7F1
:100C6000C0FB04460D460A480068FFF7EBFC064649
:100C70000E4A0F4BFFF7B5FB804622462B46FFF787
:100C800009FB8246FFF7F1FC01490860BDE8F09FCF
:100C90002C00002028000020140000200E0000205E
:100CA000666630409A9999999999B93FCDCCCCCC48
:100CB000CCCCEC3F00BFFEE708B50121202000F0BE
:100CC00061FAFF20ADF8000010208DF8030003202A
:100CD0008DF8020069461548FFF7E2FEFF21134830
:100CE000FFF772FF00F0DCF90121002000F020F88E
:100CF0000121084600F01CF80121022000F018F83C
:100D00000121032000F014F80021084600F07AF8D1
:100D10000021012000F076F80021022000F072F896
:100D20000021032000F06EF808BD0000001401400F
:100D300070B505460C46032D01DC002D00DA70BDB0
:100D40002E48445535B1012D18D0022D2AD0032D3F
:100D500050D13BE03CB902212948FFF737FF012180
:100D60002748FFF731FF012C07D101212448FFF765
:100D70002DFF02212248FFF727FF3CE03CB9082164
:100D80001F48FFF723FF04211D48FFF71DFF012C1B
:100D900007D108211A48FFF717FF04211848FFF769
:100DA00015FF28E03CB920211548FFF70FFF10215F
:100DB0001348FFF709FF012C07D120211048FFF746
:100DC00003FF10210E48FFF701FF14E03CB980211A
:100DD0000B48FFF7FBFE40210948FFF7F5FE012C09
:100DE00007D180210648FFF7EFFE40210448FFF7B6
:100DF000EDFE00E000BF00BF00BFA0E70000002044
:100E00000014014070B504460D46002C07DB032C8E
:100E100005DC03490D552946601C00F057F970BDEB
:100E20000400002010B500210846FFF781FF0021D3
:100E30000120FFF77DFF00210220FFF779FF00214D
:100E40000320FFF775FF10BD10B501210020FFF74B
:100E50006FFF01210846FFF76BFF01210220FFF71A
:100E600067FF01210320FFF763FF10BD10B516488F
:100E7000007830B101280AD0022814D0032818D1F4
:100E80000BE0FFF7E1FF04200F49087012E0FFF7C5
:100E9000C9FF04200C4908700CE000F0F3FE0420A8
:100EA0000949087006E000F091FE04200649087028
:100EB00000E000BF00BF04480078042803D10348C5
:100EC000007801F0A5F910BD2000002031000020BD
:100ED000704708B54FF4A06000F046F81C208DF86C
:100EE000000000208DF8020001208DF80300684604
:100EF00000F002F808BD000070B5002100230F22A9
:100F0000C47804B3154C246804F4E064C4F5E064C8
:100F1000210AC1F10403CA40447804FA03F1847839
:100F20001440214309010E4C0678A155047804F0C1
:100F30001F050124AC4005786D11AD0005F1E025D9
:100F4000C5F8004109E0047804F01F050124AC4015
:100F5000044D0678761145F8264070BD0CED00E092
:100F600000E400E080E100E002490143024A116030
:100F7000704700000000FA050CED00E02DE9F04F8D
:100F800089B081460C463F4810F82400A9EB0000C8
:100F90003D490855095D3D4A125D022303FB1211CC
:100FA0003B4A125D8818FFF702FB0746884604EBB0
:100FB0004400384901EBC000D0E904532A463846C2
:100FC0004146FFF70EFACDE904012F49085DFFF70E
:100FD000FFFA0746884604EB44002E4901EBC000A7
:100FE000D0E902532A4638464146FFF7FAF98246CD
:100FF0008B462549095D254A125D881AFFF7D7FA05
:1010000005460E4604EB4400224901EBC000D0E93E
:1010100000733A4628463146FFF7E3F952465B46ED
:10102000CDE90001FFF736F9CDE90201DDE904233E
:10103000FFF730F9CDE90601FFF7EBFA164921F881
:101040001400164830F8140031F8141008441349FD
:1010500021F814000D48005D0D4908550A48005D4F
:101060000A4908550D4830F81400642803DD64204F
:101070000A4921F81400094830F8140009B0BDE805
:10108000F08F0000B800002033000020370000205F
:101090003B000020500000204000002048000020BD
:1010A00010B5FFF7A5FC00F073FA0021012000F055
:1010B0000DF80021022000F009F80021032000F0C3
:1010C00005F80021042000F001F810BD70B50546B8
:1010D0000C4604EB84004FF6FF7101EA4004B4F5BE
:1010E0007A7F02DD4FF47A7000E020460446002C3F
:1010F00001DA002000E020460446012D06D0022D32
:1011000009D0032D0CD0042D14D10EE021460B483C
:1011100000F001FD0FE02146084800F0FEFC0AE067
:101120002146064800F0FBFC05E02146034800F09C
:10113000F8FC00E000BF00BF70BD000000040040EC
:101140007047000029B1064AD2690243044BDA61B4
:1011500004E0034AD2698243014BDA617047000020
:101160000010024029B1064A12690243044B1A6179
:1011700004E0034A12698243014B1A617047000080
:101180000010024029B1064A92690243044B9A6159
:1011900004E0034A92698243014B9A617047000060
:1011A0000010024029B1064AD2680243044BDA60BB
:1011B00004E0034AD2688243014BDA6070470000C2
:1011C0000010024070470EB5FFF734FC01210846BD
:1011D000FFF7D8FF01210020FFF742FC0221002089
:1011E000FFF73EFC03210020FFF73AFC042100201A
:1011F000FFF736FC08208DF8080001208DF8090063
:1012000002208DF80A0001208DF80B0002A8FFF7DC
:1012100073FE09208DF8080001208DF809000320D5
:101220008DF80A0001208DF80B0002A8FFF764FE7C
:101230000A208DF8080001208DF8090004208DF89F
:101240000A0001208DF80B0002A8FFF755FE0720C9
:101250008DF8080001208DF809008DF80A008DF83E
:101260000B0002A8FFF748FE1E20009000208DF81A
:10127000040008208DF8050001208DF8060068465E
:10128000FFF762FB0EBD10B500F002F810BD0000C4
:101290000CB50020019000903348006840F4803085
:1012A0003149086000BF3048006800F40030009009
:1012B0000198401C0190009818B90198B0F5A06FF2
:1012C000F1D12948006800F4003010B101200090ED
:1012D00001E0002000900098012843D123480068D5
:1012E00040F01000214908600846006820F0030023
:1012F00008600846006840F0020008601A4840682C
:10130000194948600846406848600846406840F40B
:10131000806048600846406820F47C1048600846B9
:10132000406840F4E81048600846006840F080706B
:10133000086000BF0C48006800F000700028F9D079
:101340000948406820F003000749486008464068A3
:1013500040F00200486000BF0348406800F00C0005
:101360000828F9D10CBD0000001002400020024006
:101370007047000010B51348006840F001001149A3
:10138000086008464068104908400E494860084611
:1013900000680E4908400B4908600846006820F4C0
:1013A000802008600846406820F4FE0048604FF442
:1013B0001F008860FFF767FF4FF000600449086076
:1013C00010BD0000001002400000FFF8FFFFF6FE15
:1013D00008ED00E02DE9FC5F0121880700F026FA06
:1013E00001287DD10121800700F01CF94F480088B9
:1013F000401C4E49088008460088B0F57A7F6FDBB4
:10140000002008804A480068FFF71CF906460F468E
:1014100048490868FFF7C6F80090474801680098F7
:10142000FEF7FAFE0190FFF70DF98246434A444B5E
:10143000FEF7D7FF804632463B46FEF7D2FF044612
:10144000FFF713F93F49086039480068FFF7FAF8D9
:1014500004460D4637494868FFF7A4F8009036481F
:1014600001680098FEF7D8FE0190FFF7EBF8804680
:10147000324A334BFEF7B5FF064622462B46FEF7AF
:10148000B0FF8246FFF7F1F82E494860284800680F
:10149000FFF7D8F804460D4626498868FFF782F81A
:1014A0008346254801685846FEF7B6FE8246FFF798
:1014B000C9F88046214A224BFEF793FF0646224692
:1014C0002B46FEF78EFFCDE90001FFF7CEF81D4950
:1014D000886017480068FFF7B5F804460D4600E03D
:1014E00021E01449C868FFF75DF8009012480168D0
:1014F0000098FEF791FE0190FFF7A4F806460F4A08
:101500000F4BFEF76EFF804622462B46FEF769FF23
:101510008246FFF7AAF80B49C86000200549086019
:1015200048608860C860BDE8FC9F00000C00002097
:1015300004230008B8000020082300081F85EB5191
:10154000B81E0940C80000203EB505460C460121E2
:101550000846FFF7F7FD4FF0804000F073F8ADF854
:101560000450ADF800400020ADF8020069464FF08D
:10157000804000F0D9FA01221146900700F067F987
:101580000121880700F051F8FFF7A3FC3EBD0000E1
:1015900000B587B001210220FFF7D4FD40F2E7300B
:1015A000ADF814004720ADF810000020ADF816008B
:1015B000ADF8120004A91A4800F0B6FA6020ADF8A0
:1015C00000000120ADF802003220ADF80600002036
:1015D000ADF808006946124800F042F908211048A9
:1015E00000F08AF969460E4800F090F908210C488D
:1015F00000F0DEF969460A4800F0E8F908210848D9
:1016000000F034FA6946064800F03AFA0821044826
:1016100000F074FA0121024800F007F807B000BD9D
:1016200000040040CA430282704721B1028842F0A0
:101630000102028004E002884FF6FE731A40028025
:101640007047000010B504466848844208D1012163
:10165000C014FFF7A7FD0021E014FFF7A3FDC4E0CD
:10166000B4F1804F08D101210846FFF77BFD00212E
:101670000120FFF777FDB8E05D48844208D10121E1
:101680000220FFF76FFD00210220FFF76BFDACE0A9
:101690005848844208D101210420FFF763FD00214E
:1016A0000420FFF75FFDA0E05348844208D10121E8
:1016B0000820FFF757FD00210820FFF753FD94E0B5
:1016C0004E48844208D101211020FFF74BFD002134
:1016D0001020FFF747FD88E04948844208D10121E6
:1016E0002020FFF73FFD00212020FFF73BFD7CE09D
:1016F0004448844208D101214014FFF753FD0021E2
:101700006014FFF74FFD70E03F48844209D101218A
:10171000C804FFF747FD00214FF40020FFF742FD0A
:1017200063E03A48844209D101210805FFF73AFDF8
:1017300000214FF48010FFF735FD56E03448844215
:1017400009D101214805FFF72DFD00214FF40010BC
:10175000FFF728FD49E02F48844208D101214020AD
:10176000FFF700FD00214020FFF7FCFC3DE02A4888
:10177000844208D101218020FFF7F4FC0021802061
:10178000FFF7F0FC31E02548844208D101218015A3
:10179000FFF7E8FC0021A015FFF7E4FC25E0204856
:1017A000844209D101210804FFF7FCFC00214FF419
:1017B0008030FFF7F7FC18E01A48844209D1012174
:1017C0004804FFF7EFFC00214FF40030FFF7EAFC7C
:1017D0000BE01548844208D101218804FFF7E2FCA0
:1017E00000214FF48020FFF7DDFC10BD002C0140EC
:1017F0000004004000080040000C004000100040C1
:101800000014004000340140004C014000500140F1
:101810000054014000180040001C0040002000401F
:1018200000400140004401400048014030B50246FC
:10183000002000230024158A05EA0103958905EAA2
:10184000010413B10CB1012000E0002030BD1AB139
:1018500083890B43838102E083898B4383817047B3
:1018600070B5002400220023058C4FF6FE7635402B
:101870000584028C8388048B4FF68F752C40B51E2F
:101880002C400D882C43751E2A400D892A434D8813
:101890002A43144DA8420BD0134DA84208D0134D33
:1018A000A84205D0124DA84202D0124DA84213D131
:1018B0004FF6F7752A404D892A434FF6FB752A40AB
:1018C0008D882A434FF6FF652B404FF6FF552B407E
:1018D0008D892B43CD892B4383800483CD888586D6
:1018E000028470BD002C01400034014000400140E2
:1018F00000440140004801400A460021018B4FF698
:10190000F7731940114301837047000070B500243C
:1019100000220023058C4FF6EF7635400584028CBB
:101920008388048B48F6FF752C404FF6FF452C400A
:101930000D884FF6FF7606EA05252C434FF6DF7536
:101940002A400D8906EA05152A434D8806EA051541
:101950002A43154DA84202D0144DA8421DD14FF67E
:101960007F752A404D894FF6FF7606EA05152A4312
:101970004FF6BF752A408D8806EA05152A434FF6B3
:10198000FF352B404FF2FF752B408D8906EA850508
:101990002B43CD8906EA85052B4383800483CD88BC
:1019A0000587028470BD0000002C01400034014016
:1019B0000A460021018B4FF2FF7319404FF6FF7367
:1019C00003EA0223194301837047000070B5002425
:1019D00000220023058C4FF6FF6635400584028CFB
:1019E0008388848B4FF68F752C404FF6FC752C4006
:1019F0000D882C434FF6FF552A400D894FF6FF7690
:101A000006EA05252A434D8806EA05252A43154D91
:101A1000A84202D0144DA8421DD14FF2FF752A40B2
:101A20004D894FF6FF7606EA05252A434FF6FF3526
:101A30002A408D8806EA05252A434EF6FF752B407D
:101A40004DF6FF752B408D8906EA05152B43CD8990
:101A500006EA05152B4383808483CD88858702841D
:101A600070BD0000002C0140003401400A460021F6
:101A7000818B4FF6F7731940114381837047000043
:101A800070B5002200230024058C4EF6FF76354009
:101A90000584038C8488828B48F6FF752A404FF6B4
:101AA000FF452A400D884FF6FF7606EA05252A43B2
:101AB0004DF6FF752B400D8906EA05352B434D8801
:101AC00006EA05352B430B4DA84202D00A4DA84229
:101AD00008D14BF6FF752C408D894FF6FF7606EA4C
:101AE00085152C4384808283CD88A0F840500384E0
:101AF00070BD0000002C0140003401400A46002166
:101B0000818B4FF2FF7319404FF6FF7303EA0223F4
:101B100019438183704781867047018770478187A9
:101B20007047A0F840107047002202881D4B984271
:101B30000ED01D4B98420BD0B0F1804F08D01B4BFC
:101B4000984205D01A4B984202D01A4B984204D1C1
:101B50004FF68F731A404B881A43174B984207D0A1
:101B6000164B984204D04FF6FF431A40CB881A43D5
:101B700002808B8883850B8803850A4B98420BD0A3
:101B8000094B984208D00E4B984205D00D4B984215
:101B900002D00D4B984201D10B7A03860123838238
:101BA00070470000002C0140003401400004004058
:101BB00000080040000C00400010004000140040ED
:101BC00000400140004401400048014010B500F0D1
:101BD00065F900210846FFF7ABF800210120FFF767
:101BE000A7F801210220FFF7A3F801210320FFF746
:101BF0009FF8FFF713F81F491F480068FEF752FDD2
:101C00001CD81E480078012818D11D4801681A48C0
:101C10000068FEF7A9FA1849086032210020FFF792
:101C2000F1F832210120FFF7EDF832210220FFF711
:101C3000E9F832210320FFF7E5F81AE00D490E48D4
:101C40000068FEF739FD14D200200C4908700A49DB
:101C5000086000210846FFF7D5F800210120FFF7B2
:101C6000D1F800210220FFF7CDF800210320FFF773
:101C7000C9F810BD0000B44224000020300000204C
:101C80002C00002010B500F009F901210020FFF719
:101C90004FF801210846FFF74BF800210220FFF71B
:101CA00047F800210320FFF743F8FEF7B7FF1F496D
:101CB0001F480068FEF700FD1CD21E48007802286D
:101CC00018D11D4801681A480068FEF74DFA1849F6
:101CD000086032210020FFF795F832210120FFF73C
:101CE00091F832210220FFF78DF832210320FFF70F
:101CF00089F81AE00D490E480068FEF7D3FC14D2AB
:101D000000200C4908700A49086000210846FFF7C6
:101D100079F800210120FFF775F800210220FFF774
:101D200071F800210320FFF76DF810BD0000B4C268
:101D300024000020300000202C00002010B540F2CC
:101D400025511D4800F03EF810B31B4800F064F820
:101D5000C4B21A48008800F40040C8B91748008887
:101D600000F4804060B10A2C03D0002013490880A1
:101D700020E01248008840F400401049088019E033
:101D80000D2C06D10D48008840F480400B49088096
:101D900010E00A480088C0F30D0009490C540748B8
:101DA0000088401C0549088008460088C72801DDD6
:101DB0000020088010BD000000380140B400002061
:101DC000D800002070B50246002400230025002022
:101DD00040F66A16B14200D100BFC1F3421501F0CE
:101DE0001F03012606FA03F3012D02D19689334021
:101DF00006E0022D02D1168A334001E0968A334074
:101E00000C12012606FA04F41688344013B10CB102
:101E1000012000E0002070BD01468888C0F3080062
:101E2000704700BFFEE702E008C8121F08C1002A81
:101E3000FAD170477047002001E001C1121F002A4B
:101E4000FBD170470146114A12884A434FF0E02304
:101E50005A6100229A611A46126942F001021A611F
:101E600000BF4FF0E022106900F001021AB100F447
:101E70008032002AF5D04FF0E022126922F00102F0
:101E80004FF0E0231A6100229A617047B2000020EF
:101E900000F0AFF901E0FEF7E9FFFCE71CB506230F
:101EA0006A464321682000F011F99DF801009DF871
:101EB000001040EA012000B20A4908809DF80300A2
:101EC0009DF8021040EA012000B2074908809DF801
:101ED00005009DF8041040EA012000B20349088083
:101EE0001CBD000010000020120000201400002083
:101EF00010B56420FFF7A6FF00F084F808B10120B8
:101F000010BD00226B21682000F05EF90722192124
:101F1000682000F059F904221A21682000F054F9D1
:101F200018221B21682000F04FF910221C21682084
:101F300000F04AF900226A21682000F045F90222E7
:101F40003721682000F040F9FEF744FE0020D7E773
:101F500070B50646002440211848FEF737FE00F011
:101F60008FF880211548FEF72FFE002518E000F0BD
:101F700087F840211148FEF729FE00F081F8402142
:101F80000E48FEF721FE00F07BF86006040E80216B
:101F90000A48FEF710FE08B1601CC4B2681CC5B246
:101FA000082DE4DB40210548FEF710FE00F068F83C
:101FB000304600F0B5F8204670BD0000000C01402E
:101FC00010B540210E48FEF701FE00F059F84021FF
:101FD0000B48FEF7F9FD00F053F880210848FEF7A2
:101FE000EAFD28B140210648FEF7F0FD002010BDB3
:101FF00040210348FEF7EAFD00F042F80120F6E731
:10200000000C014010B500226B21682000F0DCF8C4
:1020100007221921682000F0D7F81921682000F064
:1020200037F8072801D0012010BD0020FCE7000090
:1020300070B50446082519E004F0800020B1802125
:102040000E48FEF7C1FD03E080210C48FEF7BEFDFF
:102050006006040E00F014F840210848FEF7B4FDB5
:1020600000F00EF840210548FEF7B0FD281EA5F14E
:102070000101CDB2E0D1FFF7A3FF70BD000C01401C
:10208000002000BF011EA0F1010290B2FAD17047FA
:1020900070B504460D4600F065F8002141EA4401A0
:1020A000C8B2FFF7C5FF2846FFF7C2FF00F05AF895
:1020B000012101EB4401C8B2FFF7BAFF0020FFF78E
:1020C00047FF064600F066F8304670BD2DE9F04146
:1020D00005460E4614461F4600F044F8002141EA2A
:1020E0004501C8B2FFF7A4FF3046FFF7A1FF00F09B
:1020F00039F8012101EB4501C8B2FFF799FF04E06F
:102100000120FFF725FF2070641C781EC0B2071E57
:10211000F6D1FFF71DFF207000F03CF8BDE8F0811C
:1021200010B5044640210E48FEF750FDFFF7A8FF0A
:1021300024B180210A48FEF749FD03E080210848C8
:10214000FEF742FD40210648FEF73EFDFFF798FFEF
:1021500040210348FEF73AFDFFF792FF10BD000053
:10216000000C014010B580210948FEF72DFD4021EB
:102170000748FEF729FDFFF783FF80210448FEF79B
:1021800025FDFFF77DFF40210148FEF71FFD10BD33
:10219000000C014010B580210A48FEF717FD4021D0
:1021A0000848FEF713FDFFF76BFF40210548FEF7D7
:1021B0000BFDFFF765FF80210248FEF705FDFFF7E5
:1021C0005FFF10BD000C014070B504460D46164679
:1021D000FFF7C8FF002141EA4401C8B2FFF728FF1A
:1021E0002846FFF725FF3046FFF722FFFFF7D2FF13
:1021F00070BD10B5FEF760FDFEF7E5FF472140F228
:10220000E730FFF7A1F9FEF7E9FBFFF771FE10BD1C
:1022100070B5044600253648008835498988084449
:102220003349098908443249898908443149097880
:1022300001EB90002F49087084B900210846FEF791
:10224000E1FD00210120FEF7DDFD00210220FEF767
:10225000D9FD00210320FEF7D5FD48E0002C46D033
:102260002548007823490978084423490870002547
:102270002FE069B22148007840B2FEF77FFE0646A3
:10228000FEF790F91E4941F825000868FEF7ADF900
:1022900086B231460020FEF7B5FD19494868FEF7C1
:1022A000A4F986B231460120FEF7ACFD14498868D6
:1022B000FEF79BF986B231460220FEF7A3FD1049D6
:1022C000C868FEF792F986B231460320FEF79AFD00
:1022D0006D1C042DCDDB4BF69B206043064909782D
:1022E000B1EB400F03DD002400200349087070BDEE
:1022F000B800002022000020320000202100002031
:10230000C80000200AD7233D0000A0412C2300086C
:1023100000000020B8000000261E0008E42300088A
:10232000B8000020E8040000361E00080101010189
:10233000000000000000000000000000000000009D
:10234000000000000000000000000000005A000033
:10235000000000000000000000000000000000007D
:10236000000000000000000000000000000000006D
:10237000000000000000000000000000000000005D
:1023800000002040000000000000004000000000AD
:102390000000394000000000000020400000000064
:1023A0000000004000000000000039400000000074
:1023B000000020400000000000000040000000007D
:1023C0000000394000000000000020400000000034
:1023D0000000004000000000000039400000000044
:0423E00000000000F9
:0400000508000131BD
:00000001FF
